:100000000C942A000C943F000C943F000C943F0089
:100010000C943F000C943F000C943F000C943F0064
:100020000C943F000C943F000C943F000C943F0054
:100030000C943F000C943F000C943F000C943F0044
:100040000C943F000C943F000C943F000C943F0034
:100050000C943F0011241FBECFE5D8E0DEBFCDBF1A
:1000600010E0A0E6B0E0E0EBF2E002C005900D92F7
:10007000A436B107D9F70E945B000C9456010C948A
:10008000000084B3816084BB85B3816085BB87B386
:10009000806B87BB88B3806F88BB83E58DB91EB842
:1000A000089595B39E7F95BB8FB9779BFECF85B39F
:1000B000816085BB08950E9441002FEF8FE794E097
:1000C000215080409040E1F700C000000E94E30012
:1000D0006FEF70E00E946F000E945100F7CF97FB16
:1000E000072E16F4009407D077FD09D00E948300F4
:1000F00007FC05D03EF4909581959F4F089570952B
:1001000061957F4F0895AA1BBB1B51E107C0AA1F31
:10011000BB1FA617B70710F0A61BB70B881F991FA8
:100120005A95A9F780959095BC01CD0108958F92BD
:100130009F92AF92BF92CF92DF92EF92FF92CF93B6
:10014000DF93EC01688179818A819B81611571055A
:100150008105910521F464E279ED8BE597E02DE1CD
:1001600033EF41E050E00E94F30049015A019B0146
:10017000AC01A7EAB1E40E9412016B017C01ACEE74
:10018000B4EFA50194010E942001DC01CB018C0D8C
:100190009D1DAE1DBF1DB7FF03C00197A109B0484B
:1001A00088839983AA83BB839F77DF91CF91FF9048
:1001B000EF90DF90CF90BF90AF909F908F90089579
:1001C0000E949700089580E690E00E9497000895AD
:1001D000A0E0B0E08093600090936100A093620083
:1001E000B09363000895052E97FB1EF400940E94BF
:1001F0000A0157FD07D00E94250107FC03D04EF4E9
:100200000C940A0150954095309521953F4F4F4FE2
:100210005F4F089590958095709561957F4F8F4FB2
:100220009F4F08950E944701A59F900DB49F900D88
:10023000A49F800D911D11240895B7FF0C94120105
:100240000E941201821B930B0895A1E21A2EAA1B91
:10025000BB1BFD010DC0AA1FBB1FEE1FFF1FA21776
:10026000B307E407F50720F0A21BB30BE40BF50B73
:10027000661F771F881F991F1A9469F760957095FC
:10028000809590959B01AC01BD01CF010895A29F7F
:10029000B001B39FC001A39F700D811D1124911D5A
:1002A000B29F700D811D1124911D0895F894FFCF08
:0402B0000100000049
:00000001FF
