:100000000C942A000C9434000C9434000C943400AA
:100010000C9434000C9434000C9434000C94340090
:100020000C9434000C9434000C9434000C94340080
:100030000C9434000C9434000C9434000C94340070
:100040000C9434000C9434000C9434000C94340060
:100050000C94340011241FBECFE5D8E0DEBFCDBF25
:100060000E944B000C9489000C9400008FEF81BB20
:1000700084BB1ABA86B1806886B986B1806486B9B5
:1000800086B1876086B987B1806C87B987B187B937
:1000900087B187B908950E9436002FEF8FE191E074
:1000A000215080409040E1F700C00000349B0AC01E
:1000B00084B182BB85B185BB86B1806186B986B1CA
:1000C000806486B984B195B18039914020F485B3BC
:1000D000846085BBE2CF84B195B18039914038F01E
:1000E00084B195B18935924020F080E003C080E072
:1000F00001C081E0882321F085B3886085BBCDCF26
:1001000084B195B18835924040F285B3806185BB5A
:06011000C4CFF894FFCFFC
:00000001FF
