:100000000C942A000C9434000C9434000C943400AA
:100010000C9434000C9434000C9434000C94340090
:100020000C9434000C9434000C9434000C94340080
:100030000C9434000C9434000C9434000C94340070
:100040000C9434000C9434000C9434000C94340060
:100050000C94340011241FBECFE5D8E0DEBFCDBF25
:100060000E945B000C949C000C9400008CE184BB0B
:1000700080E181BB86B1806886B986B1806486B92B
:1000800086B1876086B987B1806C87B987B187B937
:1000900087B1876087B978948FB580628FBD8EB540
:1000A00081618EBD8FEF90E097BD86BD81E090E0CD
:1000B00099BD88BD08950E943600349B06C086B164
:1000C000806186B986B1806486B984B195B1429762
:1000D00088F428B539B586B597B52817390768F774
:1000E00088B599B5019699BD88BD82E08A95F1F7EA
:1000F00000C0E3CF84B195B1429730F084B195B19F
:10010000479720F080E003C080E001C081E08823B1
:1001100029F088E18A95F1F700C0CFCF88B599B56D
:10012000892B59F288B599B5019799BD88BD82E0B0
:0C0130008A95F1F700C0C1CFF894FFCF12
:00000001FF
