S00F0000494C49393438382E737265635A
S11300000C9432000C9465100C945A000C945A0011
S11300100C945A000C945A000C945A000C945610E8
S11300200C945A000C945A000C945A000C945A00E4
S11300300C945A000C94B10C0C945A000C94EF0CD0
S11300400C945A000C945A000C945A000C945A00C4
S11300500C945A00900B960B9D0B9F0B8C0B930BDF
S1130060990BF40A11241FBECFE5D8E0DEBFCDBF43
S113007010E0A0E6B0E0ECE1FDE202C005900D92D4
S1130080A43EB107D9F723E0A4EEB0E001C01D926D
S1130090AB36B207E1F710E0C2E3D0E004C0219729
S11300A0FE010E944E13C133D107C9F70E945D0EB1
S11300B00C948C160C9400004F925F926F927F9276
S11300C08F929F92AF92BF92CF92DF92EF92FF9264
S11300D0CF93DF93CDB7DEB72A970FB6F894DEBF80
S11300E00FBECDBF9A8789874D835E836F837887E0
S11300F0DC0155968D909D90AD90BC90589724014D
S11301003501E89477F859968D919D910D90BC91A5
S1130110A02D89839A83AB83BC836C017D01E89411
S1130120F7F82DEC3CEC4CE45DE3C301B2010E9412
S1130130FA1087FF15C02DEC3CEC4CE45DE3C701DD
S1130140B6010E94FA1087FF0BC0E985FA85158A6B
S1130150168A178A108E118E128E138E148E7EC0FC
S11301602DEC3CEC4CE45DE3C301B2010E94591256
S113017018167CF42CEE31E548E75FE3C501B401C1
S11301800E945E12E985FA85658B768B878B908F4A
S113019008C0A985BA8555961D921D921D921C9280
S11301A058972DEC3CEC4CE45DE3C701B6010E948A
S11301B0591218168CF42CEE31E548E75FE3698197
S11301C07A818B819C810E945E12E985FA85618F18
S11301D0728F838F948F08C0A985BA8559961D9212
S11301E01D921D921C925C97E985FA8525893689B2
S11301F04789508D6D817E818F8198850E945E1222
S11302009B01AC01A985BA851D966D917D918D9157
S11302109C9150970E948E10E985FA8565877687B0
S11302208787908B218D328D438D548D6D817E8196
S11302308F8198850E945E129B01AC01A985BA85C5
S113024051966D917D918D919C9154970E948E1041
S1130250E985FA85618B728B838B948B2A960FB612
S1130260F894DEBF0FBECDBFDF91CF91FF90EF902A
S1130270DF90CF90BF90AF909F908F907F906F90C2
S11302805F904F9008952F923F924F925F926F929A
S11302907F928F929F92AF92BF92CF92DF92EF9212
S11302A0FF920F93CF93DF93EC01CD80DE80EF803C
S11302B0F884A70196016D857E858F8598890E94B3
S11302C0FA1081110DC029853A854B855C856989B1
S11302D07A898B899C890E94FA10882309F44FC07B
S11302E02090D1003090D20069817A818B819C81E9
S11302F00E9478112B013C0169857A858B859C8548
S11303000E9478114B015C01C701B6010E9478116B
S1130310DC01CB0100E09101A201B4010E94140AA6
S1130320AD8CBE8C69817A818B819C810E9478110D
S11303302B013C0169897A898B899C890E947811F7
S11303406B017C016D857E858F8598890E9478116B
S1130350DC01CB019501A201B6010E94140A8D852E
S11303609E85AF85B8898D839E83AF83B88789893D
S11303709A89AB89BC8989879A87AB87BC87DF91C7
S1130380CF910F91FF90EF90DF90CF90BF90AF90FF
S11303909F908F907F906F905F904F903F902F90A1
S11303A008954F925F926F927F92AF92BF92CF92D5
S11303B0DF92EF92FF920F93CF93DF93EC01AD8C1A
S11303C0BE8C69817A818B819C810E9478112B017A
S11303D03C0169897A898B899C890E9478116B0117
S11303E07C016D857E858F8598890E947811DC015A
S11303F0CB0100E09501A201B6010E94140ADF912D
S1130400CF910F91FF90EF90DF90CF90BF90AF907E
S11304107F906F905F904F9008954F925F926F928C
S11304207F928F929F92AF92BF92CF92DF92EF9280
S1130430FF92CF93DF93EC018D849E84AF84B888C0
S1130440C980DA80EB80FC80A7019601C501B40164
S11304500E94FA101816D4F08D889E88AF88B88C44
S113046020E030E0A901C501B4010E94FA1087FF21
S113047038C0B7FAB094B7F8B0948D8A9E8AAF8A20
S1130480B88ECD86DE86EF86F88A2BC0A70196014A
S113049060E070E080EF93E40E948D102B013C013A
S11304A09B01AC01C501B4010E94591287FD19C01A
S11304B08D889E88AF88B88C20E030E0A901C50102
S11304C0B4010E945912181664F4B7FAB094B7F83C
S11304D0B0948D8A9E8AAF8AB88E4D865E866F866A
S11304E0788A49885A886B887C88A3019201C7015D
S11304F0B6010E94591287FD1AC0898C9A8CAB8C64
S1130500BC8C20E030E0A901C501B4010E94FA10BE
S113051087FF38C0B7FAB094B7F8B094898E9A8E32
S1130520AB8EBC8EC98ADA8AEB8AFC8A2BC0A701FF
S1130530960160E070E080EA93E40E948D104B0124
S11305405C019B01AC01C301B2010E94591287FDF9
S113055019C0C98CDA8CEB8CFC8C20E030E0A9014A
S1130560C701B6010E945912181664F4F7FAF09400
S1130570F7F8F094C98EDA8EEB8EFC8E898A9A8A0B
S1130580AB8ABC8ADF91CF91FF90EF90DF90CF9040
S1130590BF90AF909F908F907F906F905F904F909F
S11305A008958F929F92AF92BF92CF92DF92EF9273
S11305B0FF920F931F93CF93DF93EC018A0180E0A6
S11305C090E00E94A7112D853E854F8558890E9491
S11305D08D106B017C01B80180E090E00E94A711AE
S11305E029893A894B895C890E948D104B015C01F1
S11305F0A7019601C701B6010E945E126B017C013E
S1130600A5019401C501B4010E945E129B01AC01D5
S1130610C701B6010E948E100E94D11211E02981F7
S11306203A814B815C810E94FA1018160CF410E098
S1130630812FDF91CF911F910F91FF90EF90DF9069
S1130640CF90BF90AF909F908F9008954F925F92FC
S11306506F927F928F929F92AF92BF92CF92DF92CE
S1130660EF92FF920F931F93CF93DF93CDB7DEB733
S11306706E970FB6F894DEBF0FBECDBF8C017E8F90
S11306806D8FDC011D968D919D910D90BC91A02DD7
S11306908D839E83AF83B8879C01AD01FB01658583
S11306A07685878590890E948D104B015C01D80165
S11306B051968D919D910D90BC91A02D89879A871B
S11306C0AB87BC879C01AD01ED8DFE8D618972897C
S11306D0838994890E948D106B017C01A50194018A
S11306E0C501B4010E945E122B013C01A7019601D1
S11306F0C701B6010E945E129B01AC01C301B201A5
S11307000E948E100E94D1122B013C0120E030E0A7
S1130710A9010E94FA10882309F441C1AD8DBE8D50
S113072011962D913D914D915C911497F801618141
S11307307281838194810E948E106D8B7E8B8F8B4E
S1130740988F9B01AC01C301B2010E94FA1087FF8C
S113075026C1A3019201C501B4010E94FF1069835F
S11307607A838B839C83A3019201C701B6010E9403
S1130770FF106B017C01D80155968D919D910D90D0
S1130780BC91A02D8D879E87AF87B88BD8015996D1
S11307908D919D910D90BC91A02D898B9A8BAB8BE3
S11307A0BC8B2D853E854F855889ED8DFE8D6589E1
S11307B076898789908D0E948D1029813A814B8199
S11307C05C810E945E124B015C0129893A894B8944
S11307D05C89AD8DBE8D59966D917D918D919C9165
S11307E05C970E948D10A70196010E945E129B01E6
S11307F0AC01C501B4010E948E104B015C0120E0E4
S113080030E0A9010E94591218160CF4C8C0A501C1
S11308109401C501B4010E948E1020E030E040E054
S11308205FE30E945E124B015C019B01AC01698194
S11308307A818B819C810E945E12698F7A8F8B8F63
S11308409C8F9B01AC016D857E858F8598890E9464
S11308508E10F801658B768B878B908FA5019401A0
S1130860C701B6010E945E124B015C019B01AC0101
S113087069897A898B899C890E948E10D80159963E
S11308806D937D938D939C935C97298D3A8D4B8DBD
S11308905C8DED8DFE8D658976898789908D0E94AA
S11308A08D10AD8DBE8D55966D937D938D939C93D8
S11308B05897A501940159966D917D918D919C91C4
S11308C05C970E948D10ED8DFE8D618F728F838FEA
S11308D0948FA30192016D897E898F89988D0E94DE
S11308E08D104B015C019B01AC0169817A818B8184
S11308F09C810E945E1220E030E040E05FE30E94B1
S11309005E122B013C019B01AC016D817E818F81C4
S113091098850E948D10D8011D966D937D938D93BB
S11309209C935097A5019401C701B6010E945E12E1
S113093020E030E040E05FE30E945E126B017C0146
S11309409B01AC0169857A858B859C850E948D10FD
S1130950F801618B728B838B948BA3019201AD8D13
S1130960BE8D1D966D917D918D919C9150970E94A5
S11309708E10ED8DFE8D658776878787908BA70116
S1130980960161897289838994890E948E10AD8D44
S1130990BE8D51966D937D938D939C9354976E96D3
S11309A00FB6F894DEBF0FBECDBFDF91CF911F917C
S11309B00F91FF90EF90DF90CF90BF90AF909F90FA
S11309C08F907F906F905F904F9008954F925F92B9
S11309D06F927F928F929F92AF92BF92EF92FF920B
S11309E00F93CF93DF93EC01E090D100F090D2000D
S11309F069817A818B819C810E9478112B013C0151
S1130A0069897A898B899C890E9478114B015C01E0
S1130A106D857E858F8598890E947811DC01CB01D4
S1130A2000E09701A201B4010E94140A80E090E062
S1130A30A8ECB2EC8D879E87AF87B88B898B9A8B95
S1130A40AB8BBC8B1D8A1E8A1F8A188E198E1A8E38
S1130A501B8E1C8E8D839E83AF83B88789879A876C
S1130A60AB87BC87DF91CF910F91FF90EF90BF9040
S1130A70AF909F908F907F906F905F904F9008956C
S1130A802F923F924F925F926F927F928F929F929A
S1130A90AF92BF92CF92DF92EF92FF920F931F9388
S1130AA0CF93DF93CDB7DEB7AE970FB6F894DEBF22
S1130AB00FBECDBF8C01DC011D968D919D910D90D3
S1130AC0BC91A02D8BA39CA3ADA3BEA320E030E0DA
S1130AD0A901BC01CD010E94FA1087FF0CC020E0DF
S1130AE030E0A901F80161897289838994890E949F
S1130AF0FA1087FDB2C0D80151968D919D910D9049
S1130B00BC91A02D8FA398A7A9A7BAA7D801119625
S1130B108D919D910D90BC91A02D8BA79CA7ADA705
S1130B20BEA7E8EDF1E0FAA3E9A3212C312C2BA117
S1130B303CA14DA15EA1A9A1BAA11D966D917D9183
S1130B408D919C9150970E948D102B013C012FA1F7
S1130B5038A549A55AA5E9A1FAA1618972898389B1
S1130B6094890E948D104B015C01A9A1BAA1119630
S1130B702D913D914D915C9114976BA57CA58DA50C
S1130B809EA50E948E1026E636E646E65FE30E94A6
S1130B905E126B017C01A3019201C301B2010E94A8
S1130BA05E122B013C01A5019401C501B4010E9410
S1130BB05E129B01AC01C301B2010E948E104B0175
S1130BC05C01A7019601C701B6010E945E129B0158
S1130BD0AC01C501B4010E94FA1087FF30C03F92F6
S1130BE02F92F80180811F928F9381E690E09F936A
S1130BF08F931F9280E28F93AE014F5F5F4F7A0114
S1130C005F934F930E948413C7010E94A50CC801EF
S1130C100E94E60420916000022E000C330BD801E0
S1130C208C9190E00FB6F894DEBF0FBECDBF2817AD
S1130C30390719F48FEF8093600081E00FC0FFEF54
S1130C402F1A3F0A49A15AA1415E5F4F5AA349A3F3
S1130C5056E02516310409F06ACF80E0AE960FB64F
S1130C60F894DEBF0FBECDBFDF91CF911F910F91DE
S1130C70FF90EF90DF90CF90BF90AF909F908F90B8
S1130C807F906F905F904F903F902F900895809148
S1130C90E5008F5F853018F48093E5000895109285
S1130CA0E5008091EB009091EC00A091ED00B091F3
S1130CB0EE000196A11DB11D8093EB009093EC0012
S1130CC0A093ED00B093EE0086E790E00E94A50C9F
S1130CD04AE050E06FE771E08091EB009091EC0006
S1130CE00E9454130E94A50C8EE790E00E94A50C6C
S1130CF08091EA004AE050E06FE771E090E00E94E2
S1130D0054130E94A50C81EE90E00E94A50C109251
S1130D10EA0008958F929F92AF92BF92CF92DF9292
S1130D20EF92FF920F931F93CF93DF938299B7C0F3
S1130D3066EE70E088EE90E00E943D0DC090E80001
S1130D40D090E9002FEDC21621E0D20648F4E090DD
S1130D50E600F090E7003FE3E31631E0F30680F0AD
S1130D6086E890E0DF91CF911F910F91FF90EF9073
S1130D70DF90CF90BF90AF909F908F900C94A50C74
S1130D80C0916000CF3F81F18FE1C802E0011124DE
S1130D90CE56DD4FB60180E090E00E94A7116D872A
S1130DA07E878F87988BB70180E090E00E94A7111F
S1130DB0698B7A8B8B8B9C8B8091E40090E025E08F
S1130DC0289FF001299FF00D1124E154FE4FD18298
S1130DD0C082F382E2822483019665E070E00E947F
S1130DE03A138093E40013C102E912E0C0E0D0E0BA
S1130DF04091E6005091E7006091E8007091E900AD
S1130E00C8010E94D102882309F441C08CE990E012
S1130E100E94A50C8FE18C9F80018D9F100D1124E1
S1130E200E561D4FD8018C914AE050E06FE771E0F7
S1130E3090E00E9454130E94A50C81EE90E00E9461
S1130E40A50C6091E8007091E90080E090E00E94B8
S1130E50A711F801658776878787908B6091E600F4
S1130E607091E70080E090E00E94A711D8015196AC
S1130E706D937D938D939C935497C093600089E107
S1130E80EFEBF1E0DF011D928A95E9F7C0C02196EE
S1130E90015E1F4FC730D10509F0AACFB8C09091A9
S1130EA060009F3F09F4B0C0EFEBF1E043ED51E087
S1130EB0C0E0D0E0E12CF12C60E084818823B1F023
S1130EC02185222399F020813181E20EF31E2581B0
S1130ED03681E21AF30A22813381C20FD31F27819C
S1130EE03085C21BD30B6F5F8150848335964E17B8
S1130EF05F0719F7662309F487C0C92E990FDD0827
S1130F0070E080E090E00E94A7114B015C011FE1BA
S1130F101C9DC0011D9D900D1124FC01EE56FD4F3A
S1130F206F01B701FF0C880B990B0E94A911A50151
S1130F3094010E94FF109B01AC010E948E10D60107
S1130F4055966D937D938D939C935897BE01DD0FB9
S1130F50880B990B0E94A911A50194010E94FF100E
S1130F609B01AC010E948E10F601618F728F838FFA
S1130F70948F8EEA90E00E94A50C809160004AE074
S1130F8050E06FE771E0082E000C990B0E94541397
S1130F900E94A50C84EB90E00E94A50C20916000B7
S1130FA02103F0011124EE56FD4F65897689878966
S1130FB0908D0E947111DC01CB014AE050E06FE793
S1130FC071E00E9454130E94A50C80EC90E00E94F2
S1130FD0A50C209160002103F0011124EE56FD4F71
S1130FE0618D728D838D948D0E947111DC01CB0112
S1130FF04AE050E06FE771E00E9454130E94A50C90
S113100081EE90E00E94A50C8FEF80936000DF9149
S1131010CF911F910F91FF90EF90DF90CF90BF90F1
S1131020AF909F908F900895BF92CF92DF92EF92EE
S1131030FF920F931F93CF93DF93C8EDD1E002E9A2
S113104012E0F894CE010E94D10178946F960C17A7
S11310501D07B9F7C2E9D2E00BE613E07E0140E0D8
S113106050E060EE70E4C7010E945C008FE1E80E7E
S1131070F11C0E151F0599F732E9E32E32E0F32E29
S1131080C7010E940D028FE1E80EF11C0E151F0529
S1131090B9F792E9C92E92E0D92EE12C2FE1B22EB4
S11310A0E394FE2C87E0F8120BC08FE1C80ED11C2C
S11310B087E0E812F5CF82E9E82E82E0F82E0AC034
S11310C0BF9CB00111246E567D4FC6010E942603B9
S11310D0F394E8CFF894C7010E94430178948FE118
S11310E0E80EF11C0E151F05A9F7CE010E9440055C
S11310F06F960C171D07C9F7DF91CF911F910F91C0
S1131100FF90EF90DF90CF90BF9008958AB38FEF58
S11311108ABB8BB31BBA84B3806F84BB85B38F70D7
S113112085BB0895AC988FE891E00197F1F700C072
S11311300000AC9A8FE09EE00197F1F700C0000038
S11311400895AE9AAF988BBBAE98AE9A0895AE9AB6
S1131150AF9A8BBBAE98AE9A08950F931F93CF931B
S1131160DF93182F062FEA010E949208AD9881E0C0
S11311700E94A1088FE39CE90197F1F700C00000E9
S113118081E10E94A1088FE39CE90197F1F700C077
S113119000008AE30E94A10885E50E94A7088FE366
S11311A09CE90197F1F700C0000086E30E94A108C2
S11311B0802F0E94A7088FE39CE90197F1F700C0F4
S11311C00000113011F489E201C088E20E94A108F4
S11311D08FE39CE90197F1F700C00000AD9AD0932A
S11311E0F000C093EF001092F6001092F5001092F8
S11311F0F4001092F30081E0DF91CF911F910F91E1
S113120008954091EF005091F0000C94AD08EF92D6
S1131210FF920F931F93CF93DF93F82EE92EAD988F
S11312208AE20E94A10880E00E94A70880E00E9450
S1131230A70881E00E94A7088FED0E94A7088BE20F
S11312400E94A10880E00E94A70880E00E94A708ED
S113125081E00E94A7088FE30E94A7088CE20E9405
S1131260A108C0EED1E000E411E08E2D0E94A70891
S11312708F2D0E94A70801501109B9F7219799F7FA
S1131280AD9ADF91CF911F910F91FF90EF90089548
S1131290EF92FF920F931F93CF93DF93182F092F91
S11312A0EB01F42EE52EAD988AE20E94A108802F6E
S11312B00E94A708812F0E94A708802F0E94A708D8
S11312C0812F0E94A7088BE20E94A1088D2F0E9403
S11312D0A7088C2F0E94A7088D2F0E94A7088C2F87
S11312E00E94A7088CE20E94A1088E2D0E94A708E4
S11312F08F2D0E94A708AD9ADF91CF911F910F9176
S1131300FF90EF9008952F923F924F925F926F92C9
S11313107F928F929F92AF92BF92CF92DF92EF9281
S1131320FF920F931F93CF93DF9300D000D000D090
S1131330CDB7DEB77C017E836D833A0129011801A4
S11313408A01081B190B17FF03C011950195110998
S113135062012D813E81C21AD30AD7FE03C0D19403
S1131360C194D108E614F70428F08FEF9FEF9A8315
S1131370898304C021E030E03A8329838D819E81F2
S11313808415950528F02FEF3FEF3C832B8304C091
S113139081E090E09C838B8348018C189D08AA24EB
S11313A0BB24AC18BD08A1016D817E81C7010E94D8
S11313B04809E614F70429F42D813E8124153505E6
S11313C0D1F0C401880F991FA816B90634F48C18FB
S11313D09D0829813A81E20EF31E801791071CF7BC
S11313E0800E911E8D819E812B813C81820F931FE3
S11313F09E838D83D8CF26960FB6F894DEBF0FBE9A
S1131400CDBFDF91CF911F910F91FF90EF90DF90AF
S1131410CF90BF90AF909F908F907F906F905F9090
S11314204F903F902F9008952F923F924F925F924A
S11314306F927F928F929F92AF92BF92CF92DF92E0
S1131440EF92FF920F931F93CF93DF93CDB7DEB745
S113145027970FB6F894DEBF0FBECDBF1C012B013A
S11314603F832E830D833A01C12CD12CE12CF12C26
S11314706E147F040CF49FC0C301820D931D9C83E2
S11314808B835701A40CB51C9D819923A1F10E8176
S11314901F8195014B815C81B501C10186199709B2
S11314A09A8389830E9483090E811F81B201660D8C
S11314B0771D9B015701A20CB31CA50141018E1895
S11314C09F08C4010E9483090E811F81B2016E1915
S11314D07F099B014B815C8189819A810E948309E8
S11314E00E811F81B201661977099B01A501C40110
S11314F00E94830946C04E815F81B5018B819C8126
S11315000E9448094E815F818201060D171DB801B2
S1131510C1018E0D9F1D9A8389830E9448094E81C3
S11315205F81B80141018E189F08C4010E944809D7
S11315304E815F81B5015101A618B708C5010E940B
S113154048094E815F8182010E191F09B801C50146
S11315500E9448094E815F815201A618B708B5015F
S1131560C4010E9448094E815F81B50189819A8135
S11315700E9448094E815F81B8018B819C810E9441
S113158048091C141D046CF09FEFE91AF90AC701FD
S1131590880F991F0196C80ED91E1C141D040CF047
S11315A067CF81E0681A7108C301880F991F0196FB
S11315B0C81AD90A5DCF27960FB6F894DEBF0FBEBE
S11315C0CDBFDF91CF911F910F91FF90EF90DF90EE
S11315D0CF90BF90AF909F908F907F906F905F90CF
S11315E04F903F902F9008958FEF9FEF9093F200CC
S11315F08093F1001092F0001092EF000895813072
S113160011F4379A0895379808958A98929A8823FE
S113161029F0813031F48BB7806402C08BB78F7BA3
S11316208BBF0895CF93C62F8A98929A0E94050B78
S1131630C13049F028F0C23061F485B783600EC030
S113164085B78C7F0BC085B78E7F85BF85B78260D9
S113165005C085B7816085BF85B78D7F85BFCF9174
S11316600895882359F0813089F484B78F7784BF33
S113167084B78F7784BF84B7809504C080E884BF23
S113168084BF84B7881F8827881F089580E0089541
S1131690EF920F93E22F613049F497B3906B97BBAD
S11316A0BE98C49A813051F490E409C0BE9A97B3AD
S11316B09F7497BB813029F490E404C090E020E14A
S11316C002C090E020E0013011F080E001C080E22F
S11316D0342F3270330F330F330FA42FA170B0E0C7
S11316E0AA0FBB1FAA0FBB1FA32B2A2B922B892B3C
S11316F091E0E91611F090E001C090E8892B8DB9D2
S1131700613009F58E2F90E087309105E0F4FC01FB
S1131710E65DFF4F0C944E138DB18C7F8DB90BC0D9
S11317208DB18C7F0EC06998689A05C06998689AD3
S113173009C0699A6898709A06C0699A03C08DB105
S113174083608DB970980F91EF9008958FB9779B4E
S1131750FECF08958FEF8FB9779BFECF8FB1089599
S11317609FB59C7F9FBD9EB5977E9EBD823029F01C
S1131770833039F0813059F407C08FB581608FBD53
S113178008958FB583608FBD8EB588608EBD089532
S1131790611103C09BBD8ABD089599BD88BD08959C
S11317A0813029F120F0823009F441C0089583B7D3
S11317B0887F83BF633091F028F4613041F0623058
S11317C049F00895643069F0653071F0089583B785
S11317D0816002C083B7826083BF089583B783604A
S11317E0FBCF83B78460F8CF83B78560F5CF8EB520
S11317F0887F8EBD633089F028F4613041F0623017
S113180049F00895643061F0653069F008958EB54B
S113181081600BC08EB5826008C08EB5836005C040
S11318208EB5846002C08EB585608EBD089585B581
S1131830887F85BD633089F028F4613041F06230DF
S113184049F00895643061F0653069F0089585B514
S113185081600BC085B5826008C085B5836005C012
S113186085B5846002C085B5856085BD0895811104
S113187006C01EBC1FBC89B7837E89BF089581E062
S11318808EBD0C94D00B813071F018F08230F9F0D9
S1131890089560FF03C089B7816089BF61FF21C0DB
S11318A089B782601DC060FF03C089B7846089BFA7
S11318B061FF03C089B7806189BF62FF03C089B734
S11318C0886089BF63FF0DC089B7806209C060FF6B
S11318D003C089B7806489BF61FF03C089B780688A
S11318E089BF08958AB1877E8AB908950F9310BC81
S11318F097E699B9962F990F906838E0439FA00115
S11319001124492B90E1299F90011124242B20BDFF
S113191098E19AB9673009F4529A023031F00330F1
S113192031F0013039F4579A05C0569A03C09AB180
S1131930906C9AB9811103C00F910C94720C0F91A1
S113194008955D9BFECF8CB90895CF93DF93EC018E
S11319508991882319F00E94A10CFACFDF91CF91CD
S113196008951F920F920FB60F9211242F933F9355
S11319704F935F936F937F938F939F93AF93BF9393
S1131980EF93FF938CB1E091F700F091F80030975A
S113199011F0099513C02091FC0030E02F5F3F4FF8
S11319A02F7333279091FB00921741F0E091FC00D4
S11319B0F0E0E35CFE4F80832093FC00FF91EF9105
S11319C0BF91AF919F918F917F916F915F914F9153
S11319D03F912F910F900FBE0F901F9018951F925B
S11319E00F920FB60F9211248F939F93EF93FF934F
S11319F09091FA008091F900981779F0E091F9003C
S1131A00F0E0E350FF4F80818CB98091F90090E0C1
S1131A1001968F7399278093F900FF91EF919F911D
S1131A208F910F900FBE0F901F9018958B9A939AD9
S1131A3083EC99E00197F1F700C000000895CF937B
S1131A409398E9EFF0E03197F1F700C000000E94AD
S1131A50A60B0E94AA0BC82F0E94AA0B939A2C2FA4
S1131A6030E0322F2227A901482BCA0123E09595A3
S1131A7087952A95E1F7CF9108952F923F924F923F
S1131A805F926F927F928F929F92AF92BF92CF920A
S1131A90DF92EF92FF920F931F93CF93DF93CDB713
S1131AA0DEB7C254D1090FB6F894DEBF0FBECDBF66
S1131AB03C012B018E010F5D1F4F9E012F5F3F4F95
S1131AC07901C801809623969FAF8EAF23971901A1
S1131AD068015901812C50E1952E80E90E941F0D67
S1131AE0D401A81BB90BF601A193B1936F0180ED4A
S1131AF00E941F0D9401281B390BD1012D933D9396
S1131B001D01E9EFF0E03197F1F700C000002396E2
S1131B102EAD3FAD23972C153D05F9F680E08F5F80
S1131B20982FD8012D913C91E92FF0E0BF01660F69
S1131B30771FD501A60FB71F90964D915C91919791
S1131B404217530738F4F8015183408391963C932C
S1131B502E939097D7012D913C911197FB01EA0D9B
S1131B60FB1D408151814217530720F44D935C9330
S1131B70318320839F5F9031A1F632E0E30EF11CA4
S1131B800E5F1F4F8F3059F6FE01B996DE0119968C
S1131B90CE01C996C12CD12C760140E050E0BA01A7
S1131BA021913191420F531F611D711D2D913D9162
S1131BB0C20ED31EE11CF11C8E179F0789F793E018
S1131BC076956795579547959A95D1F7BA0180E030
S1131BD090E00E94A71120E030E040EF53E40E941F
S1131BE05E1220E030E040E859E30E945E122FE7E5
S1131BF03AE64CE85FE30E945E122DEC3CEC4CE9C3
S1131C0051E40E948D100E947811F3017183608366
S1131C10603EF1E07F0710F06FED71E0D3016D934A
S1131C207C9383E0F694E794D794C7948A95D1F78C
S1131C30B60180E090E00E94A71120E030E040EA85
S1131C4053E40E945E1220E030E040E859E30E9431
S1131C505E1229E23CE54FE85FE30E945E1221EE4A
S1131C603AE74CEA51E40E948D100E947811F20187
S1131C70718360836034F1E07F0710F06FE371E0FB
S1131C80D2016D937C93CE5BDF4F0FB6F894DEBF29
S1131C900FBECDBFDF91CF911F910F91FF90EF90B9
S1131CA0DF90CF90BF90AF909F908F907F906F9078
S1131CB05F904F903F902F900895F8948FE39CE9A4
S1131CC00197F1F700C0000080E00E94310B80E032
S1131CD00E94FF0A01E020E040E063E081E00E940E
S1131CE0760CE12C00E025E040E061E081E00E9418
S1131CF0480B60E081E00E94120B65E081E00E94E5
S1131D00370C81E00E94B00B60E085E39CE00E9408
S1131D10C80B62E081E00E94430C0E94860868EAD6
S1131D2081E00E940109C091D100D091D200CE017E
S1131D300E940709CE010E9407090E94160D83ED37
S1131D4090E00E94A50C7894C2E9D2E0FE0180E004
S1131D5040E050E060E771E4808341835283638311
S1131D607483158616861786108A118A128A138A36
S1131D70148A15821682178210861186128613869B
S1131D801486158A168A178A108E118E128E138E57
S1131D90148E8F5F7F968730F9F640E050E060E262
S1131DA073E44093A3025093A4026093A50270933A
S1131DB0A6022091CF003091D0003093B00220933E
S1131DC0AF024093C2025093C3026093C402709363
S1131DD0C5028091C3009091C4009093CF02809378
S1131DE0CE028091C5009091C6009093EE0280933C
S1131DF0ED028091C7009091C80090930D038093E9
S1131E000C0380E090E0ACEDB3E480931B0390936B
S1131E101C03A0931D03B0931E03E091C900F0912D
S1131E20CA00F0932C03E0932B0380933A0390931E
S1131E303B03A0933C03B0933D0340933E03509374
S1131E403F0360934003709341034091CD00509150
S1131E50CE0050934B0340934A03809359039093CD
S1131E605A03A0935B03B0935C038091CB009091E1
S1131E70CC0090936A038093690380E090E0A8EC1F
S1131E80B2E480939F029093A002A093A102B09326
S1131E90A20280E090E0AEEBB3E48093BE029093A4
S1131EA0BF02A093C002B093C10280E090E0ADEC09
S1131EB0B3E48093DD029093DE02A093DF02B0933B
S1131EC0E00240E050E061E173E44093E1025093AA
S1131ED0E2026093E3027093E4028093FC02909325
S1131EE0FD02A093FE02B093FF0280E090E0AFE217
S1131EF0B3E48093000390930103A0930203B0938F
S1131F00030380E090E0A2E0B3E480931F03909386
S1131F102003A0932103B093220380E090E0AEE37A
S1131F20B3E480935D0390935E03A0935F03B09347
S1131F30600308ED11E0F801A2E9B2E080E040E0BE
S1131F4050E060E871E48C9341835283638374832B
S1131F50368F258F158A168A178A108E118E128E47
S1131F60138E148E8F5F5F967F96863061F7109282
S1131F70E5011092E6011092E7011092E801109237
S1131F80E9011092EA011092EB011092EC01C12CCC
S1131F90D12C80E7E82E83E4F82EC0920402D0927C
S1131FA00502E0920602F0920702109208021092D3
S1131FB0090210920A0210920B0240E050E060EF16
S1131FC073E4409323025093240260932502709398
S1131FD026021092270210922802109229021092CF
S1131FE02A0210924202109243021092440210926A
S1131FF0450280E090E0A0EAB3E480934602909327
S11320004702A0934802B0934902C0926102D09261
S11320106202E0926302F0926402809365029093FC
S11320206602A0936702B0936802409380025093C3
S1132030810260938202709383028093840290935E
S11320408502A0938602B093870292E9E92E92E07A
S1132050F92EC8010E94D101015E1F4FE016F1065E
S1132060C1F70BE613E0CE010E94D1016F960C1765
S11320701D07C9F780917E01882321F010927E010B
S11320800E94470680917D01882341F010927D01D2
S11320900E948A0660E081E00E94120B0E941408EC
S11320A08091EA008F5F8093EA00E4CF1F920F9241
S11320B00FB60F9211248F9381E080937E018F914C
S11320C00F900FBE0F901F9018951F920F920FB68E
S11320D00F9211242F933F934F935F936F937F93AA
S11320E08F939F93AF93BF93EF93FF9381E080937C
S11320F07D0180E00E94050BFF91EF91BF91AF91AC
S11321009F918F917F916F915F914F913F912F910B
S11321100F900FBE0F901F9018955058BB27AA27F9
S11321200E94A5100C941F120E94111238F00E94F4
S1132130181220F039F49F3F19F426F40C940E126F
S11321400EF4E095E7FB0C940812E92F0E9430127C
S113215058F3BA17620773078407950720F079F4D8
S1132160A6F50C9452120EF4E0950B2EBA2FA02D66
S11321700B01B90190010C01CA01A0011124FF2730
S1132180591B99F0593F50F4503E68F11A16F0402B
S1132190A22F232F342F4427585FF3CF469537952A
S11321A02795A795F0405395C9F77EF41F16BA0BEF
S11321B0620B730B840BBAF09150A1F0FF0FBB1F9D
S11321C0661F771F881FC2F70EC0BA0F621F731FE6
S11321D0841F48F4879577956795B795F7959E3F43
S11321E008F0B0CF9395880F08F09927EE0F9795D4
S11321F0879508950E94E41108F481E008950E94EF
S113220013110C941F120E94181258F00E941112FC
S113221040F029F45F3F29F00C94081251110C94FA
S113222053120C940E120E94301268F39923B1F3E6
S1132230552391F3951B550BBB27AA2762177307E8
S1132240840738F09F5F5F4F220F331F441FAA1F7C
S1132250A9F335D00E2E3AF0E0E832D09150504038
S1132260E695001CCAF72BD0FE2F29D0660F771FE6
S1132270881FBB1F261737074807AB07B0E809F0CC
S1132280BB0B802DBF01FF2793585F4F3AF09E3F51
S1132290510578F00C9408120C9453125F3FE4F348
S11322A0983ED4F3869577956795B795F7959F5F94
S11322B0C9F7880F911D9695879597F90895E1E0E0
S11322C0660F771F881FBB1F621773078407BA073F
S11322D020F0621B730B840BBA0BEE1F88F7E0959A
S11322E008950E9478116894B1110C9453120895C2
S11322F00E94381288F09F5798F0B92F9927B75148
S1132300B0F0E1F0660F771F881F991F1AF0BA9595
S1132310C9F714C0B13091F00E945212B1E008958F
S11323200C945212672F782F8827B85F39F0B93F81
S1132330CCF3869577956795B395D9F73EF4909548
S11323408095709561957F4F8F4F9F4F0895E894C6
S113235009C097FB3EF490958095709561957F4FE9
S11323608F4F9F4F9923A9F0F92F96E9BB27939597
S1132370F695879577956795B795F111F8CFFAF4A7
S1132380BB0F11F460FF1BC06F5F7F4F8F4F9F4FD8
S113239016C0882311F096E911C0772321F09EE836
S11323A0872F762F05C0662371F096E8862F70E09C
S11323B060E02AF09A95660F771F881FDAF7880F76
S11323C09695879597F90895990F0008550FAA0BCC
S11323D0E0E8FEEF16161706E807F907C0F0121634
S11323E01306E407F50798F0621B730B840B950B37
S11323F039F40A2661F0232B242B252B21F408958C
S11324000A2609F4A140A6958FEF811D811D089528
S113241097F99F6780E870E060E008959FEF80EC93
S1132420089500240A941616170618060906089536
S113243000240A9412161306140605060895092E9C
S11324400394000C11F4882352F0BB0F40F4BF2B0B
S113245011F460FF04C06F5F7F4F8F4F9F4F08954B
S113246057FD9058440F551F59F05F3F71F0479541
S1132470880F97FB991F61F09F3F79F08795089526
S1132480121613061406551FF2CF4695F1DF08C045
S1132490161617061806991FF1CF86957105610562
S11324A008940895E894BB2766277727CB0197F90A
S11324B008950E94E41108F48FEF08950E947112A8
S11324C00C941F120E94111238F00E94181220F06E
S11324D0952311F00C9408120C940E1211240C94F0
S11324E053120E94301270F3959FC1F3950F50E080
S11324F0551F629FF001729FBB27F00DB11D639FB2
S1132500AA27F00DB11DAA1F649F6627B00DA11D57
S1132510661F829F2227B00DA11D621F739FB00DFD
S1132520A11D621F839FA00D611D221F749F33276D
S1132530A00D611D231F849F600D211D822F762F06
S11325406A2F11249F5750409AF0F1F088234AF0E3
S1132550EE0FFF1FBB1F661F771F881F915050404F
S1132560A9F79E3F510580F00C9408120C94531265
S11325705F3FE4F3983ED4F3869577956795B795D6
S1132580F795E7959F5FC1F7FE2B880F911D9695F0
S1132590879597F9089519F416F40C940E120C9477
S11325A011130E943812B8F39923C9F3B6F39F5755
S11325B0550B87FF0E941F130024A0E640EA9001F8
S11325C080585695979528F4805C660F771F881F6E
S11325D020F026173707480730F4621B730B840B6F
S11325E0202931294A2BA6951794079420253125B3
S11325F04A2758F7660F771F881F20F026173707DA
S1132600480730F4620B730B840B200D311D411D00
S1132610A09581F7B901842F9158880F96958795D5
S113262008959F3F31F0915020F4879577956795F1
S1132630B795880F911D9695879597F908959150B0
S11326405040660F771F881FD2F70895AA1BBB1B43
S113265051E107C0AA1FBB1FA617B70710F0A61B9E
S1132660B70B881F991F5A95A9F780959095BC01BF
S1132670CD01089597FB072E16F4009407D077FD3B
S113268009D00E94261307FC05D03EF4909581954D
S11326909F4F0895709561957F4F0895EE0FFF1F2A
S11326A00590F491E02D09944532510520F442300F
S11326B010F00C945F13FB011082CB010895BB272B
S11326C04A3031F4992322F4BDE2909581959F4FCD
S11326D00C946B13BB27FB015527AA27880F991F5E
S11326E0AA1FA41710F0A41B83955051B9F7A05D3D
S11326F0AA3308F0A95DA193009779F7B111B193BA
S11327001192CB010C94AB15AEE0B0E0EAE8F3E132
S11327100C9463160D891E898F89988D26E02C836D
S11327201A83098397FF02C080E090E801979E8393
S11327308D83AE01455E5F4F698D7A8DCE01019622
S11327400E94B4134D815E8157FD0AC02F813885E4
S1132750421753070CF49A01F801E20FF31F108299
S11327602E96E4E00C947F16ABE0B0E0EAEBF3E1E4
S11327700C9455166C017B018A01FC0117821682A8
S1132780838181FFCCC1CE0101963C01F601938186
S1132790F70193FD859193FF81917F01882309F4CB
S11327A0BAC1853239F493FD859193FF81917F01FC
S11327B0853229F4B60190E00E94BB15E7CF912C35
S11327C0212C312CFFE1F315D8F08B3279F038F459
S11327D0803279F08332A1F4232D20611DC08D3223
S11327E061F0803369F4232D216016C0832D82604B
S11327F0382EE32DE4603E2E2AC0F32DF8601DC070
S113280037FC2DC020ED280F2A3040F08E32B9F469
S113281036FC81C1232D2064322E19C036FE06C039
S11328208AE0989E200D1124922E11C0EAE02E9E7B
S1132830200D1124222EF32DF0623F2E08C08C3679
S113284021F4832D8068382E02C0883641F4F701C4
S113285093FD859193FF81917F018111B3CF982FCF
S11328609F7D9554933028F40C5F1F4F9FE3998309
S11328700DC0833631F0833771F0833509F059C0C8
S113288021C0F801808189830E5F1F4F88248394BF
S1132890912C530113C02801F2E04F0E511CF80192
S11328A0A080B18036FE03C0692D70E002C06FEFD6
S11328B07FEFC5010E94A0154C018201F32DFF7723
S11328C03F2E16C0280122E0420E511CF801A080C0
S11328D0B18036FE03C0692D70E002C06FEF7FEF58
S11328E0C5010E9495154C01F32DF0683F2E82011D
S11328F033FC1BC0822D90E088169906B0F4B60113
S113290080E290E00E94BB152A94F4CFF50137FCD5
S1132910859137FE81915F01B60190E00E94BB155D
S113292021102A9421E0821A91088114910471F7EC
S1132930E8C0843611F0893641F5F80137FE07C046
S113294060817181828193810C5F1F4F08C0608117
S11329507181072E000C880B990B0E5F1F4FF32D0E
S1132960FF763F2E97FF09C09095809570956195ED
S11329707F4F8F4F9F4FF0683F2E2AE030E0A30136
S11329800E94F715882E861845C0853731F4232D0B
S11329902F7EB22E2AE030E025C0932D997FB92EE8
S11329A08F36C1F018F4883579F0B5C0803719F046
S11329B0883721F0B0C0E92FE061BE2EB4FE0DC00F
S11329C0FB2DF460BF2E09C034FE0AC0292F2660F7
S11329D0B22E06C028E030E005C020E130E002C09D
S11329E020E132E0F801B7FE07C060817181828185
S11329F093810C5F1F4F06C06081718180E090E07D
S1132A000E5F1F4FA3010E94F715882E8618FB2D19
S1132A10FF773F2E36FE0DC0232D2E7FA22E891464
S1132A2058F434FE0BC032FC09C0832D8E7EA82ED0
S1132A3005C0B82CA32C03C0B82C01C0B92CA4FE2B
S1132A400FC0FE01E80DF11D8081803321F49A2D21
S1132A50997EA92E09C0A2FE06C0B394B39404C003
S1132A608A2D867809F0B394A3FC11C0A0FE06C099
S1132A70B21488F4280C922C9B180EC0B21460F483
S1132A80B60180E290E00E94BB15B394F7CFB21474
S1132A9018F42B1802C0982C212CA4FE10C0B601E7
S1132AA080E390E00E94BB15A2FE17C0A1FC03C006
S1132AB088E790E002C088E590E0B6010CC08A2D5A
S1132AC0867859F0A1FE02C08BE201C080E2A7FC27
S1132AD08DE2B60190E00E94BB15891438F4B6016A
S1132AE080E390E00E94BB159A94F7CF8A94F30197
S1132AF0E80DF11D8081B60190E00E94BB158110A4
S1132B00F5CF222009F442CEB60180E290E00E9483
S1132B10BB152A94F6CFF6018681978102C08FEF08
S1132B209FEF2B96E2E10C947116FC010590615025
S1132B3070400110D8F7809590958E0F9F1F0895CF
S1132B40FC016150704001900110D8F78095909578
S1132B508E0F9F1F0895DC01FC01672F719177236D
S1132B60E1F7329704C07C916D9370836291AE1744
S1132B70BF07C8F308950F931F93CF93DF93FB010F
S1132B80238121FD03C08FEF9FEF2CC022FF16C0CD
S1132B9046815781248135814217530744F4A0812B
S1132BA0B1819D012F5F3F4F318320838C93268118
S1132BB037812F5F3F4F3783268314C08B01EC018D
S1132BC0FB010084F185E02D0995892BE1F6D801FC
S1132BD016968D919C911797019617969C938E93B8
S1132BE01697CE01DF91CF911F910F910895FA01AD
S1132BF0AA27283051F1203181F1E8946F936E7F38
S1132C006E5F7F4F8F4F9F4FAF4FB1E03ED0B4E028
S1132C103CD0670F781F891F9A1FA11D680F791F69
S1132C208A1F911DA11D6A0F711D811D911DA11D7A
S1132C3020D009F468943F912AE0269F112430198A
S1132C40305D3193DEF6CF010895462F4770405D25
S1132C504193B3E00FD0C9F7F6CF462F4F70405DD4
S1132C604A3318F0495D31FD4052419302D0A9F72F
S1132C70EACFB4E0A6959795879577956795BA9529
S1132C80C9F700976105710508959B01AC010A2EEF
S1132C9006945795479537952795BA95C9F7620FC6
S1132CA0731F841F951FA01D08952F923F924F926A
S1132CB05F926F927F928F929F92AF92BF92CF92C8
S1132CC0DF92EF92FF920F931F93CF93DF93CDB7D1
S1132CD0DEB7CA1BDB0B0FB6F894DEBF0FBECDBF49
S1132CE009942A88398848885F846E847D848C841A
S1132CF09B84AA84B984C884DF80EE80FD800C8123
S1132D001B81AA81B981CE0FD11D0FB6F894DEBF05
S10F2D100FBECDBFED010895F894FFCF75
S1132D1CFF42616C6C20256420696E20686F6C65C1
S1132D2C2025640A0D0054696D65723A200020094F
S1132D3C4650533A20004F7574206F6620736372AB
S1132D4C65656E2072616E67650A0D00546F75635C
S1132D5C6865642062616C6C2049443A20004261CD
S1132D6C6C6C20002076656C6F636974793A200072
S1132D7C2C200000F8E0071F00E0FFFF071FF8FFFE
S1132D8CFF00000A0D53637265656E206973204F52
S1072D9C4E0A0D00CA
S9030000FC
