:100000000C942A000C9446000C9455000C94640047
:100010000C9434000C9434000C9434000C94340090
:100020000C9434000C9434000C9434000C94340080
:100030000C9434000C9434000C9434000C94340070
:100040000C9434000C9434000C9434000C94340060
:100050000C94340011241FBECFE5D8E0DEBFCDBF25
:100060000E9443000C9473000C94000078948BB7AA
:10007000806E8BBF85B78A6085BF84B784BF8FEFE2
:100080008ABB1BBA08950E943600FFCF1F920F92C1
:100090000FB60F9211248F938BB38F5F8BBB8F9111
:1000A0000F900FBE0F901F9018951F920F920FB6D2
:1000B0000F9211248F938BB381508BBB8F910F9034
:1000C0000FBE0F901F9018951F920F920FB60F92B0
:1000D00011248F938BB380958BBB8F910F900FBEA4
:0A00E0000F901F901895F894FFCFC1
:00000001FF
