S01B00004932435F535344313330365F446973706C61792E7372656303
S11300000C942A000C943F000C943F000C943F0085
S11300100C943F000C943F000C943F000C943F0060
S11300200C943F000C943F000C943F000C943F0050
S11300300C943F000C943F000C943F000C943F0040
S11300400C943F000C943F000C943F000C943F0030
S11300500C943F0011241FBECFE5D8E0DEBFCDBF16
S113006010E0A0E6B0E0E2ECFBE002C005900D92E7
S1130070A436B107D9F70E940E010C94DF050C9445
S1130080000089E080B981B181B9089584EA86BF0E
S113009006B607FEFDCF089583B984E886BF06B689
S11300A007FEFDCF089584E986BF0895CF93DF93BB
S11300B0EC0186E69EE00197F1F700000E94410002
S11300C00E94460088810E944C0080E80E944C00F7
S11300D08EEA0E944C0080E80E944C0085ED0E944C
S11300E04C0080E80E944C0080E80E944C0088EAA2
S11300F00E944C008FE30E944C0080E80E944C0058
S113010080EC0E944C0080E80E944C0083ED0E9429
S11301104C0080E00E944C0080E80E944C0080E487
S11301200E944C0080E80E944C008AED0E944C0022
S113013082E00E944C0080E80E944C008DE80E94FE
S11301404C0084E10E944C0080E80E944C0080E254
S11301500E944C0080E00E944C0080E80E944C0009
S113016081E20E944C0080E00E944C008FE70E94D4
S11301704C0080E80E944C0082E20E944C0080E027
S11301800E944C0087E00E944C0080E80E944C00D2
S113019080EA0E944C0080E80E944C0081E80E94A2
S11301A04C008FEF0E944C0080E80E944C0089EDC7
S11301B00E944C0081EF0E944C0080E80E944C0099
S11301C08BED0E944C0080E40E944C0080E80E9469
S11301D04C0084EA0E944C0080E80E944C0086EAAD
S11301E00E944C0080E80E944C008FEA0E944C0060
S11301F00E94530086E69EE00197F1F700000E94FA
S113020041000E94460088810E944C0080E40E94C4
S11302104C000E945300DF91CF910895CF93DF9358
S1130220CDB7DEB7C350D4400FB6F894DEBF0FBECF
S1130230CDBF88E789831A821B8280E090E0811514
S113024024E092074CF4E4E0F0E0EC0FFD1FE80F2B
S1130250F91F10820196F3CFCE0101960E94560039
S1130260E12CF12C1E141F040CF43EC10E946C05F9
S11302706FE170E00E94F8048C010E946C056FE746
S113028070E00E94F8046C01BB80B801012E000CE0
S1130290880B990B0E9448042B013C016B2D0B2CFD
S11302A0000C770B880B990B0E9448049B01AC014E
S11302B0C301B2010E94D4032B013C0120E030E0D1
S11302C040E051E40E9441048823D4F52B2DBB0C5B
S11302D0330BA901401B510BCA0199230CF4079657
S11302E0FC01F595E795F595E795F595E7958A81F0
S11302F0F695FE2FEE27F795E795EC0DFD1DE80F1B
S1130300F11D87FDFA95021B130B0770107811235A
S113031034F401501109086F1F6F0F5F1F4F81E004
S113032090E002C0880F991F0A95E2F744E050E07C
S11303304C0F5D1FE40FF51F9081892B8083D0C083
S113034020E030E040E851E4C301B2010E944104DE
S11303508823DCF52B2DBB0C330BA901401B510B5F
S1130360CA0199230CF40796FC01F595E795F595D8
S1130370E795F595E7958A81F695FE2FEE27F79593
S1130380E795EC0DFD1DE80FF11D87FDFA95F3953A
S1130390021B130B07701078112334F40150110958
S11303A0086F1F6F0F5F1F4F81E090E002C0880F3E
S11303B0991F0A95E2F724E030E02C0F3D1FE20F6D
S11303C0F31F9081892B80838BC020E030E040ECC8
S11303D051E4C301B2010E9441048823E4F52B2DAA
S11303E0BB0C330BA901401B510BCA0199230CF41C
S11303F00796FC01F595E795F595E795F595E7954D
S11304008A81F695FE2FEE27F795E795EC0DFD1DF5
S1130410E80FF11D87FDFA95FE5FC801821B930B5F
S113042087709078992324F40197886F9F6F0196C1
S113043021E030E0A90102C0440F551F8A95E2F77C
S1130440CA0124E030E02C0F3D1FE20FF31F90811E
S1130450892B808345C020E030E040E052E4C301B2
S1130460B2010E9441048823DCF52B2DBB0C330B15
S1130470A901401B510BCA0199230CF40796FC01F6
S1130480F595E795F595E795F595E7958A81F695C0
S1130490FE2FEE27F795E795EC0DFD1DE80FF11DF6
S11304A087FDFA95FD5FC801821B930B87709078D6
S11304B0992324F40197886F9F6F019621E030E01F
S11304C0A90102C0440F551F8A95E2F7CA0124E02E
S11304D030E02C0F3D1FE20FF31F9081892B8083A6
S11304E03FEFE31AF30ABECEE12CF12C44E6E41606
S11304F0F1040CF03AC10E946C056FE170E00E94B7
S1130500F8048C010E946C056FE770E00E94F80407
S11305106C01BB80B801012E000C880B990B0E9462
S113052048042B013C016B2D0B2C000C770B880B22
S1130530990B0E9448049B01AC01C301B2010E94C3
S1130540D4032B013C0120E030E040E051E40E9460
S113055041048823DCF52B2DBB0C330BA901401B74
S1130560510BCA0199230CF40796FC01F595E79504
S1130570F595E795F595E7958A81F695FE2FEE2793
S1130580F795E795EC0DFD1DE80FF11D87FDFA9534
S1130590021B130B07701078112334F40150110956
S11305A0086F1F6F0F5F1F4F81E090E002C0880F3C
S11305B0991F0A95E2F724E030E02C0F3D1FE20F6B
S11305C0F31F8095908189238083CBC020E030E0A5
S11305D040E851E4C301B2010E9441048823D4F5E8
S11305E02B2DBB0C330BC901801B910BFC010AF4AE
S11305F03796F595E795F595E795F595E7958A810D
S1130600F695FE2FEE27F795E795EC0DFD1DE80F07
S1130610F11D87FDFA95F395021B130B07701078F3
S1130620112334F401501109086F1F6F0F5F1F4F1E
S113063081E090E002C0880F991F0A95E2F744E038
S113064050E04C0F5D1FE40FF51F809590818923C6
S1130650808387C020E030E040EC51E4C301B20164
S11306600E9441048823D4F52B2DBB0C330BC90104
S1130670801B910BFC010AF43796F595E795F595E7
S1130680E795F595E7958A81F695FE2FEE27F79580
S1130690E795EC0DFD1DE80FF11D87FDFA95FE5F52
S11306A0021B130B07701078112334F40150110945
S11306B0086F1F6F0F5F1F4F81E090E002C0880F2B
S11306C0991F0A95E2F724E030E02C0F3D1FE20F5A
S11306D0F31F809590818923808343C020E030E01C
S11306E040E052E4C301B2010E9441048823CCF5E6
S11306F02B2DBB0C330BC901801B910BFC010AF49D
S11307003796F595E795F595E795F595E7958A81FB
S1130710F695FE2FEE27F795E795EC0DFD1DE80FF6
S1130720F11D87FDFA95FD5F021B130B077010780E
S1130730112334F401501109086F1F6F0F5F1F4F0D
S113074081E090E002C0880F991F0A95E2F744E027
S113075050E04C0F5D1FE40FF51F809590818923B5
S113076080835FEFE51AF50AC1CE0E9441000E9422
S1130770460088E70E944C0080E40E944C0000E0A0
S113078010E0011584E0180764F4E4E0F0E0EC0FF5
S1130790FD1FE00FF11F80810E944C000F5F1F4F6F
S11307A0F0CF0E9453005CCD5058BB27AA270E946B
S11307B0EC030C94BE040E94B00438F00E94B70409
S11307C020F039F49F3F19F426F40C94AD040EF490
S11307D0E095E7FB0C94A704E92F0E94CF0458F39B
S11307E0BA17620773078407950720F079F4A6F512
S11307F00C94F1040EF4E0950B2EBA2FA02D0B01EE
S1130800B90190010C01CA01A0011124FF27591B51
S113081099F0593F50F4503E68F11A16F040A22F57
S1130820232F342F4427585FF3CF469537952795C8
S1130830A795F0405395C9F77EF41F16BA0B620BC7
S1130840730B840BBAF09150A1F0FF0FBB1F661F0E
S1130850771F881FC2F70EC0BA0F621F731F841F51
S113086048F4879577956795B795F7959E3F08F077
S1130870B0CF9395880F08F09927EE0F9795879539
S113088008950E94830408F481E00895E89409C05F
S113089097FB3EF490958095709561957F4F8F4FAF
S11308A09F4F9923A9F0F92F96E9BB279395F695C5
S11308B0879577956795B795F111F8CFFAF4BB0F43
S11308C011F460FF1BC06F5F7F4F8F4F9F4F16C0A7
S11308D0882311F096E911C0772321F09EE8872F31
S11308E0762F05C0662371F096E8862F70E060E0ED
S11308F02AF09A95660F771F881FDAF7880F969566
S1130900879597F90895990F0008550FAA0BE0E809
S1130910FEEF16161706E807F907C0F012161306BD
S1130920E407F50798F0621B730B840B950B39F4FD
S11309300A2661F0232B242B252B21F408950A2663
S113094009F4A140A6958FEF811D811D089597F9A3
S11309509F6780E870E060E008959FEF80EC089561
S113096000240A941616170618060906089500248A
S11309700A9412161306140605060895092E039404
S1130980000C11F4882352F0BB0F40F4BF2B11F478
S113099060FF04C06F5F7F4F8F4F9F4F089557FDD7
S11309A09058440F551F59F05F3F71F04795880FD9
S11309B097FB991F61F09F3F79F087950895121670
S11309C013061406551FF2CF4695F1DF08C016161C
S11309D017061806991FF1CF8695710561050894CD
S11309E00895E894BB2766277727CB0197F90895E4
S11309F097FB072E16F4009407D077FD09D00E94C8
S1130A000C0507FC05D03EF4909581959F4F089501
S1130A10709561957F4F0895AA1BBB1B51E107C0D8
S1130A20AA1FBB1FA617B70710F0A61BB70B881F7A
S1130A30991F5A95A9F780959095BC01CD01089509
S1130A408F929F92AF92BF92CF92DF92EF92FF92DA
S1130A50CF93DF93EC01688179818A819B81611551
S1130A6071058105910521F464E279ED8BE597E048
S1130A702DE133EF41E050E00E947C0549015A0129
S1130A809B01AC01A7EAB1E40E949B056B017C01C8
S1130A90ACEEB4EFA50194010E94A905DC01CB01E1
S1130AA08C0D9D1DAE1DBF1DB7FF03C00197A1098D
S1130AB0B04888839983AA83BB839F77DF91CF91C2
S1130AC0FF90EF90DF90CF90BF90AF909F908F906A
S1130AD008950E942005089580E690E00E94200574
S1130AE00895A0E0B0E08093600090936100A0932B
S1130AF06200B09363000895052E97FB1EF40094E2
S1130B000E94930557FD07D00E94AE0507FC03D051
S1130B104EF40C94930550954095309521953F4F94
S1130B204F4F5F4F089590958095709561957F4FD5
S1130B308F4F9F4F08950E94D005A59F900DB49F9D
S1130B40900DA49F800D911D11240895B7FF0C945E
S1130B509B050E949B05821B930B0895A1E21A2E0C
S1130B60AA1BBB1BFD010DC0AA1FBB1FEE1FFF1F4D
S1130B70A217B307E407F50720F0A21BB30BE40B9D
S1130B80F50B661F771F881F991F1A9469F76095E4
S1130B907095809590959B01AC01BD01CF0108959E
S1130BA0A29FB001B39FC001A39F700D811D1124AA
S1130BB0911DB29F700D811D1124911D0895F8940B
S1050BC0FFCF61
S1070BC2010000002A
S9030000FC
