:100000000C942A000C943F000C943F000C943F0089
:100010000C943F000C943F000C943F000C943F0064
:100020000C943F000C943F000C943F000C943F0054
:100030000C943F000C943F000C943F000C943F0044
:100040000C943F000C943F000C943F000C943F0034
:100050000C943F0011241FBECFE5D8E0DEBFCDBF1A
:1000600010E0A0E6B0E0E4E1F5E302C005900D92F7
:10007000A436B107D9F70E9420010C94881A0C9479
:10008000000089E080B981B181B9089584EA86BF12
:1000900006B607FEFDCF089583B984E886BF06B68D
:1000A00007FEFDCF089584E986BF0895CF93DF93BF
:1000B000EC0186E69EE00197F1F700000E94410006
:1000C0000E94460088810E944C0080E80E944C00FB
:1000D0008EEA0E944C0080E80E944C0085ED0E9450
:1000E0004C0080E80E944C0080E80E944C0088EAA6
:1000F0000E944C008FE30E944C0080E80E944C005C
:1001000083ED0E944C0080E00E944C0080E80E9439
:100110004C0080E40E944C0080E80E944C008AED74
:100120000E944C0082E10E944C0080E80E944C003A
:1001300080E20E944C0080E00E944C0080E80E9417
:100140004C0081E20E944C0080E00E944C008FE74E
:100150000E944C0080E80E944C0082E20E944C0009
:1001600080E00E944C0087E00E944C0080E80E94E2
:100170004C0081EA0E944C0080E80E944C0080EC18
:100180000E944C0080E80E944C0081E80E944C00D4
:100190008AE00E944C0080E80E944C008BED0E9497
:1001A0004C0080E40E944C0080E80E944C0089EDE5
:1001B0000E944C0081EF0E944C0080E80E944C009D
:1001C0008DE80E944C0084E10E944C0080E80E946F
:1001D0004C0084EA0E944C0080E80E944C0086EAB1
:1001E0000E944C0080E80E944C008FEA0E944C0064
:1001F0000E94530086E69EE00197F1F700000E94FE
:1002000041000E94460088810E944C0080E40E94C8
:100210004C000E945300DF91CF9108951ABA86B125
:10022000806886B986B1806486B986B1876086B9F0
:1002300087B1806C87B987B187B987B187B90895CD
:10024000CF93DF93CDB7DEB7CE51D7400FB6F8943A
:10025000DEBF0FBECDBF0E940E01CC5FDB4F188208
:10026000C450D440CB5FDB4F1882C550D440FE0150
:10027000EA5FFB4F80E093E0DF019C011D9221507B
:100280003040E1F78AEFC353DB4F8883CD5CD44025
:10029000F1E0C15FDA4FF883CF50D54032E0C05F64
:1002A000DA4F3883C051D54060E1CB5EDA4F6883C6
:1002B000C551D540CA5EDA4F6883C651D540C95E84
:1002C000DA4F6883C751D540C45EDA4F3883CC51CA
:1002D000D540ECE7CA5DDA4FE883C652D5400F2E11
:1002E000FAE8EF2EF02DC95DDA4FE882C752D5400B
:1002F00022E9C85DDA4F2883C852D540B2EAC75D0B
:10030000DA4FB883C952D540C65DDA4FE883CA5286
:10031000D540C45DDA4F3883CC52D5400F2EF2E47D
:10032000CF2EF02DC35DDA4FC882CD52D5409EEF5F
:10033000C25DDA4F9883CE52D540C15DDA4F388323
:10034000CF52D540C05DDA4F3883C053D54086E4E4
:10035000CE5CDA4F8883C253D540CD5CDA4FE88259
:10036000C353D540CC5CDA4F2883C453D540CB5C13
:10037000DA4F2883C553D54086E6CA5CDA4F8883B6
:10038000C653D540A4E4C85CDA4FA883C853D5400F
:1003900082E8C75CDA4F8883C953D540C65CDA4F20
:1003A0002883CA53D540C55CDA4F2883CB53D54048
:1003B0000F2EFCE6DF2EF02DC45CDA4FD882CC5332
:1003C000D54048E1C25CDA4F4883CE53D54018E2AD
:1003D000C15CDA4F1883CF53D54048E4C05CDA4F94
:1003E0004883C054D54048E8CF5BDA4F4883C154B6
:1003F000D540CE5BDA4F9883C254D54044EECC5BF7
:10040000DA4F4883C454D540CB5BDA4FB883C55428
:10041000D540CA5BDA4FB883C654D540C95BDA4FC2
:10042000B883C754D5404CE9C85BDA4F4883C854F9
:10043000D5400F2EFCE39F2EF02DC65BDA4F98823D
:10044000CA54D54042E5C55BDA4F4883CB54D5400A
:10045000C45BDA4F2883CC54D540C35BDA4F288382
:10046000CD54D5400CE0C25BDA4F0883CE54D54062
:1004700040ECC05BDA4F4883C055D54050E8CF5AB6
:10048000DA4F5883C155D5400F2EFEE8AF2EF02D20
:10049000CE5ADA4FA882C255D54040E9CD5ADA4F3C
:1004A0004883C355D54070EECC5ADA4F7883C45593
:1004B000D540CA5ADA4FD882C655D540C95ADA4F04
:1004C0002883C755D540C85ADA4F2883C855D54028
:1004D000C75ADA4F2883C955D540C65ADA4FD88251
:1004E000CA55D5400F2EF0E6FF2EF02DC45ADA4F34
:1004F000F882CC55D540C35ADA4F2883CD55D54024
:10050000C25ADA4F2883CE55D54074E9C15ADA4F22
:100510007883CF55D5400F2EF8E7BF2EF02DC05A67
:10052000DA4FB882C056D54074E2CD59DA4F78839D
:10053000C356D540C859DA4F3883C856D540C75935
:10054000DA4F7883C956D540C259DA4F6883CE5600
:10055000D540C159DA4F1883CF56D540C059DA4F2C
:10056000A883C057D540CF58DA4F8883C157D540AC
:10057000CC58DA4F7883C457D540CB58DA4F7883BC
:10058000C557D540CA58DA4F7883C657D540C958A1
:10059000DA4F7883C757D540C658DA4F8883CA5791
:1005A000D540C558DA4FA883CB57D540C458DA4F49
:1005B0001883CC57D540C358DA4F6883CD57D54000
:1005C00070E4C058DA4F7883C058D540CF57DA4F1F
:1005D0005883C158D540CE57DA4FE882C258D5402B
:1005E000CD57DA4F4883C358D540CC57DA4FF882FD
:1005F000C458D540CA57DA4F9882C658D540C95713
:10060000DA4FC882C758D5400F2EFAE5CF2EF02D0D
:10061000C857DA4FC882C858D5400F2EFAE4CF2EFB
:10062000F02DC757DA4FC882C958D5400F2EFAE3CC
:10063000CF2EF02DC657DA4FC882CA58D5400F2E9C
:10064000FEE7CF2EF02DC457DA4FC882CC58D540E4
:10065000C357DA4F4883CD58D540C257DA4F488345
:10066000CE58D540C157DA4F4883CF58D540C057F0
:10067000DA4FC882C059D540CE56DA4F9883C25956
:10068000D540CD56DA4F2883C359D540CC56DA4FE2
:100690002883C459D540CB56DA4F2883C559D54055
:1006A000CA56DA4FD882C659D540C856DA4FE883C1
:1006B000C859D540C756DA4F8883C959D540C65660
:1006C000DA4F8883CA59D540C556DA4F8883CB594B
:1006D000D540C456DA4FA883CC59D540C256DA4F1C
:1006E0009883CE59D540C156DA4F8883CF59D5402B
:1006F000C056DA4F8883C05AD540CF55DA4F888329
:10070000C15AD540CE55DA4FE883C25AD540CC55B0
:10071000DA4F9883C45AD540CB55DA4F2883C55A4F
:10072000D540CA55DA4F2883C65AD540C955DA4F45
:100730002883C75AD540C855DA4F8883C85AD54050
:10074000C655DA4F9883CA5AD540C555DA4F488303
:10075000CB5AD540C455DA4F4883CC5AD540C355FF
:10076000DA4F4883CD5AD540C255DA4F5883CE5A16
:10077000D540C055DA4FE883C05BD540CF54DA4F3F
:100780008883C15BD540CE54DA4F8883C25BD540A5
:10079000CD54DA4FB883C35BD540ACEBCC54DA4FC1
:1007A000A883C45BD540CA54DA4F9883C65BD54052
:1007B000C954DA4F6883C75BD540C854DA4F6883A1
:1007C000C85BD540C754DA4F6883C95BD540C6546F
:1007D000DA4F9883CA5BD540C354DA4F8883CD5B28
:1007E000D540C254DA4F9883CE5BD540C154DA4F1E
:1007F0008883CF5BD5406894DD24D2F8CE53DA4F9E
:10080000D882C25CD540CD53DA4F3883C35CD54023
:10081000CC53DA4F3883C45CD540CB53DA4F38839E
:10082000C55CD5400F2EFCEFCF2EF02DCA53DA4F0A
:10083000C882C65CD540C853DA4F9883C85CD5409F
:10084000A0E2C753DA4FA883C95CD540C653DA4F3C
:10085000A883CA5CD5400F2EF0E59F2EF02DC5531E
:10086000DA4F9882CB5CD540C453DA4FA882CC5C77
:10087000D540C253DA4F9883CE5CD540C153DA4F8E
:100880003883CF5CD540C053DA4F3883C05DD54044
:10089000CF52DA4F3883C15DD540CC52DA4F9883BE
:1008A000C45DD540CB52DA4F7883C55DD540CA527E
:1008B000DA4FA883C65DD540C952DA4F7883C75D49
:1008C000D540C852DA4F9883C85DD540C652DA4F3A
:1008D0009883CA5DD540C552DA4F7883CB5DD54049
:1008E000C452DA4FA883CC5DD540C352DA4F688337
:1008F000CD5DD540C252DA4F9883CE5DD540C0520F
:10090000DA4FE883C05ED540CF51DA4F8883C15EAD
:10091000D540CE51DA4F8883C25ED540CD51DA4FF3
:100920008883C35ED540CC51DA4FE883C45ED5409E
:10093000CA51DA4F9883C65ED540C951DA4F488311
:10094000C75ED540C851DA4F4883C85ED540C7510D
:10095000DA4F4883C95ED540C651DA4FF882CA5E85
:10096000D540C451DA4FE883CC5ED540C351DA4F4D
:100970008883CD5ED540C251DA4F8883CE5ED540A4
:10098000E4E8C151DA4FE883CF5ED540EAE7C051D1
:10099000DA4FE883C05FD540CE50DA4F9883C25F0C
:1009A000D540CD50DA4F4883C35FD540CC50DA4FA5
:1009B0004883C45FD540CB50DA4F4883C55FD540EC
:1009C0004EE6CA50DA4F4883C65FD54044E6C85069
:1009D000DA4F4883C85FD540C750DA4F2883C95FD4
:1009E000D540C650DA4F2883CA5FD540C550DA4F8C
:1009F0002883CB5FD5404CE4C450DA4F4883CC5FAA
:100A0000D540C250DA4F5883CE5FD540C150DA4F3F
:100A10005883CF5FD540C050DA4F9883C050D6403E
:100A2000CF5FD94F5883C150D640CE5FD94F58833E
:100A3000C250D640CC5FD94FC882C450D640CB5F9D
:100A4000D94F3883C550D640CA5FD94F3883C65076
:100A5000D640C95FD94F3883C750D640C85FD94FF9
:100A6000C882C850D64040EFC65FD94F4883CA50AD
:100A7000D640C55FD94F0883CB50D640C45FD94F0D
:100A80003883CC50D640C35FD94F0883CD50D64071
:100A9000C25FD94F4883CE50D640C05FD94F9883AC
:100AA000C051D640CF5ED94FD882C151D64048E020
:100AB000CE5ED94F4883C251D640CD5ED94FD88241
:100AC000C351D640CC5ED94F9883C451D64046EC32
:100AD000CA5ED94F4883C651D640C95ED94F1883E4
:100AE000C751D640C85ED94F6883C851D640C75E4B
:100AF000D94F1883C951D640C65ED94F4883CA51D1
:100B0000D640C45ED94F5883CC51D640C35ED94F2E
:100B10007883CD51D6404EE3C25ED94F4883CE5143
:100B2000D640C15ED94F7883CF51D640C05ED94FF1
:100B30005883C052D64046E8CE5DD94F4883C25252
:100B4000D640CD5DD94FE882C352D640CC5DD94F57
:100B50002883C452D640CB5DD94FB883C552D64006
:100B600022ECCA5DD94F2883C652D640C75DD94F03
:100B70009883C952D640C65DD94F8883CA52D640A1
:100B8000C55DD94F8883CB52D640C25DD94F5883BB
:100B9000CE52D640C15DD94FF882CF52D640C05D0B
:100BA000D94F6883C053D640CF5CD94F0883C15317
:100BB000D640CE5CD94F3883C253D640CB5CD94F98
:100BC0008883C553D640CA5CD94F8883C653D64064
:100BD000C95CD94F9883C753D640C65CD94FA88308
:100BE000CA53D640C55CD94F7883CB53D640C45C3A
:100BF000D94F5883CC53D640C35CD94F7883CD535B
:100C0000D640C25CD94FA883CE53D640C05CD94FE2
:100C1000F883C054D640CF5BD94FF883C154D64037
:100C2000CE5BD94FF883C254D640CD5BD94FF88301
:100C3000C354D640CC5BD94FF883C454D640B98254
:100C40001A821B82CE0101960E94560080E090E03D
:100C5000811534E093074CF4E4E0F0E0EC0FFD1F65
:100C6000E80FF91F10820196F3CF212C312CCA5FB7
:100C7000D84F19821882C650D740C95ED84F198202
:100C80001882C751D7404FEF5FE382E04150504098
:100C90008040E1F700C00000349B06C086B180614F
:100CA00086B986B1806486B9CC5FDB4F1882C450A8
:100CB000D440CB5FDB4F1882C550D44064B175B1CE
:100CC00080E090E00E94551920E030E040E250E4DE
:100CD0000E940C1A4B015C0120E030E04AE754E42A
:100CE0000E94071A88230CF4D4C420E030E04AE7BD
:100CF00054E4C501B4010E94AD180E942619FB01FD
:100D00004DB65EB69B0101E010E02115310571F092
:100D1000ADECBCEC0E94791A9C013695279536956E
:100D20002795369527950F5F1F4FEFCFA8014150AC
:100D30005109C65FD84F59834883CA50D7408DB7F1
:100D40009EB7801B910B0FB6F8949EBF0FBE8DBF50
:100D5000ADB7BEB711966D013D01CA018F3F2FEFB0
:100D6000920719F01D920197F9CF309709F0B3C09F
:100D700080E3D6018C9311961C92C12CD12CF301E7
:100D8000EC0DFD1D1081112309F49DC01A30C9F42A
:100D9000CC5FDB4F1882C450D440CB5FDB4F8881DF
:100DA000C550D4408F5FCB5FDB4F8883C550D440A4
:100DB00088300CF488C0CB5FDB4F1882C550D4401C
:100DC00082C0CB5FDB4F0881C550D440A02F002EDE
:100DD000000CBB0BCC5FDB4FF880C450D440EF2D30
:100DE0000F2C000CFF0B60E070E0C65FD84FB9839A
:100DF000A883CA50D74066307105DCF5CF01880F53
:100E0000991F8E0F9F1F880F991F9B01280F391F55
:100E100087E090E0C65FD84F48815981CA50D740DB
:100E2000841B950B9695982F882797958795820F09
:100E3000931F212F30E0A901440F551F240F351FA8
:100E4000220F331FA1E0B0E0AC0FBD1F2A0F3B1FE4
:100E5000260F371F2B5F3B4FD9012C9144E050E008
:100E60004C0F5D1F840F951FDC012C936F5F7F4F2C
:100E7000C2CFBFEFCB1ADB0A81E08F0DCC5FDB4F17
:100E80008883C450D44085315CF0CC5FDB4F18823E
:100E9000C450D4400F5FCB5FDB4F0883C550D440B4
:100EA000CB5FDB4F8881C550D44088300CF467CFCE
:100EB000CC5FDB4F1882C450D440CB5FDB4F18822D
:100EC000C550D4405CCF0FB6F8945EBE0FBE4DBE89
:100ED00000E010E0EEC0E12CF12C3097A1F1A80168
:100EE000425051094E195F099F01ADECBCEC0E94C4
:100EF000791A9695879596958795969587959C01ED
:100F0000220F331F880F991F880F991F880F991F71
:100F1000820F931F9F01281B390BC901D301A40F16
:100F2000B51F805D8C939F01ADECBCEC0E94791ADB
:100F3000FC01F695E795F695E795F695E7953FEF71
:100F4000E31AF30ACACFC65FD84FE881F981CA50C5
:100F5000D740EC0DFD1D1082C12CD12CF301EC0DFE
:100F6000FD1D1081112309F49DC01A30C9F4CC5F16
:100F7000DB4F1882C450D440CB5FDB4F8881C55013
:100F8000D4408F5FCB5FDB4F8883C550D44088301F
:100F90000CF488C0CB5FDB4F1882C550D44082C0B0
:100FA000CB5FDB4F0881C550D440A02F002E000C32
:100FB000BB0BCC5FDB4FF880C450D440EF2D0F2C1F
:100FC000000CFF0B60E070E0C65FD84FB983A883C8
:100FD000CA50D74066307105DCF5CF01880F991FE4
:100FE0008E0F9F1F880F991F9B01280F391F87E0C5
:100FF00090E0C65FD84F48815981CA50D740841BC2
:10100000950B9695982F882797958795820F931F14
:10101000212F30E0A901440F551F240F351F220F47
:10102000331FA1E0B0E0AC0FBD1F2A0F3B1F260FFE
:10103000371F2B5F3B4FD9012C9144E050E04C0F00
:101040005D1F840F951FDC012C936F5F7F4FC2CF14
:10105000BFEFCB1ADB0A81E08F0DCC5FDB4F8883BB
:10106000C450D44085315CF0CC5FDB4F1882C45053
:10107000D4400F5FCB5FDB4F0883C550D440CB5FBC
:10108000DB4F8881C550D44088300CF467CFCC5FEB
:10109000DB4F1882C450D440CB5FDB4F1882C55061
:1010A000D4405CCF0FB6F8945EBE0FBE4DBE00E0DC
:1010B00010E0F801E05AFF4FF080FF2009F48FC0E4
:1010C000EAE0FE1219C0CC5FDB4F1882C450D44056
:1010D000CB5FDB4F8881C550D4408F5FCB5FDB4F48
:1010E0008883C550D44088300CF479C0CB5FDB4F87
:1010F0001882C550D44073C0CB5FDB4FD880C55039
:10110000D440AD2D0D2C000CBB0BCC5FDB4FE88029
:10111000C450D4406E2D0E2C000C770B40E050E0F4
:10112000463051059CF59B01220F331F260F371FB8
:10113000220F331FCA01820F931F27E030E02A1BC2
:101140003B0B3695322F222737952795280F391FCD
:101150008F2D90E0FC01EE0FFF1FE80FF91FEE0F3F
:10116000FF1F81E090E08C0F9D1FE80FF91FE40F37
:10117000F51FEB5FFB4F8081E4E0F0E0EC0FFD1F1B
:10118000E20FF31F80834F5F5F4FCACF0F5F1F4F88
:1011900081E08E0DCC5FDB4F8883C450D440853115
:1011A0005CF0CC5FDB4F1882C450D440D394CB5F4B
:1011B000DB4FD882C550D440CB5FDB4F8881C55010
:1011C000D44088300CF475CFCC5FDB4F1882C4500C
:1011D000D440CB5FDB4F1882C550D4406ACF20E0AB
:1011E00030E04AE754E4C501B4010E943B180E9474
:1011F0002619FB018DB69EB69B01EE24E394F12CDB
:101200002115310579F0ADECBCEC0E94791A9C01F6
:101210003695279536952795369527959FEFE91AA8
:10122000F90AEECF3701A1E06A1A71082DB73EB76F
:101230002E193F090FB6F8943EBF0FBE2DBF4DB714
:101240005EB74F5F5F4F5A018A01C301DA018F3FDA
:101250005FEF950719F01D920197F9CF309709F0CC
:10126000A6C080E3D5018C9311961C92E12CF12C41
:10127000F801EE0DFF1DD080DD2009F490C0BAE02A
:10128000DB1219C0CC5FDB4F1882C450D440CB5F57
:10129000DB4F8881C550D4408F5FCB5FDB4F8883A5
:1012A000C550D44088300CF47AC0CB5FDB4F188235
:1012B000C550D44074C0CB5FDB4FC880C550D4400C
:1012C000AC2D0C2C000CBB0BCC5FDB4FB880C4509A
:1012D000D4406B2D0B2C000C770B40E050E04630D7
:1012E00051059CF59B01220F331F260F371F220F3C
:1012F000331FCA01820F931F27E030E02A1B3B0BEC
:101300003695322F222737952795280F391F8D2D97
:1013100090E0FC01EE0FFF1FE80FF91FEE0FFF1F1B
:1013200081E090E08C0F9D1FE80FF91FE40FF51F7F
:10133000EB5FFB4F8081E4E0F0E0EC0FFD1FE20F7C
:10134000F31F80834F5F5F4FCACF9FEFE91AF90AFF
:1013500081E08B0DCC5FDB4F8883C450D440853156
:101360005CF0CC5FDB4F1882C450D440C394CB5F99
:10137000DB4FC882C550D440CB5FDB4F8881C5505E
:10138000D44088300CF474CFCC5FDB4F1882C4504B
:10139000D440CB5FDB4F1882C550D44069CF0FB625
:1013A000F8949EBE0FBE8DBE00E010E0DCC0C12CE4
:1013B000D12C3097A1F1A701425051094C195D0978
:1013C0009F01ADECBCEC0E94791A96958795969595
:1013D0008795969587959C01220F331F880F991F3B
:1013E000880F991F880F991F820F931FDF01A81B79
:1013F000B90BCD01D801A40FB51F805D8C939F015F
:10140000ADECBCEC0E94791AFC01F695E795F695D7
:10141000E795F695E795BFEFCB1ADB0ACACFF50142
:10142000E60DF71D1082E12CF12CF801EE0DFF1DE9
:10143000D080DD2009F490C0EAE0DE1219C0CC5F54
:10144000DB4F1882C450D440CB5FDB4F8881C5503E
:10145000D4408F5FCB5FDB4F8883C550D44088304A
:101460000CF47AC0CB5FDB4F1882C550D44074C0F7
:10147000CB5FDB4FC880C550D440AC2D0C2C000C8A
:10148000BB0BCC5FDB4FB880C450D4406B2D0B2C12
:10149000000C770B40E050E0463051059CF59B0175
:1014A000220F331F260F371F220F331FCA01820F4F
:1014B000931F27E030E02A1B3B0B3695322F222763
:1014C00037952795280F391F8D2D90E0FC01EE0FE1
:1014D000FF1FE80FF91FEE0FFF1F81E090E08C0F58
:1014E0009D1FE80FF91FE40FF51FEB5FFB4F808195
:1014F000E4E0F0E0EC0FFD1FE20FF31F80834F5F8D
:101500005F4FCACF9FEFE91AF90A81E08B0DCC5FDC
:10151000DB4F8883C450D44085315CF0CC5FDB4F17
:101520001882C450D440C394CB5FDB4FC882C550EF
:10153000D440CB5FDB4F8881C550D44088300CF459
:1015400074CFCC5FDB4F1882C450D440CB5FDB4FED
:101550001882C550D44069CF0FB6F8949EBE0FBE16
:101560008DBE00E010E0F801EE59FF4FF080FF2043
:1015700009F446C4AAE0FA1219C0CC5FDB4F188206
:10158000C450D440CB5FDB4F8881C550D4408F5FBF
:10159000CB5FDB4F8883C550D44088300CF430C417
:1015A000CB5FDB4F1882C550D4402AC4CB5FDB4FE2
:1015B000D880C550D440AD2D0D2C000CBB0BCC5F9A
:1015C000DB4FE880C450D4406E2D0E2C000C770BFE
:1015D00040E050E0463051059CF59B01220F331F3F
:1015E000260F371F220F331FCA01820F931F27E0D8
:1015F00030E02A1B3B0B3695322F22273795279553
:10160000280F391F8F2D90E0FC01EE0FFF1FE80F10
:10161000F91FEE0FFF1F81E090E08C0F9D1FE80F78
:10162000F91FE40FF51FEB5FFB4F8081E4E0F0E072
:10163000EC0FFD1FE20FF31F80834F5F5F4FCACF98
:101640000F5F1F4F81E08E0DCC5FDB4F8883C4504E
:10165000D44085315CF0CC5FDB4F1882C450D4405D
:10166000D394CB5FDB4FD882C550D440CB5FDB4FE8
:101670008881C550D44088300CF475CFCC5FDB4FE7
:101680001882C450D440CB5FDB4F1882C550D44081
:101690006ACF20E030E04AE754E4C501B4010E947B
:1016A000A81888230CF0ACC34DB65EB61F92ADB738
:1016B000BEB711963D01FD0180E090E08F3F2FEF16
:1016C000920719F011920197F9CF80E38C9311964C
:1016D0001C92C12CD12CF301EC0DFD1D10811123A6
:1016E00009F49DC01A30C9F4CC5FDB4F1882C45096
:1016F000D440CB5FDB4F8881C550D4408F5FCB5F38
:10170000DB4F8883C550D44088300CF488C0CB5F51
:10171000DB4F1882C550D44082C0CB5FDB4F0881BD
:10172000C550D440A02F002E000CBB0BCC5FDB4F6C
:10173000F880C450D440EF2D0F2C000CFF0B60E05C
:1017400070E0C65FD84FB983A883CA50D7406630CF
:101750007105DCF5CF01880F991F8E0F9F1F880F31
:10176000991F9B01280F391F87E090E0C65FD84F73
:1017700048815981CA50D740841B950B9695982F64
:10178000882797958795820F931F212F30E0A90115
:10179000440F551F240F351F220F331FA1E0B0E067
:1017A000AC0FBD1F2A0F3B1F260F371F2B5F3B4F70
:1017B000D9012C9144E050E04C0F5D1F840F951F20
:1017C000DC012C936F5F7F4FC2CFBFEFCB1ADB0AD8
:1017D00081E08F0DCC5FDB4F8883C450D4408531CE
:1017E0005CF0CC5FDB4F1882C450D4400F5FCB5FFE
:1017F000DB4F0883C550D440CB5FDB4F8881C55099
:10180000D44088300CF467CFCC5FDB4F1882C450D3
:10181000D440CB5FDB4F1882C550D4405CCF0FB6AD
:10182000F8945EBE0FBE4DBE00E010E0F801E05A35
:10183000FF4FF080FF2009F48FC0EAE0FE1219C0CC
:10184000CC5FDB4F1882C450D440CB5FDB4F888124
:10185000C550D4408F5FCB5FDB4F8883C550D440E9
:1018600088300CF479C0CB5FDB4F1882C550D44070
:1018700073C0CB5FDB4FD880C550D440AD2D0D2C4D
:10188000000CBB0BCC5FDB4FE880C450D4406E2D06
:101890000E2C000C770B40E050E0463051059CF5D3
:1018A0009B01220F331F260F371F220F331FCA0140
:1018B000820F931F27E030E02A1B3B0B3695322F17
:1018C000222737952795280F391F8F2D90E0FC018F
:1018D000EE0FFF1FE80FF91FEE0FFF1F81E090E0F2
:1018E0008C0F9D1FE80FF91FE40FF51FEB5FFB4FF7
:1018F0008081E4E0F0E0EC0FFD1FE20FF31F808336
:101900004F5F5F4FCACF0F5F1F4F81E08E0DCC5FDF
:10191000DB4F8883C450D44085315CF0CC5FDB4F13
:101920001882C450D440D394CB5FDB4FD882C550CB
:10193000D440CB5FDB4F8881C550D44088300CF455
:1019400075CFCC5FDB4F1882C450D440CB5FDB4FE8
:101950001882C550D4406ACFC501B4010E9426192F
:10196000FB018DB69EB69B01EE24E394F12C21156C
:10197000310579F0ADECBCEC0E94791A9C013695EA
:10198000279536952795369527959FEFE91AF90AF9
:10199000EECF3701A1E06A1A71082DB73EB72E19B4
:1019A0003F090FB6F8943EBF0FBE2DBF4DB75EB7CF
:1019B0004F5F5F4F5A018A01C301DA018F3F5FEF2A
:1019C000950719F01D920197F9CF309709F0A6C03D
:1019D00080E3D5018C9311961C92E12CF12CF80137
:1019E000EE0DFF1DD080DD2009F490C0BAE0DB12BF
:1019F00019C0CC5FDB4F1882C450D440CB5FDB4FA3
:101A00008881C550D4408F5FCB5FDB4F8883C55042
:101A1000D44088300CF47AC0CB5FDB4F1882C550BD
:101A2000D44074C0CB5FDB4FC880C550D440AC2DD0
:101A30000C2C000CBB0BCC5FDB4FB880C450D440E7
:101A40006B2D0B2C000C770B40E050E0463051051D
:101A50009CF59B01220F331F260F371F220F331FC8
:101A6000CA01820F931F27E030E02A1B3B0B3695FB
:101A7000322F222737952795280F391F8D2D90E07B
:101A8000FC01EE0FFF1FE80FF91FEE0FFF1F81E0B3
:101A900090E08C0F9D1FE80FF91FE40FF51FEB5F1F
:101AA000FB4F8081E4E0F0E0EC0FFD1FE20FF31F3D
:101AB00080834F5F5F4FCACF9FEFE91AF90A81E039
:101AC0008B0DCC5FDB4F8883C450D44085315CF0F4
:101AD000CC5FDB4F1882C450D440C394CB5FDB4F44
:101AE000C882C550D440CB5FDB4F8881C550D440FD
:101AF00088300CF474CFCC5FDB4F1882C450D440D4
:101B0000CB5FDB4F1882C550D44069CF0FB6F89435
:101B10009EBE0FBE8DBE00E010E0DCC0C12CD12CFB
:101B20003097A1F1A701425051094C195D099F015D
:101B3000ADECBCEC0E94791A9695879596958795A1
:101B4000969587959C01220F331F880F991F880F48
:101B5000991F880F991F820F931FDF01A81BB90BD4
:101B6000CD01D801A40FB51F805D8C939F01ADEC12
:101B7000BCEC0E94791AFC01F695E795F695E7957D
:101B8000F695E795BFEFCB1ADB0ACACFF501E60D54
:101B9000F71D1082E12CF12CF801EE0DFF1DD08015
:101BA000DD2009F490C0EAE0DE1219C0CC5FDB4F03
:101BB0001882C450D440CB5FDB4F8881C550D440DD
:101BC0008F5FCB5FDB4F8883C550D44088300CF4E7
:101BD0007AC0CB5FDB4F1882C550D44074C0CB5F56
:101BE000DB4FC880C550D440AC2D0C2C000CBB0B77
:101BF000CC5FDB4FB880C450D4406B2D0B2C000C55
:101C0000770B40E050E0463051059CF59B01220FD8
:101C1000331F260F371F220F331FCA01820F931F56
:101C200027E030E02A1B3B0B3695322F22273795D1
:101C30002795280F391F8D2D90E0FC01EE0FFF1F17
:101C4000E80FF91FEE0FFF1F81E090E08C0F9D1F42
:101C5000E80FF91FE40FF51FEB5FFB4F8081E4E015
:101C6000F0E0EC0FFD1FE20FF31F80834F5F5F4F2B
:101C7000CACF9FEFE91AF90A81E08B0DCC5FDB4FE9
:101C80008883C450D44085315CF0CC5FDB4F188230
:101C9000C450D440C394CB5FDB4FC882C550D440FE
:101CA000CB5FDB4F8881C550D44088300CF474CFB3
:101CB000CC5FDB4F1882C450D440CB5FDB4F18821F
:101CC000C550D44069CF0FB6F8949EBE0FBE8DBEEE
:101CD00000E010E0F801EE59FF4FF080FF2009F41A
:101CE0008FC0AAE0FA1219C0CC5FDB4F1882C45033
:101CF000D440CB5FDB4F8881C550D4408F5FCB5F32
:101D0000DB4F8883C550D44088300CF479C0CB5F5A
:101D1000DB4F1882C550D44073C0CB5FDB4FD880F7
:101D2000C550D440AD2D0D2C000CBB0BCC5FDB4F50
:101D3000E880C450D4406E2D0E2C000C770B40E090
:101D400050E0463051059CF59B01220F331F260FB2
:101D5000371F220F331FCA01820F931F27E030E085
:101D60002A1B3B0B3695322F222737952795280FB4
:101D7000391F8F2D90E0FC01EE0FFF1FE80FF91FB8
:101D8000EE0FFF1F81E090E08C0F9D1FE80FF91F01
:101D9000E40FF51FEB5FFB4F8081E4E0F0E0EC0F18
:101DA000FD1FE20FF31F80834F5F5F4FCACF0F5FAE
:101DB0001F4F81E08E0DCC5FDB4F8883C450D44031
:101DC00085315CF0CC5FDB4F1882C450D440D39493
:101DD000CB5FDB4FD882C550D440CB5FDB4F8881CF
:101DE000C550D44088300CF475CFCC5FDB4F1882DF
:101DF000C450D440CB5FDB4F1882C550D4406ACF6B
:101E000084B195B12C0156944794569447945694B6
:101E1000479456944794C20101978E37910508F074
:101E2000E2C2B201052C000C880B990B0E945719D5
:101E3000CA5ED84F6883C651D740C75ED84F7883F3
:101E4000C951D740C55ED84F8883CB51D740C45EB7
:101E5000D84F9883CC51D740C95ED84FA881B9815B
:101E6000C751D740BD01BB0F880B990B0E94571972
:101E7000162F072FB82EA92EB101330C880B990B02
:101E80000E945719362E272EE82ED92ECA5FD84F1A
:101E9000E881F981C650D740BF01FF0F880B990B2D
:101EA0000E945719F62EC72E982E692E262F372FEF
:101EB000482F592F612F702F8B2D9A2D0E94A81813
:101EC000882309F441C0232D322D4E2D5D2DCA5E8D
:101ED000D84F6881C651D740C75ED84F7881C95165
:101EE000D740C55ED84F8881CB51D740C45ED84F0C
:101EF0009881CC51D7400E943B18CA5FD84F688365
:101F000079838A839B83C650D7402F2D3C2D492D42
:101F1000562D612F702F8B2D9A2D0E943B189B01FF
:101F2000AC01CA5FD84F688179818A819B81C65094
:101F3000D7400E94AD18CA5FD84F688379838A83DF
:101F40009B83C650D7400CC020E030E543EC57E4FB
:101F5000CA5FD84F288339834A835B83C650D740F2
:101F6000232D322D4E2D5D2DCA5ED84F6881C6516E
:101F7000D740C75ED84F7881C951D740C55ED84F8A
:101F80008881CB51D740C45ED84F9881CC51D7407F
:101F90000E94A818882309F441C02F2D3C2D492DFB
:101FA000562D612F702F8B2D9A2D0E943B18C65FE6
:101FB000D84F688379838A839B83CA50D740232D67
:101FC000322D4E2D5D2DCA5ED84F6881C651D74047
:101FD000C75ED84F7881C951D740C55ED84F888138
:101FE000CB51D740C45ED84F9881CC51D7400E9486
:101FF0003B189B01AC01C65FD84F688179818A810B
:102000009B81CA50D7400E94AD18C65FD84F6883E5
:1020100079838A839B83CA50D7400CC080E090E4C8
:10202000ACE1B6E4C65FD84F88839983AA83BB83AB
:10203000CA50D740CA5FD84F288139814A815B8115
:10204000C650D7406F2D7C2D892D962D0E940C1ADD
:102050009B01AC01632D722D8E2D9D2D0E943B188E
:10206000C25FD84F688379838A839B83CE50D740E1
:10207000C65FD84F288139814A815B81CA50D740D9
:10208000632D722D8E2D9D2D0E940C1A2F2D3C2D0F
:10209000492D562D0E943B18CE5ED84F6883798318
:1020A0008A839B83C251D7402F2D3C2D492D562D1D
:1020B000612F702F8B2D9A2D0E94A818882364F011
:1020C000312F202F9B2D8A2D1F2D0C2DB92CA62CA6
:1020D000F32EC22E992E682E612F702F8B2D9A2DE4
:1020E0000E942619762EC35ED84F59824882CD5160
:1020F000D740532C3E2CE92C072D10E0B801012EBF
:10210000000C880B990B0E9457194B015C012F2D75
:102110003C2D4E2D562D0E94A81888230CF078C017
:10212000A5019401CA5FD84F688179818A819B811A
:10213000C650D7400E940C1A9B01AC01C25FD84F19
:10214000688179818A819B81CE50D7400E943C185A
:102150000E941F192A81A22F220FBB0B20E830E01A
:102160002A1B3B0B201731070CF450C09D0120584F
:102170003109021713070CF449C02B81022E000C01
:10218000330BE0E4F0E0E21BF30BE617F707F4F1A2
:10219000F901E054F1096E177F07C4F14901860E79
:1021A000971E940135952795359527953595279553
:1021B000A9015695542F442757954795041B150B95
:1021C0000A0F1B1F322F2227020F131F97E08922AD
:1021D00090E89922992054F4A1E08A1A9108B8EF66
:1021E0008B2A99249A94EFEF8E1A9E0A81E090E050
:1021F00002C0880F991F8A94E2F7E4E0F0E0EC0F48
:10220000FD1FE00FF11F9081892B8083739474CFA1
:10221000E32C352CC35ED84F48805980CD51D74030
:10222000232D322D4E2D5D2DCA5ED84F6881C651AB
:10223000D740C75ED84F7881C951D740C55ED84FC7
:102240008881CB51D740C45ED84F9881CC51D740BC
:102250000E94A818882364F1CA5ED84F3881C651FD
:10226000D740C75ED84F2881C951D740C55ED84FE7
:102270009881CB51D740C45ED84F8881CC51D7408C
:10228000CA5ED84F3882C651D740C75ED84F288221
:10229000C951D740C55ED84FE882CB51D740C45E04
:1022A000D84FD882CC51D740332E222EE92ED82EAB
:1022B000CA5ED84F6881C651D740C75ED84F788173
:1022C000C951D740C55ED84F8881CB51D740C45E35
:1022D000D84F9881CC51D7400E942619F62E0F2D49
:1022E00010E0B801012E000C880B990B0E945719C1
:1022F0004B015C01232D322D4E2D5D2D0E94A8181F
:1023000088230CF085C5A5019401C65FD84F68816C
:1023100079818A819B81CA50D7400E940C1ACE5E77
:10232000D84F288139814A815B81C251D7400E94B0
:102330003B180E941F192A81E22F220FFF0B20E871
:1023400030E02E1B3F0B261737070CF44AC09F01C5
:1023500020583109621773070CF443C02B81022EF9
:10236000000C330B40E450E0421B530B4017510765
:10237000C4F1A901405451090417150794F1020F43
:10238000131F9801359527953595279535952795F0
:10239000A9015695542F4427579547954B01841A08
:1023A000950A8E0E9F1E322F2227820E931E0770D3
:1023B0001078112334F401501109086F1F6F0F5F5B
:1023C0001F4F81E090E002C0880F991F0A95E2F745
:1023D000E4E0F0E0EC0FFD1FE80DF91D9081892B82
:1023E0008083F3947CCF141415040CF49FC2C95E4F
:1023F000D84F28813981C751D740B901330F880B95
:10240000990B0E945719162F072FC75ED84F888344
:10241000C951D740C55ED84F9883CB51D740B10141
:10242000330C880B990B0E945719762E672EE82ED5
:10243000D92ECA5FD84F48815981C650D740BA01BA
:10244000550F880B990B0E945719F62EC72ECA5E9E
:10245000D84F8883C651D740292E262F372F482F93
:10246000592F612F702FC75ED84F8881C951D7402F
:10247000C55ED84F9881CB51D7400E94A8188823B9
:1024800081F1272D362D4E2D5D2D60E070E0CB01C2
:102490000E943B184B015C012F2D3C2DCA5ED84F8A
:1024A0004881C651D740522D612F702FC75ED84F3B
:1024B0008881C951D740C55ED84F9881CB51D7404C
:1024C0000E943B189B01AC01C501B4010E94AD18EC
:1024D000CA5FD84F688379838A839B83C650D7406D
:1024E0000CC080E090E5A3ECB7E4CA5FD84F8883C6
:1024F0009983AA83BB83C650D74020E030E0A9016E
:10250000672D762D8E2D9D2D0E94A818882381F190
:102510002F2D3C2DCA5ED84F4881C651D740522D31
:10252000612F702FC75ED84F8881C951D740C55ED3
:10253000D84F9881CB51D7400E943B184B015C018A
:10254000272D362D4E2D5D2D60E070E0CB010E94D1
:102550003B189B01AC01C501B4010E94AD18C65FD8
:10256000D84F688379838A839B83CA50D7400CC035
:1025700020E030E44CE156E4C65FD84F288339832D
:102580004A835B83CA50D740CA5FD84F28813981BC
:102590004A815B81C650D7406F2D7C2DCA5ED84FD3
:1025A0008881C651D740922D0E940C1A9B01AC0124
:1025B000672D762D8E2D9D2D0E943B18C25FD84F22
:1025C000688379838A839B83CE50D740C65FD84F78
:1025D000288139814A815B81CA50D740672D762D89
:1025E0008E2D9D2D0E940C1A2F2D3C2DCA5ED84F8A
:1025F0004881C651D740522D0E943B18CE5ED84F1D
:10260000688379838A839B83C251D7402F2D3C2DC9
:10261000CA5ED84F4881C651D740522D612F702FC6
:10262000C75ED84F8881C951D740C55ED84F9881C1
:10263000CB51D7400E94A81888232CF1312F202F8E
:10264000C75ED84F9881C951D740C55ED84F8881A1
:10265000CB51D7401F2D0C2DCA5ED84F4881C65193
:10266000D740C75ED84F4883C951D740C55ED84FC1
:102670002882CB51D740F32EC22ECA5ED84F988302
:10268000C651D740282E612F702FC75ED84F888142
:10269000C951D740C55ED84F9881CB51D7400E94D1
:1026A0002619362EC75ED84F59824882C951D74065
:1026B000572C7E2CCA5ED84FE880C651D740032DD8
:1026C00010E0B801012E000C880B990B0E945719DD
:1026D0004B015C012F2D3C2D4E2D522D0E94A81830
:1026E00088230CF078C0A5019401CA5FD84F688197
:1026F00079818A819B81C650D7400E940C1A9B0128
:10270000AC01C25FD84F688179818A819B81CE50AC
:10271000D7400E943C180E941F192A81A22F220F25
:10272000BB0B20E830E02A1B3B0B201731070CF4D1
:1027300050C09D0120583109021713070CF449C0FD
:102740002B81022E000C330BE0E4F0E0E21BF30BD4
:10275000E617F707F4F1F901E054F1096E177F0766
:10276000C4F14901860E971E94013595279535953C
:10277000279535952795A9015695542F44275795A8
:102780004795041B150B0A0F1B1F322F2227020F20
:10279000131F57E0852250E89522992054F481E0D8
:1027A000881A910898EF892A99249A94AFEF8A1A87
:1027B0009A0A81E090E002C0880F991F8A94E2F79C
:1027C000E4E0F0E0EC0FFD1FE00FF11F9081892B9A
:1027D0008083339474CFE72C752CC75ED84F488024
:1027E0005980C951D74020E030E0A901672D762DEE
:1027F0008E2D9D2D0E94071A18164CF0572D462D30
:102800003E2D2D2D712C612CE12CD12C04C050E0DB
:1028100040E030E020E0652F742F832F922F0E943C
:102820002619F62E0F2D10E0B801012E000C880B92
:10283000990B0E9457194B015C01272D362D4E2D07
:102840005D2D0E94A81888230CF0E2C2A501940116
:10285000C65FD84F688179818A819B81CA50D740F1
:102860000E940C1ACE5ED84F288139814A815B8143
:10287000C251D7400E943B180E941F192A81E22FA3
:10288000220FFF0B20E830E02E1B3F0B26173707E7
:102890000CF44AC09F0120583109621773070CF4E9
:1028A00043C02B81022E000C330B40E450E0421B4E
:1028B000530B40175107C4F1A901405451090417A3
:1028C000150794F1020F131F98013595279535953B
:1028D000279535952795A9015695542F4427579547
:1028E00047954B01841A950A8E0E9F1E322F222780
:1028F000820E931E07701078112334F401501109D1
:10290000086F1F6F0F5F1F4F81E090E002C0880FBC
:10291000991F0A95E2F7E4E0F0E0EC0FFD1FE80DE7
:10292000F91D9081892B8083F3947CCFC95ED84FA9
:10293000E881F981C751D740BF01FF0F880B990B80
:102940000E945719162F072FB82EA92EB101330C4C
:10295000880B990B0E945719362E272ECA5ED84F26
:102960008883C651D740692ECA5FD84F28813981E4
:10297000C650D740B901330F880B990B0E945719E5
:10298000F62ED72EC82EE92E262F372F482F592F57
:10299000612F702F8B2D9A2D0E94A8188823A9F1E2
:1029A000232D322DCA5ED84F4881C651D740562DAF
:1029B00060E070E08EEF92E40E943B18CA5FD84F4F
:1029C000688379838A839B83C650D7402F2D3D2D02
:1029D0004C2D5E2D612F702F8B2D9A2D0E943B1850
:1029E0009B01AC01CA5FD84F688179818A819B8144
:1029F000C650D7400E94AD18CA5FD84F688379830C
:102A00008A839B83C650D7400CC080E090E5A3EC3E
:102A1000B7E4CA5FD84F88839983AA83BB83C65023
:102A2000D74020E030E04EEF52E4632D722DCA5EB5
:102A3000D84F8881C651D740962D0E94A818882368
:102A4000A9F12F2D3D2D4C2D5E2D612F702F8B2D3B
:102A50009A2D0E943B18C65FD84F688379838A837A
:102A60009B83CA50D740232D322DCA5ED84F488150
:102A7000C651D740562D60E070E08EEF92E40E9480
:102A80003B189B01AC01C65FD84F688179818A8170
:102A90009B81CA50D7400E94AD18C65FD84F68834B
:102AA00079838A839B83CA50D7400CC020E030E4EE
:102AB0004CE156E4C65FD84F288339834A835B8351
:102AC000CA50D740CA5FD84F288139814A815B817B
:102AD000C650D7406F2D7D2D8C2D9E2D0E940C1A37
:102AE0009B01AC01632D722DCA5ED84F8881C651FF
:102AF000D740962D0E943B18C25FD84F68837983D8
:102B00008A839B83CE50D740C65FD84F28813981B6
:102B10004A815B81CA50D740632D722DCA5ED84F5F
:102B20008881C651D740962D0E940C1A2F2D3D2D1D
:102B30004C2D5E2D0E943B18CE5ED84F6883798362
:102B40008A839B83C251D7402F2D3D2D4C2D5E2D66
:102B5000612F702F8B2D9A2D0E94A818882364F066
:102B6000312F202F9B2D8A2D1F2D0D2DBC2CAE2CEF
:102B7000F32ED22EC92EE82E612F702F8B2D9A2D79
:102B80000E942619762E072D10E0B801012E000CA8
:102B9000880B990B0E9457194B015C012F2D3D2D7D
:102BA0004C2D5E2D0E94A81888230CF078C0A5013A
:102BB0009401CA5FD84F688179818A819B81C65010
:102BC000D7400E940C1A9B01AC01C25FD84F6881AC
:102BD00079818A819B81CE50D7400E943C180E9407
:102BE0001F192A81A22F220FBB0B20E830E02A1BDD
:102BF0003B0B201731070CF450C09D0120583109C0
:102C0000021713070CF449C02B81022E000C330B62
:102C1000E0E4F0E0E21BF30BE617F707F4F1F9014B
:102C2000E054F1096E177F07C4F14901860E971E23
:102C30009401359527953595279535952795A901C3
:102C40005695542F442757954795041B150B0A0F8B
:102C50001B1F322F2227020F131F37E0832230E879
:102C60009322992054F441E0841A910858EF852A60
:102C700099249A948FEF881A980A41E050E002C094
:102C8000440F551F8A94E2F7E4E0F0E0EC0FFD1FDB
:102C9000E00FF11F8081482B4083739474CF20E0B4
:102CA00030E04EEF52E4632D722DCA5ED84F88811A
:102CB000C651D740962D0E94071A1816ACF0532D16
:102CC000422DCA5ED84F3881C651D740262D312CAF
:102CD000212C9EEFCA5ED84F9883C651D7400F2E45
:102CE000F2E46F2EF02D04C050E040E03EEF22E40D
:102CF000652F742F832F922F0E942619F62ECA5EFD
:102D0000D84FE880C651D7400F2D10E0B801012EF2
:102D1000000C880B990B0E9457194B015C01232D65
:102D2000322D4E2D562D0E94A81888230CF070C00D
:102D3000A5019401C65FD84F688179818A819B8102
:102D4000CA50D7400E940C1ACE5ED84F28813981D4
:102D50004A815B81C251D7400E943B180E941F19D3
:102D60002A81E22F220FFF0B20E830E02E1B3F0BC1
:102D7000261737070CF44AC09F0120583109621703
:102D800073070CF443C02B81022E000C330B40E47C
:102D900050E0421B530B40175107C4F1A9014054A6
:102DA00051090417150794F1020F131F9801359567
:102DB00027953595279535952795A9015695542F33
:102DC0004427579547954B01841A950A8E0E9F1EEE
:102DD000322F2227820E931E07701078112334F4AD
:102DE00001501109086F1F6F0F5F1F4F81E090E0C6
:102DF00002C0880F991F0A95E2F7E4E0F0E0EC0FBB
:102E0000FD1FE80DF91D9081892B8083F3947CCF01
:102E1000C95ED84F88819981C751D74001968138C2
:102E200091050CF4E8C080E090E08115A4E09A07D9
:102E30004CF4E4E0F0E0EC0FFD1FE80FF91F108206
:102E40000196F3CFA0E0B0E0A031B1050CF070C066
:102E500060E070E0683071050CF068C0FB01EE0FB7
:102E6000FF1FEE0FFF1FEE0FFF1FAD01440F551F99
:102E7000440F551F440F551F8A81082E000C990BD3
:102E800020E830E0281B390B241735070CF44BC021
:102E90009C0120583109421753070CF444C02B8180
:102EA000022E000C330B00E410E0021B130B0E1774
:102EB0001F07CCF1890100541109E017F1079CF1BB
:102EC0002E0F3F1FF901F595E795F595E795F595D7
:102ED000E7958F011695102F002717950795401B32
:102EE000510B840F951FFE2FEE278E0F9F1F27700B
:102EF0003078332334F421503109286F3F6F2F5F2E
:102F00003F4F41E050E0FA0102C0EE0FFF1F2A954B
:102F1000E2F79F01E4E0F0E0EC0FFD1FE80FF91F7E
:102F20008081282B20836F5F7F4F94CF11968CCFA9
:102F300060E070E0603271050CF070C0AB01440FCE
:102F4000551F440F551F8A81082E000C990B20E84D
:102F500030E0281B390B241735070CF449C09C01BD
:102F600020583109421753070CF442C02B81022E1E
:102F7000000C330BE0E4F0E0E21BF30BB097C4F17C
:102F8000F901E054F109B1979CF5205E3F4FF9013A
:102F9000F595E795F595E795F595E795DF01B695F4
:102FA000BA2FAA27B795A7954A1B5B0B840F951FCD
:102FB000FE2FEE278E0F9F1F27703078332334F4B7
:102FC00021503109286F3F6F2F5F3F4F41E050E0A4
:102FD000DA0102C0AA0FBB1F2A95E2F79D01E4E0C7
:102FE000F0E0EC0FFD1FE80FF91F8081282B2083F4
:102FF0006F5F7F4F9FCFC95ED84FE881F981C7517E
:10300000D740CA5FD84FF983E883C650D740C95E1E
:10301000D84F99838883C751D7400CC0CA5FD84F17
:1030200019821882C650D740C95ED84F19821882BB
:10303000C751D7400E9441000E94460088E70E9485
:103040004C0080E40E944C0000E010E00115F4E028
:103050001F0764F4E4E0F0E0EC0FFD1FE00FF11F48
:1030600080810E944C000F5F1F4FF0CF0E945300E1
:1030700012010C9443065058BB27AA270E945318EC
:103080000C94CD190E94BF1938F00E94C61920F087
:1030900039F49F3F19F426F40C94BC190EF4E09512
:1030A000E7FB0C94B619E92F0E94DE1958F3BA1702
:1030B000620773078407950720F079F4A6F50C944E
:1030C000001A0EF4E0950B2EBA2FA02D0B01B901BA
:1030D00090010C01CA01A0011124FF27591B99F08E
:1030E000593F50F4503E68F11A16F040A22F232F9A
:1030F000342F4427585FF3CF469537952795A795EA
:10310000F0405395C9F77EF41F16BA0B620B730B90
:10311000840BBAF09150A1F0FF0FBB1F661F771F01
:10312000881FC2F70EC0BA0F621F731F841F48F4B6
:10313000879577956795B795F7959E3F08F0B0CF3F
:103140009395880F08F09927EE0F97958795089526
:103150000E94921908F481E008950E94C1180C940D
:10316000CD190E94C61958F00E94BF1940F029F4E9
:103170005F3F29F00C94B61951110C94011A0C946C
:10318000BC190E94DE1968F39923B1F3552391F31A
:10319000951B550BBB27AA2762177307840738F0C6
:1031A0009F5F5F4F220F331F441FAA1FA9F335D023
:1031B0000E2E3AF0E0E832D091505040E695001CD7
:1031C000CAF72BD0FE2F29D0660F771F881FBB1F91
:1031D000261737074807AB07B0E809F0BB0B802D6F
:1031E000BF01FF2793585F4F3AF09E3F510578F09B
:1031F0000C94B6190C94011A5F3FE4F3983ED4F393
:10320000869577956795B795F7959F5FC9F7880F6E
:10321000911D9695879597F90895E1E0660F771FC0
:10322000881FBB1F621773078407BA0720F0621B51
:10323000730B840BBA0BEE1F88F7E09508950E947C
:1032400026196894B1110C94011A08950E94E61988
:1032500088F09F5798F0B92F9927B751B0F0E1F057
:10326000660F771F881F991F1AF0BA95C9F714C007
:10327000B13091F00E94001AB1E008950C94001A48
:10328000672F782F8827B85F39F0B93FCCF3869540
:1032900077956795B395D9F73EF49095809570959D
:1032A00061957F4F8F4F9F4F0895E89409C097FB1A
:1032B0003EF490958095709561957F4F8F4F9F4F0D
:1032C0009923A9F0F92F96E9BB279395F695879551
:1032D00077956795B795F111F8CFFAF4BB0F11F414
:1032E00060FF1BC06F5F7F4F8F4F9F4F16C08823BB
:1032F00011F096E911C0772321F09EE8872F762FF1
:1033000005C0662371F096E8862F70E060E02AF031
:103310009A95660F771F881FDAF7880F969587951D
:1033200097F90895990F0008550FAA0BE0E8FEEFF2
:1033300016161706E807F907C0F012161306E40779
:10334000F50798F0621B730B840B950B39F40A2672
:1033500061F0232B242B252B21F408950A2609F450
:10336000A140A6958FEF811D811D089597F99F6754
:1033700080E870E060E008959FEF80EC08950024FD
:103380000A941616170618060906089500240A94CA
:1033900012161306140605060895092E0394000C50
:1033A00011F4882352F0BB0F40F4BF2B11F460FFDF
:1033B00004C06F5F7F4F8F4F9F4F089557FD905808
:1033C000440F551F59F05F3F71F04795880F97FBE9
:1033D000991F61F09F3F79F08795089512161306A3
:1033E0001406551FF2CF4695F1DF08C016161706D2
:1033F0001806991FF1CF8695710561050894089507
:10340000E894BB2766277727CB0197F908950E9498
:10341000921908F48FEF08950E941F1A0C94CD1989
:103420000E94BF1938F00E94C61920F0952311F0B0
:103430000C94B6190C94BC1911240C94011A0E9416
:10344000DE1970F3959FC1F3950F50E0551F629FF1
:10345000F001729FBB27F00DB11D639FAA27F00DED
:10346000B11DAA1F649F6627B00DA11D661F829F14
:103470002227B00DA11D621F739FB00DA11D621FF9
:10348000839FA00D611D221F749F3327A00D611D16
:10349000231F849F600D211D822F762F6A2F1124F8
:1034A0009F5750409AF0F1F088234AF0EE0FFF1F2B
:1034B000BB1F661F771F881F91505040A9F79E3F82
:1034C000510580F00C94B6190C94011A5F3FE4F397
:1034D000983ED4F3869577956795B795F795E795D8
:1034E0009F5FC1F7FE2B880F911D9695879597F9E1
:1034F0000895A29FB001B39FC001A39F700D811DCD
:103500001124911DB29F700D811D1124911D0895EC
:04351000F894FFCF5D
:043514002C00560031
:00000001FF
