S01B00004932435F535344313330365F446973706C61792E7372656303
S11300000C942A000C943F000C943F000C943F0085
S11300100C943F000C943F000C943F000C943F0060
S11300200C943F000C943F000C943F000C943F0050
S11300300C943F000C943F000C943F000C943F0040
S11300400C943F000C943F000C943F000C943F0030
S11300500C943F0011241FBECFE5D8E0DEBFCDBF16
S113006010E0A0E6B0E0E4E9FDE002C005900D92E6
S1130070AC36B107D9F70E940E010C94C8060C9453
S1130080000089E080B981B181B9089584EA86BF0E
S113009006B607FEFDCF089583B984E886BF06B689
S11300A007FEFDCF089584E986BF0895CF93DF93BB
S11300B0EC0186E69EE00197F1F700000E94410002
S11300C00E94460088810E944C0080E80E944C00F7
S11300D08EEA0E944C0080E80E944C0085ED0E944C
S11300E04C0080E80E944C0080E80E944C0088EAA2
S11300F00E944C008FE30E944C0080E80E944C0058
S113010083ED0E944C0080E00E944C0080E80E9435
S11301104C0080E40E944C0080E80E944C008AED70
S11301200E944C0082E10E944C0080E80E944C0036
S113013080E20E944C0080E00E944C0080E80E9413
S11301404C0081E20E944C0080E00E944C008FE74A
S11301500E944C0080E80E944C0082E20E944C0005
S113016080E00E944C0087E00E944C0080E80E94DE
S11301704C0081EA0E944C0080E80E944C0080EC14
S11301800E944C0080E80E944C0081E80E944C00D0
S11301908FEF0E944C0080E80E944C008BED0E947F
S11301A04C0080E40E944C0080E80E944C0089EDE1
S11301B00E944C0081EF0E944C0080E80E944C0099
S11301C08DE80E944C0084E10E944C0080E80E946B
S11301D04C0084EA0E944C0080E80E944C0086EAAD
S11301E00E944C0080E80E944C008FEA0E944C0060
S11301F00E94530086E69EE00197F1F700000E94FA
S113020041000E94460088810E944C0080E40E94C4
S11302104C000E945300DF91CF910895AF92BF929A
S1130220CF92DF92EF92FF920F931F93CF93DF93BE
S1130230CDB7DEB7CF50D7400FB6F894DEBF0FBEB0
S1130240CDBFFE01EC5FFB4F80E093E0DF019C013A
S11302501D9221503040E1F78AEFC553DB4F88836C
S1130260CB5CD440ECE7CC5DDA4FE883C452D54094
S11302700F2EFAE8FF2EF02DCB5DDA4FF882C5522F
S1130280D54022E9CA5DDA4F2883C652D540A2EA96
S1130290C95DDA4FA883C752D540C85DDA4FE883F9
S11302A0C852D54032E0C65DDA4F3883CA52D540D1
S11302B00F2EF2E4DF2EF02DC55DDA4FD882CB523B
S11302C0D5409EEFC45DDA4F9883CC52D540C35DD0
S11302D0DA4F3883CD52D540C25DDA4F3883CE52DF
S11302E0D54086E4C05DDA4F8883C053D540CF5CE7
S11302F0DA4FF882C153D540CE5CDA4F2883C2531B
S1130300D540CD5CDA4F2883C353D54086E6CC5C18
S1130310DA4F8883C453D540F4E4CA5CDA4FF883D7
S1130320C653D54082E8C95CDA4F8883C753D540A9
S1130330C85CDA4F2883C853D540C75CDA4F28839A
S1130340C953D5400F2EFCE6EF2EF02DC65CDA4FD4
S1130350E882CA53D54048E1C45CDA4F4883CC53A1
S1130360D540B8E2C35CDA4FB883CD53D54048E4F6
S1130370C25CDA4F4883CE53D54048E8C15CDA4FBB
S11303804883CF53D540C05CDA4F9883C054D540DE
S113039044EECE5BDA4F4883C254D540CD5BDA4F8E
S11303A0A883C354D540CC5BDA4FA883C454D5404A
S11303B0CB5BDA4FA883C554D5404CE9CA5BDA4F0E
S11303C04883C654D5400F2EFCE3AF2EF02DC85BF6
S11303D0DA4FA882C854D54042E5C75BDA4F488358
S11303E0C954D540C65BDA4F2883CA54D540C55B8F
S11303F0DA4F2883CB54D5401CE0C45BDA4F188312
S1130400CC54D54040ECC25BDA4F4883CE54D5403F
S113041050E8C15BDA4F5883CF54D5400F2EFEE825
S1130420BF2EF02DC05BDA4FB882C055D54040E9ED
S1130430CF5ADA4F4883C155D54060EECE5ADA4FD1
S11304406883C255D540CC5ADA4FE882C455D540AA
S1130450CB5ADA4F2883C555D540CA5ADA4F288378
S1130460C655D540C95ADA4F2883C755D540C85A0E
S1130470DA4FE882C855D54000E6C65ADA4F0883F9
S1130480CA55D540C55ADA4F2883CB55D540C45AEE
S1130490DA4F2883CC55D54064E9C35ADA4F6883D0
S11304A0CD55D5400F2EF8E7CF2EF02DC25ADA4F96
S11304B0C882CE55D54064E2CF59DA4F6883C1561D
S11304C0D540CA59DA4F3883C656D540C959DA4F90
S11304D06883C756D54070E1C459DA4F7883CC5647
S11304E0D540C359DA4FB883CD56D540C259DA4FF7
S11304F0F883CE56D540C159DA4F8883CF56D540BC
S1130500CE58DA4F6883C257D540CD58DA4F688346
S1130510C357D540CC58DA4F6883C457D540CB581D
S1130520DA4F6883C557D540C858DA4F8883C8570F
S1130530D540C758DA4FF883C957D540C658DA4F63
S1130540B883CA57D540C558DA4F7883CB57D540BE
S113055060E4C258DA4F6883CE57D540C158DA4FA9
S11305605883CF57D540C058DA4FF882C058D54089
S1130570CF57DA4F4883C158D540CE57DA4F088356
S1130580C258D540CC57DA4FA882C458D540CB576F
S1130590DA4FD882C558D5400F2EFAE5DF2EF02D5C
S11305A0CA57DA4FD882C658D5400F2EFAE4DF2E48
S11305B0F02DC957DA4FD882C758D5400F2EFAE329
S11305C0DF2EF02DC857DA4FD882C858D5400F2EE9
S11305D0FEE7DF2EF02DC657DA4FD882CA58D54031
S11305E0C557DA4F4883CB58D540C457DA4F4883B0
S11305F0CC58D540C357DA4F4883CD58D540C2575D
S1130600DA4FD882CE58D540C057DA4F9883C059B4
S1130610D540CF56DA4F2883C159D540CE56DA4F4C
S11306202883C259D540CD56DA4F2883C359D540C3
S1130630CC56DA4FE882C459D540CA56DA4FE8831B
S1130640C659D540C956DA4F8883C759D540C856CC
S1130650DA4F8883C859D540C756DA4F8883C959B9
S1130660D540C656DA4FF883CA59D540C456DA4F36
S11306709883CC59D540C356DA4F8883CD59D54099
S1130680C256DA4F8883CE59D540C156DA4F888393
S1130690CF59D540C056DA4FE883C05AD540CE551D
S11306A0DA4F9883C25AD540CD55DA4F2883C35ABE
S11306B0D540CC55DA4F2883C45AD540CB55DA4FB0
S11306C02883C55AD540CA55DA4F8883C65AD540BF
S11306D0C855DA4F9883C85AD540C755DA4F48836E
S11306E0C95AD540C655DA4F4883CA5AD540C5556C
S11306F0DA4F4883CB5AD540C455DA4F5883CC5A85
S1130700D540C255DA4FE883CE5AD540C155DA4FA9
S11307108883CF5AD540C055DA4F8883C05BD54013
S1130720CF54DA4FA883C15BD540FCEBCE54DA4FEB
S1130730F883C25BD540CC54DA4F9883C45BD54070
S1130740CB54DA4F7883C55BD540CA54DA4F7883EB
S1130750C65BD540C954DA4F7883C75BD540C854CB
S1130760DA4F9883C85BD540C554DA4F8883CB5B96
S1130770D540C454DA4F9883CC5BD540C354DA4F88
S11307808883CD5BD5406894EE24E2F8C054DA4FF8
S1130790E882C05CD540CF53DA4F3883C15CD54082
S11307A0CE53DA4F3883C25CD540CD53DA4F388309
S11307B0C35CD5400F2EFCEFDF2EF02DCC53DA4F67
S11307C0D882C45CD540CA53DA4F9883C65CD540FE
S11307D0F0E2C953DA4FF883C75CD540C853DA4F07
S11307E0F883C85CD5400F2EF0E5AF2EF02DC7532B
S11307F0DA4FA882C95CD540C653DA4FB882CA5CC6
S1130800D540C453DA4F9883CC5CD540C353DA4FF8
S11308103883CD5CD540C253DA4F3883CE5CD540A3
S1130820C153DA4F3883CF5CD540CE52DA4F988328
S1130830C25DD540CD52DA4F6883C35DD540CC52FA
S1130840DA4FF883C45DD540CB52DA4F6883C55D77
S1130850D540CA52DA4F9883C65DD540C852DA4FA4
S11308609883C85DD540C752DA4F6883C95DD540C7
S1130870C652DA4FF883CA5DD540C552DA4F788341
S1130880CB5DD540C452DA4F9883CC5DD540C2527B
S1130890DA4FE883CE5DD540C152DA4F8883CF5D0D
S11308A0D540C052DA4F8883C05ED540CF51DA4F6D
S11308B08883C15ED540CE51DA4FE883C25ED5400D
S11308C0CC51DA4F9883C45ED540CB51DA4F48837C
S11308D0C55ED540CA51DA4F4883C65ED540C9517A
S11308E0DA4F4883C75ED540C851DA4F0883C85EE3
S11308F0D540C651DA4FE883CA5ED540C551DA4FB8
S11309008883CB5ED540C451DA4F8883CC5ED54012
S1130910E4E8C351DA4FE883CD5ED540EAE7C2513B
S1130920DA4FE883CE5ED540C051DA4F9883C05F7A
S1130930D540CF50DA4F4883C15FD540CE50DA4F0F
S11309404883C25FD540CD50DA4F4883C35FD5405A
S11309504EE6CC50DA4F4883C45FD54044E6CA50D3
S1130960DA4F4883C65FD540C950DA4F2883C75F42
S1130970D540C850DA4F2883C85FD540C750DA4FF6
S11309802883C95FD5404CE4C650DA4F4883CA5F18
S1130990D540C450DA4F5883CC5FD540C350DA4FAA
S11309A05883CD5FD540C250DA4F9883CE5FD5408F
S11309B0C150DA4F5883CF5FD540C050DA4F5883C7
S11309C0C050D640CE5FD94FD882C250D640CD5FFA
S11309D0D94F3883C350D640CC5FD94F3883C450E5
S11309E0D640CB5FD94F3883C550D640CA5FD94F64
S11309F0D882C650D64040EFC85FD94F4883C8500C
S1130A00D640C75FD94F1883C950D640C65FD94F67
S1130A103883CA50D640C55FD94F1883CB50D640CF
S1130A20C45FD94F4883CC50D640C25FD94F988316
S1130A30CE50D640C15FD94FE882CF50D64048E06F
S1130A40C05FD94F4883C051D640CF5ED94FE882AA
S1130A50C151D640CE5ED94F9883C251D64046ECA0
S1130A60CC5ED94F4883C451D640CB5ED94FB883AE
S1130A70C551D640CA5ED94F7883C651D640C95EA7
S1130A80D94FB883C751D640C85ED94F4883C8519F
S1130A90D640C65ED94F5883CA51D640C55ED94F99
S1130AA06883CB51D6404EE3C45ED94F4883CC51C2
S1130AB0D640C35ED94F6883CD51D640C25ED94F6C
S1130AC05883CE51D64046E8C05ED94F4883C052C1
S1130AD0D640CF5DD94FF882C152D640CE5DD94FB2
S1130AE02883C252D640CD5DD94FA883C352D64085
S1130AF022ECCC5DD94F2883C452D640C95DD94F6E
S1130B009883C752D640C85DD94F8883C852D6400F
S1130B10C75DD94F8883C952D640C45DD94F588325
S1130B20CC52D640C35DD94F0883CD52D640C25D66
S1130B30D94F7883CE52D640C15DD94F1883CF5256
S1130B40D640C05DD94F3883C053D640CD5CD94F11
S1130B508883C353D640CC5CD94F8883C453D640D2
S1130B60CB5CD94F9883C553D640C85CD94FF88322
S1130B70C853D640C75CD94F6883C953D640C65CB6
S1130B80D94F5883CA53D640C55CD94F6883CB53D9
S1130B90D640C45CD94FF883CC53D64081E0C25CC4
S1130BA0D94F8883CE53D640C15CD94F8883CF5365
S1130BB0D640C05CD94F8883C054D640CF5BD94F50
S1130BC08883C154D640CE5BD94F8883C254D64063
S1130BD0C9821A821B82CE0101960E94560080E0CF
S1130BE090E0811534E093074CF4E4E0F0E0EC0F7E
S1130BF0FD1FE80FF91F10820196F3CF60E070E04B
S1130C00603171050CF048C0A0E0B0E0A830B10537
S1130C100CF03FC0162F80E1A89F100D112440E076
S1130C2050E0463051059CF59B01220F331F260FDF
S1130C30371F220F331FCA01820F931F27E030E0B2
S1130C402A1B3B0B3695322F222737952795280FE1
S1130C50391F812F90E0FC01EE0FFF1FE80FF91FF1
S1130C60EE0FFF1F81E090E08C0F9D1FE80FF91F2E
S1130C70E40FF51FED5FFB4F8081E4E0F0E0EC0F43
S1130C80FD1FE20FF31F80834F5F5F4FCACF1196A2
S1130C90BDCF6F5F7F4FB4CF8CE0E0E6F0E0DE01C4
S1130CA0AC5FB84F01900D928A95E1F7A0E0B0E0F7
S1130CB060E070E06C307105CCF5E4E0F7E0EC0F37
S1130CC0FD1FEA0FFB1F108140E050E04630510544
S1130CD04CF59B01220F331F260F371F220F331FA2
S1130CE0240F351F20583C4F812F90E0FC01EE0F5C
S1130CF0FF1FE80FF91FEE0FFF1F81E090E08C0F3C
S1130D009D1FE80FF91FE40FF51FED5FFB4F808176
S1130D10E4E0F0E0EC0FFD1FE20FF31F80834F5F70
S1130D205F4FD4CF6F5F7F4F1196C4CF0E944100B5
S1130D300E94460088E70E944C0080E40E944C0018
S1130D4000E010E0011594E0190764F4E4E0F0E039
S1130D50EC0FFD1FE00FF11F80810E944C000F5F1C
S1130D601F4FF0CF0E94530080E090E0C15FD84F46
S1130D700FB6F894DEBF0FBECDBFDF91CF911F91A8
S1130D800F91FF90EF90DF90CF90BF90AF900895B8
S1070D90F894FFCF01
S10F0D9448454C4C4F20574F524C442112
S9030000FC
