S01B00004932435F535344313330365F446973706C61792E7372656303
S11300000C942A000C9447000C9447000C9447006D
S11300100C9447000C9447000C9447000C94470040
S11300200C9447000C9447000C9447000C94470030
S11300300C9447000C9447000C9447000C94470020
S11300400C9447000C9447000C9447000C94470010
S11300500C94470011241FBECFE5D8E0DEBFCDBF0E
S113006020E0A4E6B0E001C01D92A436B207E1F797
S113007010E0A0E6B0E0E0ECF6E002C005900D92DE
S1130080A436B107D9F70E9403010C945E030C94C3
S113009000008AE080B981B181B9089584EA86BFFD
S11300A006B607FEFDCF089583B984E886BF06B679
S11300B007FEFDCF089584E986BF089584E986BFCD
S11300C00895CF93DF93EC018FEF9FE80197F1F749
S11300D000C000000E9449000E944E0088810E94D6
S11300E0540080E80E9454008EEA0E94540080E884
S11300F00E94540085ED0E94540080E80E94540040
S113010080E80E94540088EA0E9454008FE30E9411
S1130110540080E80E94540080EC0E94540080E85F
S11301200E94540083ED0E94540080E00E94540019
S113013080E80E94540080E40E94540080E80E94F9
S113014054008AED0E94540082E00E94540080E82A
S11301500E9454008DE80E94540084E10E945400DF
S113016080E80E94540080E20E94540080E00E94D3
S1130170540080E80E94540080EA0E94540080E801
S11301800E94540081E80E9454008FEC0E945400A5
S113019080E80E94540089ED0E94540081EF0E947F
S11301A0540080E80E9454008BED0E94540080E4C7
S11301B00E94540080E80E94540084EA0E94540083
S11301C080E80E94540086EA0E94540080E80E945D
S11301D054008FEA0E9454000E945E008FEF9FE853
S11301E00197F1F700C000000E9449000E944E00F0
S11301F088810E94540080E40E9454000E945E00A2
S1130200DF91CF910895CF93DF93CDB7DEB72797D2
S11302100FB6F894DEBF0FBECDBF80E094E09D839F
S11302208C8388E7898380E48A8380E18B8380E000
S113023090E0811524E092073CF4EE81FF81E80F01
S1130240F91F10820196F5CFEE81FF818FEF808335
S1130250EE81FF8181E08183EE81FF8182838E8143
S11302609F81FC01E350FE4F20E8208331962083D8
S113027031962AEA2083CE0101960E9461000E94F1
S1130280EB0264E670E00E9477027C010E94EB02BC
S11302908F719078992324F40197806E9F6F019653
S11302A08C01005111090E94EB028F7790789923F9
S11302B024F4019780689F6F01968054910901315D
S11302C01105D0F5EE81FF814B81042E000C550BF6
S11302D0401B510B9A0112F4295F3F4F3595279526
S11302E035952795359527954A813695322F2227BE
S11302F037952795280F391F240F311D47FD3A954F
S1130300E20FF31F980127703078332334F421501F
S11303103109286F3F6F2F5F3F4F48E050E0421B89
S1130320530B21E030E002C0220F331F4A95E2F75D
S11303303081232B208340C09801205F3F4F203120
S11303403105D0F5EE81FF814B81042E000C550B55
S1130350401B510B9A0112F4295F3F4F35952795A5
S113036035952795359527954A813695322F22273D
S113037037952795280F391F240F311D47FD3A95CE
S1130380E20FF31F22273327201B310B277030780D
S1130390332334F421503109286F3F6F2F5F3F4FCF
S11303A041E050E0BA0102C0660F771F2A95E2F7D8
S11303B09B013081232B2083980127703327232B23
S11303C021F598012850310928303105F0F4EE81E7
S11303D0FF8140E150E0401B510B9A0112F4295F68
S11303E03F4F35952795359527953595279536951E
S11303F0322F222737952795280F391F205C3F4F2E
S1130400E20FF31F20812160208301151105F1F40F
S1130410EE81FF8140E150E0401B510B9A0112F440
S1130420295F3F4F35952795359527953595279520
S11304303695322F222737952795820F931F805C9C
S11304409F4FE80FF91F8081816080830E944900DB
S11304500E944E0088E70E94540080E40E945400E9
S113046000E010E0011574E0170754F4EE81FF81F9
S1130470E00FF11F80810E9454000F5F1F4FF2CFE5
S11304800E945B000E94EB0264E670E00E94770227
S1130490E816F90609F0FACE80E090E02C813D815F
S11304A0821793073CF4EE81FF81E80FF91F108255
S11304B00196F4CF0E9449000E944E0088E70E94F2
S11304C0540080E40E94540000E010E0011584E030
S11304D0180754F4EE81FF81E00FF11F80810E9420
S11304E054000F5F1F4FF2CF0E945B00CFCE97FBEB
S11304F0072E16F4009407D077FD09D00E948B02D2
S113050007FC05D03EF4909581959F4F0895709512
S113051061957F4F0895AA1BBB1B51E107C0AA1F19
S1130520BB1FA617B70710F0A61BB70B881F991F90
S11305305A95A9F780959095BC01CD0108958F92A5
S11305409F92AF92BF92CF92DF92EF92FF92CF939E
S1130550DF93EC01688179818A819B816115710542
S11305608105910521F464E279ED8BE597E02DE1B5
S113057033EF41E050E00E94FB0249015A019B0124
S1130580AC01A7EAB1E40E941A036B017C01ACEE52
S1130590B4EFA50194010E942803DC01CB018C0D6A
S11305A09D1DAE1DBF1DB7FF03C00197A109B04833
S11305B088839983AA83BB839F77DF91CF91FF9030
S11305C0EF90DF90CF90BF90AF909F908F90089561
S11305D00E949F02089580E690E00E949F02089581
S11305E0A0E0B0E08093600090936100A09362006B
S11305F0B09363000895052E97FB1EF400940E94A7
S1130600120357FD07D00E942D0307FC03D04EF4BC
S11306100C94120350954095309521953F4F4F4FC0
S11306205F4F089590958095709561957F4F8F4F9A
S11306309F4F08950E944F03A59F900DB49F900D66
S1130640A49F800D911D11240895B7FF0C941A03E3
S11306500E941A03821B930B0895A1E21A2EAA1B6F
S1130660BB1BFD010DC0AA1FBB1FEE1FFF1FA2175E
S1130670B307E407F50720F0A21BB30BE40BF50B5B
S1130680661F771F881F991F1A9469F760957095E4
S1130690809590959B01AC01BD01CF010895A29F67
S11306A0B001B39FC001A39F700D811D1124911D42
S11306B0B29F700D811D1124911D0895F894FFCFF0
S10706C00100000031
S9030000FC
