:100000000C942A000C9434000C9434000C943400AA
:100010000C9434000C9434000C9434000C94340090
:100020000C9434000C9434000C9434000C94340080
:100030000C9434000C9434000C9434000C94340070
:100040000C9434000C9434000C9434000C94340060
:100050000C94340011241FBECFE5D8E0DEBFCDBF25
:100060000E94E1010C9414070C94000089E080B90F
:1000700081B181B9089584EA86BF06B607FEFDCF37
:10008000089583B984E886BF06B607FEFDCF0895BC
:1000900084E986BF0895CF93DF93EC0186E69EE066
:1000A0000197F1F700000E9436000E943B00888112
:1000B0000E94410080E80E9441008EEA0E944100B7
:1000C00080E80E94410085ED0E94410080E80E9486
:1000D000410080E80E94410088EA0E9441008FE3CD
:1000E0000E94410080E80E94410080EC0E94410093
:1000F00080E80E94410083ED0E94410080E00E9460
:10010000410080E80E94410080E40E94410080E8B4
:100110000E9441008AED0E94410082E00E9441005D
:1001200080E80E9441008DE80E94410084E10E9425
:10013000410080E80E94410080E20E94410080E08E
:100140000E94410080E80E94410081E20E9441003B
:1001500080E00E9441008FE70E94410080E80E94F9
:10016000410082E20E94410080E00E94410087E05D
:100170000E94410080E80E94410080EA0E94410004
:1001800080E80E94410081E80E9441008FEF0E94B8
:10019000410080E80E94410089ED0E94410081EF0A
:1001A0000E94410080E80E9441008BED0E944100C6
:1001B00080E40E94410080E80E94410084EA0E949D
:1001C000410080E80E94410086EA0E94410080E8E8
:1001D0000E9441008FEA0E9441000E94480086E68A
:1001E0009EE00197F1F700000E9436000E943B005C
:1001F00088810E94410080E40E9441000E944800E2
:10020000DF91CF910895DC011296EC9112970E2E9A
:10021000000CFF0B9A012E1B3F0B2830310594F583
:10022000E41BF50BAF0112F4495F5F4FFA01F5953E
:10023000E795F595E795F595E79511968C911197CA
:10024000F695FE2FEE27F795E795E60FF71FE80FD7
:10025000F11D87FDFA9527703078332334F421504F
:100260003109286F3F6F2F5F3F4F81E090E002C060
:10027000880F991F2A95E2F7EA0FFB1F9381892BBC
:10028000838308952031310594F5E41BF50BCF01EC
:100290000AF40796FC01F595E795F595E795F59530
:1002A000E79511968C911197F695FE2FEE27F7950D
:1002B000E795E60FF71FE80FF11D87FDFA95F39517
:1002C00027703078332334F421503109286F3F6F81
:1002D0002F5F3F4F81E090E002C0880F991F2A9561
:1002E000E2F7EA0FFB1F9381892B8383089528315E
:1002F000310594F5E41BF50BCF010AF40796FC01D8
:10030000F595E795F595E795F595E79511968C9117
:100310001197F695FE2FEE27F795E795E60FF71F55
:10032000E80FF11D87FDFA95FE5F277030783323C3
:1003300034F421503109286F3F6F2F5F3F4F81E028
:1003400090E002C0880F991F2A95E2F7EA0FFB1F81
:100350009381892B83830895203231058CF5E41B2A
:10036000F50BCF010AF40796FC01F595E795F59595
:10037000E795F595E79511968C911197F695FE2FD7
:10038000EE27F795E795E60FF71FE80FF11D87FDBC
:10039000FA95FD5F27703078332334F4215031090A
:1003A000286F3F6F2F5F3F4F81E090E002C0880FC2
:1003B000991F2A95E2F7EA0FFB1F9381892B83830C
:1003C00008950F931F93CF93DF93CDB7DEB7C3503C
:1003D000D4400FB6F894DEBF0FBECDBF88E7898347
:1003E00085E08A838BEF8B8380E090E0811524E0A9
:1003F00092074CF4E4E0F0E0EC0FFD1FE80FF91F6A
:1004000010820196F3CFCE0101960E944B0060E06E
:1004100070E0603871050CF0D1C14B81042E000CE6
:10042000550B88279927841B950B88309105A4F5D7
:100430009A01552314F4295F3F4FF901F595E7958B
:10044000F595E795F595E7952A81F695FE2FEE2728
:10045000F795E795E60FF71FE20FF11D27FDFA95D7
:100460009C0127703078332334F421503109286FF0
:100470003F6F2F5F3F4F81E090E002C0880F991FD0
:100480002A95E2F744E050E04C0F5D1FE40FF51FA2
:100490009081892B8083A6C080319105ACF59A01AB
:1004A000552314F4295F3F4FF901F595E795F5952C
:1004B000E795F595E7952A81F695FE2FEE27F795B6
:1004C000E795E60FF71FE20FF11D27FDFA95F3956B
:1004D0009C0127703078332334F421503109286F80
:1004E0003F6F2F5F3F4F81E090E002C0880F991F60
:1004F0002A95E2F724E030E02C0F3D1FE20FF31FB6
:100500009081892B80836EC088319105ACF59A016A
:10051000552314F4295F3F4FF901F595E795F595BB
:10052000E795F595E7952A81F695FE2FEE27F79545
:10053000E795E60FF71FE20FF11D27FDFA95FE5F25
:100540009C0127703078332334F421503109286F0F
:100550003F6F2F5F3F4F81E090E002C0880F991FEF
:100560002A95E2F744E050E04C0F5D1FE40FF51FC1
:100570009081892B808336C0803291059CF59A0149
:10058000552314F4295F3F4FF901F595E795F5954B
:10059000E795F595E7952A81F695FE2FEE27F795D5
:1005A000E795E60FF71FE20FF11D27FDFA95FD5FB6
:1005B00087709078992324F40197886F9F6F019634
:1005C00021E030E0A90102C0440F551F8A95E2F7EF
:1005D000CA0124E030E02C0F3D1FE20FF31F908191
:1005E000892B80832B81022E000C330B8FE190E04E
:1005F000821B930B88309105ACF52F513109A9016D
:1006000012F4495F5F4FFA01F595E795F595E79587
:10061000F595E7952A81F695FE2FEE27F795E79554
:10062000E60FF71FE20FF11D27FDFA959C012770D9
:100630003078332334F421503109286F3F6F2F5F16
:100640003F4F81E090E002C0880F991F2A95E2F7A2
:1006500044E050E04C0F5D1FE40FF51F9081892BA3
:100660008083A9C080319105B4F52F513109A901CA
:1006700012F4495F5F4FFA01F595E795F595E79517
:10068000F595E7952A81F695FE2FEE27F795E795E4
:10069000E60FF71FE20FF11D27FDFA95F3959C0178
:1006A00027703078332334F421503109286F3F6F9D
:1006B0002F5F3F4F81E090E002C0880F991F2A957D
:1006C000E2F724E030E02C0F3D1FE20FF31F908192
:1006D000892B808370C088319105B4F52F51310981
:1006E000A90112F4495F5F4FFA01F595E795F59579
:1006F000E795F595E7952A81F695FE2FEE27F79574
:10070000E795E60FF71FE20FF11D27FDFA95FE5F53
:100710009C0127703078332334F421503109286F3D
:100720003F6F2F5F3F4F81E090E002C0880F991F1D
:100730002A95E2F744E050E04C0F5D1FE40FF51FEF
:100740009081892B808337C080329105A4F52F5189
:100750003109A90112F4495F5F4FFA01F595E79558
:10076000F595E795F595E7952A81F695FE2FEE2705
:10077000F795E795E60FF71FE20FF11D27FDFA95B4
:10078000FD5F87709078992324F40197886F9F6F9D
:10079000019621E030E0A90102C0440F551F8A955F
:1007A000E2F7CA0124E030E02C0F3D1FE20FF31FF7
:1007B0009081892B80836F5F7F4F2BCE40E050E08C
:1007C000403251050CF0CBC12B81022E000C330BB3
:1007D000CA01821B930B883091059CF5241B350BB5
:1007E000B90112F4695F7F4FFB01F595E795F59527
:1007F000E795F595E7952A81F695FE2FEE27F79573
:10080000E795E20FF11D27FDFA959C0127703078DE
:10081000332334F421503109286F3F6F2F5F3F4F4E
:1008200081E090E002C0880F991F2A95E2F764E00A
:1008300070E06C0F7D1FE60FF71F9081892B80837E
:10084000A3C080319105A4F5241B350BB90112F426
:10085000695F7F4FFB01F595E795F595E795F59570
:10086000E7952A81F695FE2FEE27F795E795E20F9B
:10087000F11D27FDFA95F3959C01277030783323FD
:1008800034F421503109286F3F6F2F5F3F4F81E0D3
:1008900090E002C0880F991F2A95E2F724E030E02B
:1008A0002C0F3D1FE20FF31F9081892B80836CC0BA
:1008B00088319105A4F5241B350BB90112F4695F49
:1008C0007F4FFB01F595E795F595E795F595E7954C
:1008D0002A81F695FE2FEE27F795E795E20FF11D99
:1008E00027FDFA95FE5F9C0127703078332334F49E
:1008F00021503109286F3F6F2F5F3F4F81E090E01B
:1009000002C0880F991F2A95E2F764E070E06C0F2F
:100910007D1FE60FF71F9081892B808335C08032C1
:10092000910594F5241B350BB90112F4695F7F4FD3
:10093000FB01F595E795F595E795F595E7952A81FE
:10094000F695FE2FEE27F795E795E20FF11D27FDAF
:10095000FA95FD5F87709078992324F40197886F4A
:100960009F6F019621E030E0B90102C0660F771F4A
:100970008A95E2F7CB0124E030E02C0F3D1FE20F17
:10098000F31F9081892B80832B81022E000C330B67
:10099000CA01821B930B88309105ACF5241B350BE3
:1009A000B90112F4695F7F4FFB01F595E795F59565
:1009B000E795F595E7952A81F695FE2FEE27F795B1
:1009C000E795E158FF4FE20FF11D27FDFA959C01D5
:1009D00027703078332334F421503109286F3F6F6A
:1009E0002F5F3F4F81E090E002C0880F991F2A954A
:1009F000E2F764E070E06C0F7D1FE60FF71F908157
:100A0000892B8083A9C080319105B4F5241B350B57
:100A1000B90112F4695F7F4FFB01F595E795F595F4
:100A2000E795F595E7952A81F695FE2FEE27F79540
:100A3000E795E158FF4FE20FF11D27FDFA95F39579
:100A40009C0127703078332334F421503109286F0A
:100A50003F6F2F5F3F4F81E090E002C0880F991FEA
:100A60002A95E2F724E030E02C0F3D1FE20FF31F40
:100A70009081892B808370C088319105B4F5241B47
:100A8000350BB90112F4695F7F4FFB01F595E795CE
:100A9000F595E795F595E7952A81F695FE2FEE27D2
:100AA000F795E795E158FF4FE20FF11D27FDFA9505
:100AB000FE5F9C0127703078332334F421503109D4
:100AC000286F3F6F2F5F3F4F81E090E002C0880F9B
:100AD000991F2A95E2F764E070E06C0F7D1FE60F26
:100AE000F71F9081892B808337C080329105A4F550
:100AF000241B350BB90112F4695F7F4FFB01F5959B
:100B0000E795F595E795F595E7952A81F695FE2FFA
:100B1000EE27F795E795E158FF4FE20FF11D27FD0E
:100B2000FA95FD5F87709078992324F40197886F78
:100B30009F6F019621E030E0B90102C0660F771F78
:100B40008A95E2F7CB0124E030E02C0F3D1FE20F45
:100B5000F31F9081892B80834F5F5F4F31CEE0E0A0
:100B6000F0E0E038F1050CF0F3C060E070E06032D6
:100B700071050CF0EBC02B81022E000C330BCB0166
:100B8000821B930B88309105ACF5261B370BA9010E
:100B900012F4495F5F4FDA01B595A795B595A79512
:100BA000B595A7952A81B695BA2FAA27B795A79587
:100BB000AE0FBF1FA20FB11D27FDBA959C01277074
:100BC0003078332334F421503109286F3F6F2F5F81
:100BD0003F4F81E090E002C0880F991F2A95E2F70D
:100BE00044E050E04C0F5D1FA40FB51F9C91892B72
:100BF0008C93A9C080319105B4F5261B370BA90150
:100C000012F4495F5F4FDA01B595A795B595A795A1
:100C1000B595A7952A81B695BA2FAA27B795A79516
:100C2000AE0FBF1FA20FB11D27FDBA95B3959C0152
:100C300027703078332334F421503109286F3F6F07
:100C40002F5F3F4F81E090E002C0880F991F2A95E7
:100C5000E2F724E030E02C0F3D1FA20FB31F9C9160
:100C6000892B8C9370C088319105B4F5261B370B06
:100C7000A90112F4495F5F4FDA01B595A795B595C3
:100C8000A795B595A7952A81B695BA2FAA27B795A6
:100C9000A795AE0FBF1FA20FB11D27FDBA95BE5F6E
:100CA0009C0127703078332334F421503109286FA8
:100CB0003F6F2F5F3F4F81E090E002C0880F991F88
:100CC0002A95E2F744E050E04C0F5D1FA40FB51FDA
:100CD0009C91892B8C9337C080329105A4F5261BFB
:100CE000370BA90112F4495F5F4FDA01B595A7955B
:100CF000B595A795B595A7952A81B695BA2FAA2738
:100D0000B795A795AE0FBF1FA20FB11D27FDBA95CE
:100D1000BD5F87709078992324F40197886F9F6F47
:100D2000019621E030E0A90102C0440F551F8A95C9
:100D3000E2F7CA0124E030E02C0F3D1FA20FB31FE1
:100D40009C91892B8C93685F7F4F11CF389609CF88
:100D50004EE050E060E470E0CE0101960E94030195
:100D60004FE050E060E470E0CE0101960E94030184
:100D700041E150E060E470E0CE0101960E94030181
:100D800042E150E060E470E0CE0101960E94030170
:100D900040E150E06EE370E0CE0101960E94030155
:100DA00040E150E06FE370E0CE0101960E94030144
:100DB00040E150E061E470E0CE0101960E94030141
:100DC00040E150E062E470E0CE0101960E94030130
:100DD0000E9436000E943B0088E70E94410080E4A8
:100DE0000E94410000E010E0011534E0130764F4B4
:100DF000E4E0F0E0EC0FFD1FE00FF11F80810E94A6
:100E000041000F5F1F4FF0CF0E94480080E090E04C
:100E1000CD5FDB4F0FB6F894DEBF0FBECDBFDF91C5
:0C0E2000CF911F910F910895F894FFCF1F
:00000001FF
