:100000000C942B000C9453000C9453000C9453004C
:100010000C9453000C9453000C9453000C94CB0597
:100020000C9453000C9453000C9453000C94530004
:100030000C9453000C9453000C9453000C945300F4
:100040000C9453000C9453000C9453000C945300E4
:100050000C945300050911241FBECFE5D8E0DEBF84
:10006000CDBF13E0A0E6B0E0EEE0F7E102C00590FE
:100070000D92A638B107D9F723E0A6E8B3E001C096
:100080001D92AE38B207E1F710E0CBE2D0E004C039
:100090002197FE010E944A0BCA32D107C9F70E947C
:1000A000AD050C94850B0C940000CF92DF92EF927B
:1000B000FF92CF93019731F56F3F7F4F19F5E6E639
:1000C000F0E0C081618170E080E090E00E94260A4B
:1000D00020E030E040E752E40E947E096B017C01A1
:1000E0006C2F70E080E090E00E94260AA701960144
:1000F0000E940D096093890370938A0380938B0398
:1001000090938C03CF91FF90EF90DF90CF90089564
:1001100095B3926095BB8FB9779BFECF089595B349
:100120009D7F95BB8FB9779BFECF089585B3846083
:1001300085BB2FEF8FEF98E0215080409040E1F792
:1001400000C0000085B38B7F85BB2FEF8FE392E06B
:10015000215080409040E1F700C0000085B38460EA
:1001600085BB2FEF8FEF98E0215080409040E1F762
:1001700000C0000081E00E948F008FEF9FE8019790
:10018000F1F700C0000081E10E948F008FEF9FE82F
:100190000197F1F700C000008AE30E948F0086E01B
:1001A0000E9488008FEF9FE80197F1F700C00000E0
:1001B00086E30E948F0080E00E9488008FEF9FE816
:1001C0000197F1F700C000008AE20E948F0080E0F2
:1001D0000E94880080E00E94880080E00E948800E1
:1001E00080EF0E9488008FEF9FE80197F1F700C031
:1001F00000008BE20E948F0080E00E94880080E077
:100200000E94880080E00E94880080EF0E948800A1
:100210008FEF9FE80197F1F700C0000081E20E9494
:100220008F008FEF9FE80197F1F700C0000089E28F
:100230000E948F008FEF9FE80197F1F700C0000048
:100240000895CF92DF92FF920F931F93CF93DF9386
:10025000813F08F043C0613F08F040C0122FF42EE8
:10026000D62FC82F8AE20E948F00CC2ED12C80E09E
:100270000E9488008C2F0E9488008FEFC81AD80A2D
:100280008D2D0E94880081E08C0F0E9488008BE2F7
:100290000E948F00CD2ED12C80E00E9488008D2FEF
:1002A0000E9488008FEFC81AD80A8D2D0E948800FE
:1002B00081E08D0F0E9488008CE20E948F008F2DBC
:1002C000880F880F0E948800812F880F880F0E9456
:1002D0008800802F880F880F0E948800DF91CF91BF
:1002E0001F910F91FF90DF90CF9008952F923F9232
:1002F0004F925F926F927F928F929F92AF92BF9236
:10030000CF92DF92EF92FF920F931F93CF93DF93E1
:10031000CDB7DEB769970FB6F894DEBF0FBECDBF7D
:10032000962E798B8A8B9B8B2C8B3D8B4E8B5F8B88
:10033000188F6A2C5B2C4C2CD98E282C7EA43FA4C1
:10034000262F372F482F592F6E2D7F2D802F912F3D
:100350000E947909882309F12C893D894E895F899A
:100360006A2D7B2D8C2D9D2D0E940C095B016C014B
:10037000292D39894A895B896E2D7F2D802F912FF8
:100380000E940C099B01AC01C601B5010E947E09C7
:1003900069837A838B839C8308C080E090E0AAE71E
:1003A000B4E489839A83AB83BC832C893D894E89CD
:1003B0005F89662D752D842D998D0E94790988237A
:1003C00009F1292D39894A895B896E2D7F2D802F6E
:1003D000988D0E940C095B016C012C893D894E8926
:1003E0005F89662D752D842D998D0E940C099B01C6
:1003F000AC01C601B5010E947E096D837E838F83A7
:10040000988708C080E090E0AAE7B4E48D839E83DB
:10041000AF83B887292D39894A895B8969817A81B7
:100420008B819C810E94DD0A9B01AC016C897D89D6
:100430008E899F890E940C0969877A878B879C87A0
:100440002C893D894E895F896D817E818F81988558
:100450000E94DD0A292D39894A895B890E940C098D
:100460006D877E878F87988B292D39894A895B898B
:100470006E2D7F2D802F988D0E94790988236CF432
:10048000392D29899A898B899E2CF98A0A8BA88D06
:10049000AB8BE32EF22E092F888F692D79898A89FB
:1004A0009B890E94F709162FBE2CAF2C802E988CAA
:1004B000612F70E080E090E00E94280A6B017C01CF
:1004C0009B01AC016B2D7A2D882D992D0E94D80AA5
:1004D0001816D4F4A701960169817A818B819C81D9
:1004E0000E94DD0A9B01AC0169857A858B859C851C
:1004F0000E940D090E94F009032D272D422D812F06
:100500000E9421011F5FD4CF2C893D894E895F89CC
:10051000662D752D842D998D0E94790988236CF4A0
:100520003C892D899E898F896C8A5D8A4E8AB98D16
:10053000BF8B632E522E492E898F6C897D898E89BF
:100540009F890E94F709162FB98C612F70E080E017
:1005500090E00E94280A6B017C019B01AC01662D92
:10056000752D842D9B2D0E94D80A1816CCF4A70156
:1005700096016D817E818F8198850E94DD0A2D858F
:100580003E854F8558890E940C090E94F009862FEC
:10059000032D272D422D612F0E9421011F5FD5CFF2
:1005A00069960FB6F894DEBF0FBECDBFDF91CF9135
:1005B0001F910F91FF90EF90DF90CF90BF90AF9081
:1005C0009F908F907F906F905F904F903F902F9073
:1005D0000895EF92FF920F931F93CF93DF93E82E2E
:1005E000F62E142FD0E0D03F70F4C0E0C03F48F4A6
:1005F000012F2F2D4E2D6C2F8D2F0E942101CF5FAB
:10060000F5CFDF5FF0CFDF91CF911F910F91FF907A
:10061000EF9008958F929F92AF92BF92CF92DF9208
:10062000EF92FF920F931F93CF93DF93F82EEB017E
:100630006A01822E902E10E0163008F04FC0A12CD7
:10064000B12C68E0A616B104BCF58F2D90E0FC013A
:10065000EE0FFF1FE80FF91FEE0FFF1FEA57FF4FC6
:10066000E10FF11D408128E030E02A193B0981E0CB
:1006700090E0FC0102C0EE0FFF1F2A95E2F7842FE5
:1006800090E08E239F23892B51F0F60160816A0D43
:100690000E2D292D482D88810E94210109C0F601C7
:1006A00060816A0D00E020E040E088810E94210125
:1006B000FFEFAF1ABF0AC5CF88818F5F8883803F65
:1006C00028F01882F6018081885F8083F60180819E
:1006D000803F10F0188210821F5FAECFDF91CF9164
:1006E0001F910F91FF90EF90DF90CF90BF90AF9050
:1006F0009F908F9008958F929F92AF92BF92CF92CA
:10070000DF92EF920F93CF936C014B015A01C0E03F
:10071000F601EC0FF11D8081882361F00F2EFDE3BF
:10072000EF2EF02D0DE32DE3A501B4010E940A0385
:10073000CF5FEECFCF910F91EF90DF90CF90BF9032
:10074000AF909F908F90089587B3806B87BB88B3DD
:10075000806F88BB8CE58DB981E08EB984B38460ED
:1007600084BB85B3846085BB84B3826084BB85B35E
:10077000826085BB8EE398E39BBD8ABD84EF91E0E8
:100780009BBD8ABD8FB58FBD8EB58D608EBD89B77F
:10079000806189BF8CB780688CBF83B7896683BF4F
:1007A00087B3886087BB08951F93CF93DF9300D0F2
:1007B000CDB7DEB7F894198280916100865F8A8395
:1007C00010E0183120F58BEA189F812D11248695B1
:1007D000982F990F890F181318C04AE066E873E044
:1007E000812F90E00E94500B912F990F892F880F35
:1007F000880F890F8983AE014E5F5F4FBE016F5F27
:100800007F4F86E893E00E947B031F5FDACF7894E6
:100810000F900F90DF91CF911F9108954F925F92AB
:100820006F927F928F92AF92BF92CF92DF92EF92B0
:10083000FF920F931F93CF93DF9300D000D0CDB7DB
:10084000DEB7F8948091650090E0BC01660F771FD9
:10085000880F991F880F991F880F991F680F791F9C
:10086000072E000C880B990B0E94280A2B013C01D3
:100870006091610070E080E090E00E94260A9B0198
:10088000AC0189E28F938F930F2EF9E28F2EF02D1A
:1008900059016A018301720160E070E0CB010E949E
:1008A00076016091600070E080E090E00E94260A8E
:1008B0005B016C018091640090E0BC01660F771FC2
:1008C000880F991F880F991F880F991F680F791F2C
:1008D000072E000C880B990B0E94280A2B013C0163
:1008E0006091610070E080E090E00E94260A6983D8
:1008F0007A838B839C838091650090E09C01220F1A
:10090000331FBC01660F771F660F771F660F771FB7
:10091000620F731F072E000C880B990B0E94280A88
:100920008F928F928301720129813A814B815C8180
:100930000E9476018091630090E0BC01660F771FF2
:10094000880F991F880F991F880F991F680F791FAB
:10095000072E000C880B990B0E94280A69837A8362
:100960008B839C836091600070E080E090E00E9447
:10097000260A2B013C018091640090E0BC01660FC7
:10098000771F880F991F880F991F880F991F680F6D
:10099000791F072E000C880B990B0E94280A8F9252
:1009A0008F9263015201E980FA800B811C81A301BF
:1009B00092010E9476016091610070E080E090E019
:1009C0000E94260A5B016C018091620090E0BC01EC
:1009D000660F771F880F991F880F991F880F991F1F
:1009E000680F791F072E000C880B990B0E94280AAC
:1009F0002B013C016091600070E080E090E00E947B
:100A0000260A69837A838B839C838091630090E0BC
:100A10009C01220F331FBC01660F771F660F771FE3
:100A2000660F771F620F731F072E000C880B990B40
:100A30000E94280A8F928F928301720129813A8144
:100A40004B815C810E9476016091610070E080E0E2
:100A500090E00E94260A2B013C018091620090E008
:100A6000BC01660F771F880F991F880F991F880F89
:100A7000991F680F791F072E000C880B990B0E9495
:100A8000280A8F928F9263015201E12CF12C00E72A
:100A900013E4A30192010E947601E6E6F0E0908162
:100AA0009983618170E080E090E00E94260A20E056
:100AB00030E040E752E40E947E092B013C0129818D
:100AC000622F70E080E090E00E94260AA30192016C
:100AD0000E940D0920E030E040E251E40E94DD0A6E
:100AE0000E94F709B62EC0906000D12C8AE0C81A87
:100AF000D1080FB6F894DEBF0FBECDBF8091610064
:100B000090E00A96C816D9069CF400E020E040E088
:100B10006C2D8FEF8B0D0E94210109E229E249E241
:100B20006C2D8B2D0E9421019FEFC91AD90AE6CFA7
:100B300078940F900F900F900F90DF91CF911F91AD
:100B40000F91FF90EF90DF90CF90BF90AF908F907C
:100B50007F906F905F904F9008952FEF8FE392E01A
:100B6000215080409040E1F700C000000E94A403A3
:100B70000E94960040E060E080E00E94E9027894E4
:100B80000E94D4039091680080918D039817D1F34F
:100B90000E940E04F7CF1F920F920FB60F921124EE
:100BA0008F929F92AF92BF92CF92DF92EF92FF927D
:100BB0000F931F932F933F934F935F936F937F9365
:100BC0008F939F93AF93BF93EF93FF93CF93DF9355
:100BD000CDB7DEB72897DEBFCDBFF894E6E6F0E0EC
:100BE00082818F5F82838C3308F4B2C28F0161816E
:100BF0006F5F6183128218868AE08F83F08070E0D5
:100C000080E090E00E94260A20E030E040E752E4D5
:100C10000E947E094B015C016F2D70E080E090E046
:100C20000E94260AA50194010E940D0920E030E0EF
:100C30004AE754E40E94DD0A6093890370938A03B3
:100C400080938B0390938C030E94F009DC01CB010D
:100C50004AE066E873E00E94500B0F2EF6E8EF2E94
:100C6000F3E0FF2EF02DF70180818B8381818C834F
:100C70008CE28D831E82AE01495F5F4FBE01685FCB
:100C80007F4FCE0103960E947B03F70182818B8305
:100C900083818C8384818D831E82AE01495F5F4F87
:100CA000BE01685F7F4FCE0103960E947B031886CA
:100CB00084E18F83F801F080618170E080E090E052
:100CC0000E94260A20E030E040E752E40E947E09BC
:100CD0004B015C016F2D70E080E090E00E94260ADD
:100CE000A50194010E940D096B017C0160938903A9
:100CF00070938A0380938B0390938C0360916500BB
:100D000070E080E090E00E94260A9B01AC01C701E0
:100D1000B6010E94790988230CF04AC0AE01495FF0
:100D20005F4FBE01685F7F4F89E690E00E947B03C2
:100D30001CBE8CB74AE0BE016D5F7F4F90E00E9401
:100D4000500B18868EE18F83AE01495F5F4FBE0165
:100D5000685F7F4FCE0103960E947B036CB770E003
:100D600080E090E00E94260A20E030E04FE753E464
:100D70000E947E0920E030E048EC52E40E94DD0A47
:100D80000E94F009DC01CB014AE0BE016D5F7F4F9C
:100D90000E94500B188688E28F83AE01495F5F4F37
:100DA000BE01685F7F4FCE0103960E947B03C2C1E4
:100DB0006091640070E080E090E00E94260A9B0150
:100DC000AC01C701B6010E94790988230CF07BC0F1
:100DD000AE01495F5F4FBE01685F7F4F8FE690E0D5
:100DE0000E947B030091630010E0B801012E000C0B
:100DF000880B990B0E94280A9B01AC016091890322
:100E000070918A0380918B0390918C030E940C094E
:100E100020E030E04FE753E40E94DD0A6B017C01E3
:100E20006091620070E0601B710B072E000C880B54
:100E3000990B0E94280A9B01AC01C701B6010E94D0
:100E40007E090E94F7096CBF8CB74AE0BE016D5F56
:100E50007F4F90E00E94500B18868EE18F83AE0189
:100E6000495F5F4FBE01685F7F4FCE0103960E94CE
:100E70007B036CB770E080E090E00E94260A20E0DF
:100E800030E04FE753E40E947E0920E030E048EC78
:100E900052E40E94DD0A0E94F009DC01CB014AE025
:100EA000BE016D5F7F4F0E94500B188688E28F83D2
:100EB000AE01495F5F4FBE01685F7F4FCE01039671
:100EC0000E947B0337C16091630070E080E090E096
:100ED0000E94260A9B01AC01C701B6010E94790954
:100EE00088230CF04BC0AE01495F5F4FBE01685FC5
:100EF0007F4F87E790E00E947B038FEF8CBF8CB71A
:100F00004AE0BE016D5F7F4F90E00E94500B188653
:100F10008EE18F83AE01495F5F4FBE01685F7F4FF7
:100F2000CE0103960E947B036CB770E080E090E0F6
:100F30000E94260A20E030E04FE753E40E947E0939
:100F400020E030E048EC52E40E94DD0A0E94F00903
:100F5000DC01CB014AE0BE016D5F7F4F0E94500B68
:100F6000188688E28F83AE01495F5F4FBE01685FDC
:100F70007F4FCE0103960E947B03DCC0609162002C
:100F800070E080E090E00E94260A9B01AC01C7015E
:100F9000B6010E94790988230CF083C0AE01495F35
:100FA0005F4FBE01685F7F4F8BE790E00E947B033D
:100FB0000091650010E0B801012E000C880B990B20
:100FC0000E94280A9B01AC016091890370918A03F9
:100FD00080918B0390918C030E940C096B017C0122
:100FE0006091640070E0601B710B072E000C880B91
:100FF000990B0E94280A9B01AC01C701B6010E940F
:101000007E099B01AC0160E070E080E89FE30E94F4
:101010000C0920E030E04FE753E40E94DD0A0E9413
:10102000F7096CBF8CB74AE0BE016D5F7F4F90E05F
:101030000E94500B18868EE18F83AE01495F5F4F8F
:10104000BE01685F7F4FCE0103960E947B036CB7A1
:1010500070E080E090E00E94260A20E030E04FE758
:1010600053E40E947E0920E030E048EC52E40E9404
:10107000DD0A0E94F009DC01CB014AE0BE016D5F90
:101080007F4F0E94500B188688E28F83AE01495F24
:101090005F4FBE01685F7F4FCE0103960E947B03C6
:1010A00049C0AE01495F5F4FBE01685F7F4F89E66F
:1010B00090E00E947B031CBE8CB74AE0BE016D5FCE
:1010C0007F4F90E00E94500B18868EE18F83AE0117
:1010D000495F5F4FBE01685F7F4FCE0103960E945C
:1010E0007B036CB770E080E090E00E94260A20E06D
:1010F00030E04FE753E40E947E0920E030E048EC06
:1011000052E40E94DD0A0E94F009DC01CB014AE0B2
:10111000BE016D5F7F4F0E94500B188688E28F835F
:10112000AE01495F5F4FBE01685F7F4FCE010396FE
:101130000E947B03809167008C3350F0E6E6F0E07C
:1011400080818F5F80831182883110F0128210823B
:1011500019821A8210E01330A0F5812F90E09C01D3
:101160002A593F4F7901F90180814AE066E873E02E
:1011700090E00E94500BF70180818A3050F4AE015C
:101180004E5F5F4FBE016F5F7F4F82E890E00E942D
:101190007B03AE014E5F5F4FBE016F5F7F4F86E8FE
:1011A00093E00E947B03123050F4AE014E5F5F4F1C
:1011B000BE016F5F7F4F84E890E00E947B031F5F5A
:1011C000CACF789428960FB6F894DEBF0FBECDBF75
:1011D000DF91CF91FF91EF91BF91AF919F918F914F
:1011E0007F916F915F914F913F912F911F910F913F
:1011F000FF90EF90DF90CF90BF90AF909F908F9037
:101200000F900FBE0F901F9018956FEF7FEF81E04A
:1012100090E00E94550008955058BB27AA270E94CD
:1012200024090C949E0A0E94900A38F00E94970AA2
:1012300020F039F49F3F19F426F40C948D0A0EF433
:10124000E095E7FB0C94870AE92F0E94AF0A58F358
:10125000BA17620773078407950720F079F4A6F59B
:101260000C94D10A0EF4E0950B2EBA2FA02D0B0191
:10127000B90190010C01CA01A0011124FF27591BDB
:1012800099F0593F50F4503E68F11A16F040A22FE1
:10129000232F342F4427585FF3CF46953795279552
:1012A000A795F0405395C9F77EF41F16BA0B620B51
:1012B000730B840BBAF09150A1F0FF0FBB1F661F98
:1012C000771F881FC2F70EC0BA0F621F731F841FDB
:1012D00048F4879577956795B795F7959E3F08F001
:1012E000B0CF9395880F08F09927EE0F97958795C3
:1012F00008950E94630A08F481E008950E9492090B
:101300000C949E0A0E94970A58F00E94900A40F09E
:1013100029F45F3F29F00C94870A51110C94D20AEA
:101320000C948D0A0E94AF0A68F39923B1F35523F8
:1013300091F3951B550BBB27AA27621773078407E8
:1013400038F09F5F5F4F220F331F441FAA1FA9F37E
:1013500035D00E2E3AF0E0E832D091505040E6956C
:10136000001CCAF72BD0FE2F29D0660F771F881FCD
:10137000BB1F261737074807AB07B0E809F0BB0BC0
:10138000802DBF01FF2793585F4F3AF09E3F5105D4
:1013900078F00C94870A0C94D20A5F3FE4F3983EED
:1013A000D4F3869577956795B795F7959F5FC9F7BD
:1013B000880F911D9695879597F90895E1E0660F3E
:1013C000771F881FBB1F621773078407BA0720F0B7
:1013D000621B730B840BBA0BEE1F88F7E095089520
:1013E0000E94F7096894B1110C94D20A08950E94E2
:1013F000B70A88F09F5798F0B92F9927B751B0F0E6
:10140000E1F0660F771F881F991F1AF0BA95C9F788
:1014100014C0B13091F00E94D10AB1E008950C944B
:10142000D10A672F782F8827B85F39F0B93FCCF3FE
:10143000869577956795B395D9F73EF49095809505
:10144000709561957F4F8F4F9F4F0895E89409C025
:1014500097FB3EF490958095709561957F4F8F4FE7
:101460009F4F9923A9F0F92F96E9BB279395F695FD
:10147000879577956795B795F111F8CFFAF4BB0F7B
:1014800011F460FF1BC06F5F7F4F8F4F9F4F16C0DF
:10149000882311F096E911C0772321F09EE8872F69
:1014A000762F05C0662371F096E8862F70E060E025
:1014B0002AF09A95660F771F881FDAF7880F96959E
:1014C000879597F90895990F0008550FAA0BE0E842
:1014D000FEEF16161706E807F907C0F012161306F6
:1014E000E407F50798F0621B730B840B950B39F436
:1014F0000A2661F0232B242B252B21F408950A269C
:1015000009F4A140A6958FEF811D811D089597F9DB
:101510009F6780E870E060E008959FEF80EC089599
:1015200000240A94161617061806090608950024C2
:101530000A9412161306140605060895092E03943C
:10154000000C11F4882352F0BB0F40F4BF2B11F4B0
:1015500060FF04C06F5F7F4F8F4F9F4F089557FD0F
:101560009058440F551F59F05F3F71F04795880F11
:1015700097FB991F61F09F3F79F0879508951216A8
:1015800013061406551FF2CF4695F1DF08C0161654
:1015900017061806991FF1CF869571056105089405
:1015A0000895E894BB2766277727CB0197F908951C
:1015B0000E94630A08F48FEF08950E94F00A0C94C9
:1015C0009E0A0E94900A38F00E94970A20F0952304
:1015D00011F00C94870A0C948D0A11240C94D20AF1
:1015E0000E94AF0A70F3959FC1F3950F50E0551F0D
:1015F000629FF001729FBB27F00DB11D639FAA2768
:10160000F00DB11DAA1F649F6627B00DA11D661FB6
:10161000829F2227B00DA11D621F739FB00DA11DD7
:10162000621F839FA00D611D221F749F3327A00D91
:10163000611D231F849F600D211D822F762F6A2F2D
:1016400011249F5750409AF0F1F088234AF0EE0F92
:10165000FF1FBB1F661F771F881F91505040A9F7BF
:101660009E3F510580F00C94870A0C94D20A5F3F8C
:10167000E4F3983ED4F3869577956795B795F795FB
:10168000E7959F5FC1F7FE2B880F911D9695879573
:1016900097F90895EE0FFF1F0590F491E02D09943E
:1016A000BB274A3031F4992322F4BDE2909581950D
:1016B0009F4F0C945C0BBB27FB015527AA27880F73
:1016C000991FAA1FA41710F0A41B83955051B9F7B6
:1016D000A05DAA3308F0A95DA193009779F7B11135
:1016E000B1931192CB010C94750BDC01FC01672FB7
:1016F00071917723E1F7329704C07C916D937083E9
:0E1700006291AE17BF07C8F30895F894FFCFAB
:10170E00649615120A06052F3A4E4947485400535F
:10171E00554E52495345004441590053554E534579
:10172E00540030003A0000000000000000000000ED
:10173E00000000000000000000000000000000009B
:10174E00000000000000000000000000000000008B
:10175E00000000000000000000000000000000007B
:10176E00000000000000000000000000000000006B
:10177E00000000000000000000000000000000005B
:10178E00000000000000000000000000000000004B
:10179E00000000000000000000000000000000003B
:1017AE00000000000000000000000000000000002B
:1017BE00000000000000000000000000000000001B
:1017CE00000000000000000000000000000000000B
:1017DE0000000000000000000000000000000000FB
:1017EE0000000000000000000000000000FA0000F1
:1017FE0000000000000000000000000000000000DB
:10180E0000000000000000000000000000000000CA
:10181E0000000000000000000000000000000000BA
:10182E0000000000000000000000000000000001A9
:10183E000200000000101010000000000200000066
:10184E000000000000007C8A92A27C000242FE0290
:10185E000200468A92926600448292926C00182888
:10186E004888FE00E4A2A2A29C003C5292920C0078
:10187E00C0808E90E0006C9292926C006092929476
:10188E007800002400000000022400000000102850
:10189E0044820000242424240000824428100000E6
:1018AE0040808A9060003C425A4A3A007E90909066
:1018BE007E00FE9292926C007C8282824400FE82B6
:1018CE0082827C00FE9292928200FE909090800026
:1018DE007C8282A2BC00FE101010FE000082FE82EE
:1018EE00000004020202FC00FE2020508E00FE02C8
:1018FE0002020000FE402040FE00FE402010FE00CE
:10190E007C8282827C00FE90909060007C82828439
:10191E007A00FE9090906E00649292924C008080BD
:10192E00FE808000FC020202FC00F00C020CF000B3
:10193E00FE040804FE00C6281028C60080403E4063
:10194E008000868A92A2C20000FE82820000806021
:10195E00100C0200008282FE000020408040200019
:10196E000101010101000000000000000000000064
:10197E000000000000000000000000000000000059
:10198E000000000000000000000000000000000049
:10199E000000000000000000000000000000000039
:1019AE000000000000000000000000000000000029
:1019BE000000000000000000000000000000000019
:1019CE000000000000000000000000000000000009
:1019DE0000000000000000000000000000000000F9
:1019EE0000000000000000000000000000000000E9
:1019FE0000000000000000000000000000000000D9
:101A0E0000000000000000000000000000000000C8
:101A1E0000000000000000000000000000000000B8
:061A2E00000000000000B2
:00000001FF
