:100000000C942A000C9447000C9447000C94470071
:100010000C9447000C9447000C9447000C94E302A6
:100020000C9447000C9447000C9447000C94470034
:100030000C9447000C9447000C9447000C94470024
:100040000C9447000C9447000C9447000C94470014
:100050000C94470011241FBECFE5D8E0DEBFCDBF12
:1000600012E0A0E6B0E0E0E5F8E002C005900D92F5
:10007000AC3AB107D9F722E0ACEAB2E001C01D9278
:10008000A43BB207E1F70E94A3020C9426040C944F
:10009000000095B3946095BB8FB9779BFECF089510
:1000A00095B39B7F95BB8FB9779BFECF089585B3A2
:1000B000886085BB2FEF8FEF98E021508040904003
:1000C000E1F700C0000085B3877F85BB2FEF8FE38A
:1000D00092E0215080409040E1F700C0000085B3DD
:1000E000886085BB2FEF8FEF98E0215080409040D3
:1000F000E1F700C0000081E00E9450008FEF9FE810
:100100000197F1F700C0000081E10E9450008FEFDD
:100110009FE80197F1F700C000008AE30E945000B9
:1001200086E00E9449008FEF9FE80197F1F700C039
:10013000000086E30E94500080E00E9449008FEF9B
:100140009FE80197F1F700C000008AE20E9450008A
:1001500080E00E94490080E00E94490080E00E9407
:10016000490080EF0E9449008FEF9FE80197F1F767
:1001700000C000008BE20E94500080E00E94490015
:1001800080E00E94490080E00E94490080EF0E94C8
:1001900049008FEF9FE80197F1F700C0000081E26E
:1001A0000E9450008FEF9FE80197F1F700C0000018
:1001B00089E20E9450008FEF9FE80197F1F700C09D
:1001C00000000895CF92DF92FF920F931F93CF9379
:1001D000DF93813F08F043C0613F08F040C0122F19
:1001E000F42ED62FC82F8AE20E945000CC2ED12C9C
:1001F00080E00E9449008C2F0E9449008FEFC81AAE
:10020000D80A8D2D0E94490081E08C0F0E94490080
:100210008BE20E945000CD2ED12C80E00E9449003C
:100220008D2F0E9449008FEFC81AD80A8D2D0E9489
:10023000490081E08D0F0E9449008CE20E9450002D
:100240008F2D880F880F0E944900812F880F880FFB
:100250000E944900802F880F880F0E944900DF917B
:10026000CF911F910F91FF90DF90CF900895EF9263
:10027000FF920F931F93CF93DF93E82EF62E142F48
:10028000D0E0D03F70F4C0E0C03F48F4012F2F2DE4
:100290004E2D6C2F8D2F0E94E200CF5FF5CFDF5FD8
:1002A000F0CFDF91CF911F910F91FF90EF900895C4
:1002B0005F926F927F928F929F92AF92BF92CF92F6
:1002C000DF92EF92FF920F931F93CF93DF93D82E7D
:1002D000EB015A01F22E102F712C85E0871508F4DE
:1002E0006EC0812C912CE8E08E1691040CF051C068
:1002F0008D2D90E08097FC01EE0FFF1FE80FF91F96
:10030000EE0FFF1FE559FF4FE70DF11D208147E07C
:1003100050E04819590981E090E002C0880F991F08
:100320004A95E2F730E082239323892BB9F0512CD0
:100330005C1458F5612C6C1478F4F5016081C89C4C
:10034000600D1124650D88810E2D212F4F2D860DF6
:100350000E94E2006394EFCF5394EACF512C5C14D7
:10036000A0F4612C6C1478F4F5016081C89C600DD8
:100370001124650D888100E020E040E0860D0E9498
:10038000E2006394EFCF5394EACFFFEF8F1A9F0AF6
:10039000AACF88818C0D8883803F48F01882F501B0
:1003A00090818C2D880F880F880F890F8083F5012D
:1003B0008081803F10F01882108273948ECFDF917D
:1003C000CF911F910F91FF90EF90DF90CF90BF9052
:1003D000AF909F908F907F906F905F9008956F92F5
:1003E0007F928F929F92AF92BF92CF92DF92EF92C5
:1003F000FF920F931F93CF93DF935C013B014A0160
:10040000D22EF02E1E2DDC2DC0E0F501EC0FF11DDB
:100410008081882351F0CD2EE12E0F2D2D2DA401AA
:10042000B3010E945801CF5FF0CFDF91CF911F91B0
:100430000F91FF90EF90DF90CF90BF90AF909F9083
:100440008F907F906F90089587B3806B87BB88B340
:10045000806F88BB8CE58DB981E08EB984B38860EC
:1004600084BB85B3886085BB84B3846084BB85B35B
:10047000846085BB8EE398E39BBD8ABD8FB58FBD3D
:100480008EB58D608EBD89B7806189BF8CB78F674F
:100490008CBF83B7896683BF87B3886087BB0895A5
:1004A0009F92AF92BF92CF92DF92EF92FF920F9303
:1004B0001F93CF93DF935C01922ED02EFE2CDC2D68
:1004C000C0E0C330A0F585010C0F111DF80180813B
:1004D0004AE06CEA72E090E00E948E03F8018081AD
:1004E0008A3060F4CD2EEF2C0D2D292D42EB52E0F9
:1004F00063EB72E087E690E00E94EF01CD2EEF2CD7
:100500000D2D292D42EB52E063EB72E08CEA92E074
:100510000E94EF01C23048F4292D42EB52E063EB18
:1005200072E089E690E00E94EF01CF5FCACFDF91D1
:10053000CF911F910F91FF90EF90DF90CF90BF90E0
:10054000AF909F9008952FEF8FE794E02150804067
:100550009040E1F700C000000E9424020E94570072
:1005600040E060E080E00E94370178949091B10211
:10057000809166009817D1F38093B1021092B30274
:100580001092B2020E947E03CCE3D0E0BE010E9432
:100590000A03E82E0E947E03BE010E940A03082F70
:1005A0000E947E03BE010E940A030F2EF5E0CF2EAB
:1005B000F02D282F42EB52E063EB72E084E690E0EE
:1005C0000E945002D3CF1F920F920FB60F921124A8
:1005D0008F93EF93FF93F894E4E6F0E082818F5FCE
:1005E00082838C3370F081818F5F818312828C33A0
:1005F00040F080818F5F80831182883110F01092EB
:1006000064007894FF91EF918F910F900FBE0F903F
:100610001F90189597FB072E16F4009407D077FDCE
:1006200009D00E941E0307FC05D03EF490958195E9
:100630009F4F0895709561957F4F0895AA1BBB1B2E
:1006400051E107C0AA1FBB1FA617B70710F0A61BD2
:10065000B70B881F991F5A95A9F780959095BC01F3
:10066000CD0108958F929F92AF92BF92CF92DF9269
:10067000EF92FF92CF93DF93EC01688179818A81B9
:100680009B81611571058105910521F464E279ED85
:100690008BE597E02DE133EF41E050E00E94C3038A
:1006A00049015A019B01AC01A7EAB1E40E94E203AF
:1006B0006B017C01ACEEB4EFA50194010E94F00344
:1006C000DC01CB018C0D9D1DAE1DBF1DB7FF03C00E
:1006D0000197A109B04888839983AA83BB839F7738
:1006E000DF91CF91FF90EF90DF90CF90BF90AF90D0
:1006F0009F908F9008950E943203089580E690E0C5
:100700000E9432030895A0E0B0E0809360009093CF
:100710006100A0936200B09363000895BB274A3044
:1007200031F4992322F4BDE2909581959F4F0C946A
:100730009A03BB27FB015527AA27880F991FAA1FD9
:10074000A41710F0A41B83955051B9F7A05DAA33EC
:1007500008F0A95DA193009779F7B111B1931192B7
:10076000CB010C94B303DC01FC01672F719177235B
:10077000E1F7329704C07C916D9370836291AE175C
:10078000BF07C8F30895052E97FB1EF400940E943E
:10079000DA0357FD07D00E94F50307FC03D04EF49F
:1007A0000C94DA0350954095309521953F4F4F4F6B
:1007B0005F4F089590958095709561957F4F8F4F0D
:1007C0009F4F08950E941704A59F900DB49F900D10
:1007D000A49F800D911D11240895B7FF0C94E2038E
:1007E0000E94E203821B930B0895A1E21A2EAA1B1A
:1007F000BB1BFD010DC0AA1FBB1FEE1FFF1FA217D1
:10080000B307E407F50720F0A21BB30BE40BF50BCD
:10081000661F771F881F991F1A9469F76095709556
:10082000809590959B01AC01BD01CF010895A29FD9
:10083000B001B39FC001A39F700D811D1124911DB4
:10084000B29F700D811D1124911D0895F894FFCF62
:1008500001000000052F3A30003A000000000000BF
:100860000000FA0000000000600060000028FE2880
:10087000FE28002454D6544800C20C106086000C98
:1008800052BA4C12000000600000000038448200A0
:100890000000824438000000502050000010107CFE
:1008A00010100000010200000000101010000000F5
:1008B0000002000000020C106080007C8A92A27C82
:1008C000000242FE020200468A9292660044829230
:1008D000926C0018284888FE00E4A2A2A29C003C6A
:1008E0005292920C00C0808E90E0006C9292926CBA
:1008F000006092929478000000240000000002241E
:1009000000000010284482000024242424000082D7
:10091000442810000040808A9060003C425A4A3AC5
:10092000007E9090907E00FE9292926C007C82827B
:10093000824400FE8282827C00FE9292928200FEBD
:1009400090909080007C8282A2BC00FE101010FE6D
:10095000000082FE82000004020202FC00FE202051
:10096000508E00FE0202020000FE402040FE00FE0B
:10097000402010FE007C8282827C00FE909090607D
:10098000007C8282847A00FE9090906E0064929245
:10099000924C008080FE808000FC020202FC00F08D
:1009A0000C020CF000FE040804FE00C6281028C645
:1009B0000080403E408000868A92A2C20000FE82F3
:1009C0008200008060100C0200008282FE00002085
:1009D0004080402000010101010100402000000092
:1009E00000042A2A2A1E007E1222221C001C222217
:1009F0002214001C2222127E001C2A2A2A1A0020FD
:100A00007EA0A00000192525253E00FE1020201EF6
:100A1000000020BC02000004020202BC0000FE082C
:100A20001422000080FC0202003E2018201E003E1E
:100A30002020201E001C2222221C003F14242418E7
:100A400000182424143F003E1020201000122A2AEF
:100A50002A24000020FC2200003C0202023E003852
:100A600004020438003C020E023E00221408142244
:100A700000390505053E0022262A32220000106CAE
:100A80008200000000FE00000000826C10000018D0
:0C0A9000201008300000000000000000F2
:00000001FF
