:100000000C946B000C9488000C9488000C9488006D
:100010000C9488000C9488000C9488000C94720650
:100020000C9488000C9488000C9488000C94880030
:100030000C9488000C9488000C9488000C94880020
:100040000C9488000C9488000C9488000C94880010
:100050000C94880007634236B79BD8A71A396856B4
:1000600018AEBAAB558C1D3CB7CC5763BD6DEDFDDA
:10007000753EF6177231BF000000803F0800000097
:10008000BE922449123EABAAAA2ABECDCCCC4C3E8D
:1000900000000080BEABAAAAAA3E00000000BF007C
:1000A0000000803F0000000000084178D3BB438778
:1000B000D1133D190E3CC3BD4282AD2B3E68EC828C
:1000C00076BED98FE1A93E4C80EFFFBE01C4FF7F11
:1000D0003F000000000011241FBECFE5D8E0DEBFC6
:1000E000CDBF12E0A0E6B0E0E6E8F5E102C0059081
:1000F0000D92AE3DB107D9F722E0AEEDB2E001C0FE
:100100001D92AF3EB207E1F70E942C040C94C10A85
:100110000C94000085B3886085BB2FEF8FEF98E0CB
:10012000215080409040E1F700C0000085B3877FF8
:1001300085BB2FEF8FE392E0215080409040E1F7A4
:1001400000C0000085B3886085BB2FEF8FEF98E07B
:10015000215080409040E1F700C0000085B38B7FC4
:1001600085BB81E08FB9779BFECF8FEF9FE801972A
:10017000F1F700C0000085B38B7F85BB81E18FB9AB
:10018000779BFECF8FEF9FE80197F1F700C000004B
:1001900085B38B7F85BB8AE38FB9779BFECF85B311
:1001A000846085BB86E08FB9779BFECF8FEF9FE899
:1001B0000197F1F700C0000085B38B7F85BB86E314
:1001C0008FB9779BFECF85B3846085BB1FB8779BC3
:1001D000FECF8FEF9FE80197F1F700C0000085B3D5
:1001E0008B7F85BB8AE28FB9779BFECF85B3846016
:1001F00085BB1FB8779BFECF85B3846085BB1FB8D6
:10020000779BFECF85B3846085BB1FB8779BFECFFD
:1002100085B3846085BB80EF8FB9779BFECF8FEF6E
:100220009FE80197F1F700C0000085B38B7F85BB85
:100230008BE28FB9779BFECF85B3846085BB1FB8F7
:10024000779BFECF85B3846085BB1FB8779BFECFBD
:1002500085B3846085BB1FB8779BFECF85B3846070
:1002600085BB80EF8FB9779BFECF8FEF9FE801971B
:10027000F1F700C0000085B38B7F85BB81E28FB9A9
:10028000779BFECF8FEF9FE80197F1F700C000004A
:1002900085B38B7F85BB89E28FB9779BFECF8FEFCC
:1002A0009FE80197F1F700C000000895262F342F32
:1002B00095B39B7F95BB9AE29FB9779BFECF95B391
:1002C000946095BB1FB8779BFECF95B3946095BBA8
:1002D0001FB8779BFECF95B3946095BB1FB8779BF3
:1002E000FECF95B3946095BB90EF9FB9779BFECFFF
:1002F00095B39B7F95BB9BE29FB9779BFECF95B350
:10030000946095BB1FB8779BFECF95B3946095BB67
:100310001FB8779BFECF95B3946095BB1FB8779BB2
:10032000FECF95B3946095BB90EF9FB9779BFECFBE
:1003300095B39B7F95BB9CE29FB9779BFECF40E036
:1003400050E0BA01411591EE59076105710504F5B8
:1003500095B3946095BB982F990F990F9FB9779B90
:10036000FECF95B3946095BB922F990F990F9FB9CB
:10037000779BFECF95B3946095BB932F990F990F00
:100380009FB9779BFECF4F5F5F4F6F4F7F4FDACFA5
:1003900008956F927F928F929F92BF92CF92DF9239
:1003A000EF920F931F93CF93DF934C013A01122FDB
:1003B000B12CF401EB0DF11DD080DD2009F456C104
:1003C00040E0463008F050C1A0E0B0E0A830B105F0
:1003D0000CF032C1ED2DF0E0B097CF01880F991FDE
:1003E000E80FF91FEE0FFF1FE256FF4FE40FF11D5C
:1003F000808127E030E02A1B3B0BE1E0F0E002C007
:10040000EE0FFF1F2A95E2F790E0E823F923EF2B88
:1004100009F48DC0E301E881CA9EE00D1124EB01CF
:10042000F881F13F08F006C1E13F08F003C185B350
:100430008B7F85BB8AE28FB9779BFECF2F2F30E071
:1004400085B3846085BB1FB8779BFECF85B384607E
:1004500085BBFFB9779BFECF8C2D90E0280F391F0D
:100460002150310925B3246025BB3FB9779BFECFCE
:10047000FC0DF15025B3246025BBFFB9779BFECF5F
:1004800025B32B7F25BB2BE22FB9779BFECF2E2FD9
:1004900030E0F5B3F460F5BB1FB8779BFECFF5B342
:1004A000F460F5BBEFB9779BFECF280F391F2150C1
:1004B000310925B3246025BB3FB9779BFECFEC0DF6
:1004C000E15025B3246025BBEFB9779BFECF25B360
:1004D0002B7F25BB2CE22FB9779BFECFE0E0F0E02D
:1004E000889F9001899F300D300D1124E217F3078A
:1004F0000CF0A0C025B3246025BB212F220F220FB2
:100500002FB9779BFECF25B3246025BB202F220F68
:10051000220F2FB9779BFECF25B3246025BB2E2D4C
:10052000220F220F2FB9779BFECF3196D9CFE3014F
:10053000E881CA9EE00D1124EB01F881F13F08F03B
:1005400079C0E13F08F076C085B38B7F85BB8AE236
:100550008FB9779BFECF2F2F30E085B3846085BBAA
:100560001FB8779BFECF85B3846085BBFFB9779BAF
:10057000FECF8C2D90E0280F391F2150310925B373
:10058000246025BB3FB9779BFECFFC0DF15025B30E
:10059000246025BBFFB9779BFECF25B32B7F25BBFE
:1005A0002BE22FB9779BFECF2E2F30E0F5B3F4600E
:1005B000F5BB1FB8779BFECFF5B3F460F5BBEFB981
:1005C000779BFECF280F391F2150310925B32460B6
:1005D00025BB3FB9779BFECFEC0DE15025B32460DE
:1005E00025BBEFB9779BFECF25B32B7F25BB2CE234
:1005F0002FB9779BFECFE0E0F0E0889F9001899FC4
:10060000300D300D1124E217F307A4F425B3246054
:1006100025BB1FB8779BFECF25B3246025BB1FB831
:10062000779BFECF25B3246025BB1FB8779BFECFF9
:100630003196E3CF1196CACEFB0180818C0D808369
:10064000803F48F01082E30198818C2D880F880F3D
:10065000880F890F8883F3018081803F18F0EB01B8
:10066000188210824F5FADCEB394A3CEDF91CF91AD
:100670001F910F91EF90DF90CF90BF909F908F9040
:100680007F906F90089587B3806B87BB88B3806F2E
:1006900088BB8CE58DB981E08EB984B3886084BB5A
:1006A00085B3886085BB84B3846084BB85B3846074
:1006B00085BB8EE398E39BBD8ABD8FB58FBD8EB59C
:1006C0008D608EBD89B7806189BF8CB78CBF83B7C1
:1006D000896683BF87B3886087BB08958F929F9296
:1006E000AF92BF92CF92DF92EF92FF920F931F9340
:1006F000CF93DF934B015C017A0169010E948A0765
:100700008B01072E000C880B990B0E94C2079B01DE
:10071000AC01C501B4010E94A6064B015C01C0E01A
:10072000D0E00115110571F0F701EC0FFD1FC801B4
:100730006AE070E00E94640A805D8083062F172FB4
:100740002196EFCFDD233CF4F701EC0FFD1F80E392
:1007500080832196F7CF9E012150310980E090E0FF
:100760008217930774F4D701A80FB91F4C91F701B2
:10077000E20FF31F50815C934083019621503109B1
:10078000EFCFF701EC0FFD1F1082C114D10409F463
:1007900056C0F701EC0FFD1F8EE28083B6010D2CD1
:1007A000000C880B990B0E94C2079B01AC0160E012
:1007B00070E080E291E40E94DF089B01AC01C5017A
:1007C000B4010E9472082196CE0DDF1D0E948A0797
:1007D000CB0120E030E0009771F0FE01E20FF31F43
:1007E0006AE070E00E94640A805D8083862F972F04
:1007F0002F5F3F4FF0CF2C153D0544F4FE01E20F73
:10080000F31F80E380832F5F3F4FF5CFA901415055
:10081000510980E090E08417950774F4DE01A80F79
:10082000B91F6C91FE01E40FF51F70817C9360830A
:10083000019641505109EFCFC20FD31F1882DF91AB
:10084000CF911F910F91FF90EF90DF90CF90BF90CD
:10085000AF909F908F9008952FEF8FE794E02150F5
:1008600080409040E1F700C000000E9443030E94D6
:100870008A0040E060E080E00E9456017894809118
:10088000EC02C09193008C17D1F3C093EC02E1E924
:10089000F0E0D081618170E080E090E00E94C007CC
:1008A00020E030E040E752E40E9418076B017C0131
:1008B0006D2F70E080E090E00E94C007A7019601D4
:1008C0000E94A7066B017C016C2F70E080E090E035
:1008D0000E94C00720E030E041E655E40E9418077E
:1008E0009B01AC01C701B6010E94A7066B017C0108
:1008F0006093E6027093E7028093E8029093E90226
:100900008090800090908100A0908200B090830041
:10091000A50194010E941307882334F483E0809397
:10092000900081E08CBF86C040908400509085008C
:100930006090860070908700A3019201C701B60104
:100940000E94130788230CF510929000A5019401D2
:10095000C701B6010E94A6066B017C01A5019401A6
:10096000C301B2010E94A6069B01AC01C701B601FA
:100970000E94180720E030E04DE753E40E9472081F
:100980000E9491076F5F6CBF55C080908800909067
:100990008900A0908A00B0908B00A5019401C70146
:1009A000B6010E941307882334F481E080939000FD
:1009B0008EEF8CBF3FC040908C0050908D006090B7
:1009C0008E0070908F00A3019201C701B6010E94B2
:1009D0001307882354F582E080939000A5019401C9
:1009E000C701B6010E94A6066B017C01A501940116
:1009F000C301B2010E94A6069B01AC01C701B6016A
:100A00000E9418079B01AC0160E070E080E89FE362
:100A10000E94A60620E030E04DE753E40E947208F1
:100A20000E9491076F5F6CBF05C083E080939000C8
:100A300081E08CBF1092EE021092ED02D0919400F2
:100A4000C0E0C330D8F50C2F10E00F561F4FF8014F
:100A500080814AE06EED72E090E00E948C0AF8011D
:100A600080818A3078F4CD2E0F2EFDE2EF2EF02D0E
:100A700007E32CE34DEE52E06EEE72E088E990E081
:100A80000E94C901CD2E0F2EFDE2EF2EF02D07E3BF
:100A90002CE34DEE52E06EEE72E08EED92E00E949D
:100AA000C901C23048F42CE34DEE52E06EEE72E024
:100AB00085E990E00E94C901CF5FC3CF1092EE029A
:100AC000C09094008C2D880F880F880F8093ED02C2
:100AD0008091900090E0880F991F880F991F880FD0
:100AE000991F0F2EFDE2EF2EF02D07E32CE34DEEC4
:100AF00052E06EEE72E0805A9F4F0E94C901109240
:100B0000EE02C09094008C2D8295807F8C5F809344
:100B1000ED02CEEFCC0D6CB770E080E090E00E946B
:100B2000C00723E333E343E250E40E9418076B015C
:100B30007C0123E030E04EED52E00E946E0320E0A5
:100B400030E040E85FE3C701B6010E941307882345
:100B50007CF4CC2E0F2EFDE2EF2EF02D2CE34DEE8B
:100B600052E06EEE72E087E990E00E94C90119C080
:100B700020E030E040E251E4C701B6010E941307D3
:100B800088237CF4CC2E0F2EFDE2EF2EF02D07E310
:100B90002CE34DEE52E06EEE72E088E990E00E94A8
:100BA000C901CC2E0F2EFDE2EF2EF02D07E32CE332
:100BB0004DEE52E06EEE72E08EED92E00E94C901C1
:100BC000C0909400CA94CA942CE34DEE52E06EEEAD
:100BD00072E08AE990E00E94C9011092EE028091D1
:100BE000940098E1899F802D1124805F8093ED020D
:100BF000C0E0C43008F043CEAC2EB12C8501000F0C
:100C0000111F000F111F00581F4FF80160817181E3
:100C10008281938122E030E04EED52E00E946E032B
:100C2000F801608171818281938120E030E040E2AF
:100C300051E40E941307882394F4C0909400CA944E
:100C4000CA940F2EFDE2EF2EF02D07E32CE34DEEBC
:100C500052E06EEE72E088E990E00E94C901C09017
:100C60009400CA94CA940F2EFDE2EF2EF02D07E3F4
:100C70002CE34DEE52E06EEE72E08EED92E00E94BB
:100C8000C901C0909400CA94CA942CE34DEE52E07E
:100C90006EEE72E08CE990E00E94C901C090940071
:100CA000CA94CA94C501880F991F880F991F880F8D
:100CB000991F2CE34DEE52E06EEE72E0805A9F4F8A
:100CC0000E94C9011092EE028091940090E0029778
:100CD000880F880F880F9091ED02890F8093ED02A5
:100CE000CF5F87CF1F920F920FB60F9211248F9371
:100CF0009F93EF93FF93F894E1E9F0E092819F5F77
:100D0000928381818D5F81839C3318F08F5F818313
:100D10001282809192008C3330F0E1E9F0E0808122
:100D20008F5F8083118280919100883128F0E1E902
:100D3000F0E01282118210827894FF91EF919F91DE
:100D40008F910F900FBE0F901F9018955058BB2792
:100D5000AA270E94BE060C9438080E942A0838F080
:100D60000E94310820F039F49F3F19F426F40C94C6
:100D700027080EF4E095E7FB0C942108E92F0E9468
:100D8000490858F3BA17620773078407950720F0DC
:100D900079F4A6F50C946B080EF4E0950B2EBA2F9F
:100DA000A02D0B01B90190010C01CA01A001112471
:100DB000FF27591B99F0593F50F4503E68F11A161D
:100DC000F040A22F232F342F4427585FF3CF4695AE
:100DD00037952795A795F0405395C9F77EF41F16D0
:100DE000BA0B620B730B840BBAF09150A1F0FF0F9A
:100DF000BB1F661F771F881FC2F70EC0BA0F621F86
:100E0000731F841F48F4879577956795B795F79575
:100E10009E3F08F0B0CF9395880F08F09927EE0F0A
:100E20009795879508950E94FD0708F481E008953D
:100E30000E942C070C9438080E94310858F00E9438
:100E40002A0840F029F45F3F29F00C942108511141
:100E50000C946C080C9427080E94490868F39923A5
:100E6000B1F3552391F3951B550BBB27AA276217A6
:100E70007307840738F09F5F5F4F220F331F441FB3
:100E8000AA1FA9F335D00E2E3AF0E0E832D09150E7
:100E90005040E695001CCAF72BD0FE2F29D0660FD4
:100EA000771F881FBB1F261737074807AB07B0E817
:100EB00009F0BB0B802DBF01FF2793585F4F3AF01D
:100EC0009E3F510578F00C9421080C946C085F3F0C
:100ED000E4F3983ED4F3869577956795B795F795A3
:100EE0009F5FC9F7880F911D9695879597F908958B
:100EF000E1E0660F771F881FBB1F62177307840727
:100F0000BA0720F0621B730B840BBA0BEE1F88F735
:100F1000E09508950E9491076894B1110C946C08B3
:100F200008950E94510888F09F5798F0B92F99278B
:100F3000B751B0F0E1F0660F771F881F991F1AF0C4
:100F4000BA95C9F714C0B13091F00E946B08B1E0B6
:100F500008950C946B08672F782F8827B85F39F0B5
:100F6000B93FCCF3869577956795B395D9F73EF45D
:100F700090958095709561957F4F8F4F9F4F089505
:100F8000E89409C097FB3EF4909580957095619523
:100F90007F4F8F4F9F4F9923A9F0F92F96E9BB27D9
:100FA0009395F695879577956795B795F111F8CF55
:100FB000FAF4BB0F11F460FF1BC06F5F7F4F8F4FC0
:100FC0009F4F16C0882311F096E911C0772321F0B6
:100FD0009EE8872F762F05C0662371F096E8862F4E
:100FE00070E060E02AF09A95660F771F881FDAF7A5
:100FF000880F9695879597F90895990F0008550FD2
:10100000AA0BE0E8FEEF16161706E807F907C0F08E
:1010100012161306E407F50798F0621B730B840B96
:10102000950B39F40A2661F0232B242B252B21F470
:1010300008950A2609F4A140A6958FEF811D811D10
:10104000089597F99F6780E870E060E008959FEF4A
:1010500080EC089500240A9416161706180609064F
:10106000089500240A94121613061406050608951E
:10107000092E0394000C11F4882352F0BB0F40F4A6
:10108000BF2B11F460FF04C06F5F7F4F8F4F9F4FE6
:10109000089557FD9058440F551F59F05F3F71F068
:1010A0004795880F97FB991F61F09F3F79F08795CF
:1010B0000895121613061406551FF2CF4695F1DF58
:1010C00008C0161617061806991FF1CF86957105E8
:1010D000610508940895E894BB2766277727CB011C
:1010E00097F908950E9485080C9438080E942A08F0
:1010F00038F00E94310820F0952311F00C9421085B
:101100000C94270811240C946C080E94490870F371
:10111000959FC1F3950F50E0551F629FF001729F9C
:10112000BB27F00DB11D639FAA27F00DB11DAA1FAB
:10113000649F6627B00DA11D661F829F2227B00DF8
:10114000A11D621F739FB00DA11D621F839FA00D83
:10115000611D221F749F3327A00D611D231F849FD3
:10116000600D211D822F762F6A2F11249F5750402A
:101170009AF0F1F088234AF0EE0FFF1FBB1F661FA5
:10118000771F881F91505040A9F79E3F510580F06E
:101190000C9421080C946C085F3FE4F3983ED4F360
:1011A000869577956795B795F795E7959F5FC1F712
:1011B000FE2B880F911D9695879597F90895FA0152
:1011C000EE0FFF1F309621053105A1F16115710564
:1011D00061F48038BFE39B0749F16894903881053A
:1011E00061F08038BFEF9B0741F099234AF5FF3F3C
:1011F000E1053105210519F1E8940894E795D90135
:10120000AA2329F4AB2FBE2FF85FD0F310C0FF5FE5
:1012100070F4A695E0F7F73950F019F0FF3A38F47A
:101220009F779F930DD00F9007FC9058089546F03C
:101230000C94270860E070E080E89FE308954FE792
:101240009F775F934F933F932F930E94DA092F91DB
:101250003F914F915F910E9472080C94370929F4D5
:1012600016F00C9421080C946B080C9427080E942B
:101270005108A8F39638A0F707F80F92E8942BE3EB
:101280003AEA48EB5FE70E9488080F920F920F92AC
:101290004DB75EB70F920E94220AE4E5F0E00E948B
:1012A00069094F915F91EF91FF91E595EE1FFF1F47
:1012B00049F0FE57E0684427EE0F441FFA95E1F726
:1012C0004195550B0E949C090F9007FE0C949009C4
:1012D0000895DF93CF931F930F93FF92EF92DF92C6
:1012E0007B018C01689406C0DA2EEF010E9485080C
:1012F000FE01E894A5912591359145915591A6F36C
:10130000EF010E94BE06FE019701A801DA9469F779
:10131000DF90EF90FF900F911F91CF91DF91089593
:101320009B01AC0160E070E080E89FE30C9418073B
:101330000C9421080C94560A0E945108D8F3992362
:10134000C9F3940F511DA3F39150504094F059F0FC
:10135000882332F0660F771F881F91505040C1F7E5
:101360009E3F51052CF7880F911D9695879597F90B
:1013700008955F3FACF0983E9CF0BB27869577952B
:101380006795B79508F4B1609395C1F7BB0F58F70F
:1013900011F460FFE8CF6F5F7F4F8F4F9F4FE3CF18
:1013A0000C946C0816F00C94560A0C942708689458
:1013B0000C9421080E945108A8F39923C1F3AEF3BD
:1013C000DF93CF931F930F93FF92C92FDD278823BD
:1013D0002AF02197660F771F881FDAF720E030E0A8
:1013E00040E85FEB9FE3883920F0803E38F021969B
:1013F0008F770E94A706ECE7F0E004C00E94A706E2
:10140000E9EAF0E00E9469098B01BE01EC01FB2EC4
:101410006F5771097595771F880B990B0E94C2074A
:1014200028E132E741E35FE30E948508AF2D980190
:10143000AE01FF900F911F91CF91DF910E94BE06E8
:101440000C943808FA01DC01AA0FBB1F9B01AC0108
:10145000BF5728F4222733274427507820C0B7519C
:1014600090F4AB2F0024469537952795011CA39542
:10147000D2F3002071F0220F331F441FB395DAF32B
:101480000ED00C94A60661307105A0E88A07B94613
:1014900030F49B01AC016627772788279078309637
:1014A00021F0208331834283538308959F3F31F09D
:1014B000915020F4879577956795B795880F911D82
:1014C0009695879597F9089597FB072E16F4009443
:1014D00007D077FD09D00E94780A07FC05D03EF4BA
:1014E000909581959F4F0895709561957F4F0895D0
:1014F000AA1BBB1B51E107C0AA1FBB1FA617B7073A
:1015000010F0A61BB70B881F991F5A95A9F7809555
:101510009095BC01CD010895BB274A3031F4992341
:1015200022F4BDE2909581959F4F0C94980ABB27B9
:10153000FB015527AA27880F991FAA1FA41710F08F
:10154000A41B83955051B9F7A05DAA3308F0A95D9B
:10155000A193009779F7B111B1931192CB010C943B
:10156000B10ADC01FC01672F71917723E1F7329713
:1015700004C07C916D9370836291AE17BF07C8F36E
:061580000895F894FFCF6E
:1015860053756E72697365004461792020202000CE
:1015960053756E73657420004E6967687420200069
:1015A6000000C04000000041000090410000A04142
:1015B60001101E00053A0030300025002000000012
:1015C6000000000000FA000000000060006000005B
:1015D60028FE28FE28002454D6544800C20C106069
:1015E60086000C52BA4C1200000060000000003861
:1015F6004482000000824438000000502050000061
:1016060010107C10100000010200000000101010E5
:101616000000000002000000020C106080007C8ABE
:1016260092A27C000242FE020200468A9292660064
:10163600448292926C0018284888FE00E4A2A2A276
:101646009C003C5292920C00C0808E90E0006C92FE
:1016560092926C0060929294780000002400000040
:1016660000022400000010284482000024242424C0
:10167600000082442810000040808A9060003C42AE
:101686005A4A3A007E9090907E00FE9292926C00AA
:101696007C8282824400FE8282827C00FE9292924A
:1016A6008200FE90909080007C8282A2BC00FE1098
:1016B6001010FE000082FE82000004020202FC00FE
:1016C600FE2020508E00FE0202020000FE40204056
:1016D600FE00FE402010FE007C8282827C00FE908E
:1016E600909060007C8282847A00FE9090906E00DA
:1016F600649292924C008080FE808000FC0202027E
:10170600FC00F00C020CF000FE040804FE00C628E3
:101716001028C60080403E408000868A92A2C20001
:1017260000FE828200008060100C0200008282FEB1
:1017360000002040804020000101010101004020FE
:1017460000000000042A2A2A1E007E1222221C0003
:101756001C22222214001C2222127E001C2A2A2A63
:101766001A00207EA0A00000192525253E00FE10A7
:1017760020201E000020BC02000004020202BC0061
:1017860000FE081422000080FC0202003E20182001
:101796001E003E2020201E001C2222221C003F1478
:1017A60024241800182424143F003E102020100082
:1017B600122A2A2A24000020FC2200003C020202EF
:1017C6003E003804020438003C020E023E00221499
:1017D60008142200390505053E0022262A32220079
:1017E60000106C8200000000FE00000000826C10F9
:0E17F600000018201008300000000000000065
:00000001FF
