:100000000C942A000C9444000C9434000C9434009A
:100010000C9434000C9434000C9434000C94340090
:100020000C9434000C9434000C9434000C94340080
:100030000C9434000C9434000C9434000C94340070
:100040000C9434000C9434000C9434000C94340060
:100050000C94340011241FBECFE5D8E0DEBFCDBF25
:100060000E9441000C9453000C94000078948BB7CC
:1000700080648BBF85B7826085BF8FEF84BB15BA64
:1000800008950E943600FFCF1F920F920FB60F9275
:1000900011248F9385B38F5F85BB8F910F900FBE17
:0A00A0000F901F901895F894FFCF01
:00000001FF
