S00E00004932434E65772E737265632E
S11300000C942A000C943C000C943C000C943C008E
S11300100C943C000C943C000C943C000C943C006C
S11300200C943C000C943C000C943C000C943C005C
S11300300C943C000C943C000C943C000C943C004C
S11300400C943C000C943C000C943C000C943C003C
S11300500C943C0011241FBECFE5D8E0DEBFCDBF19
S113006020E0A0E6B0E001C01D92A736B207E1F798
S11300700E94C9000C94D3000C94000082E480B95F
S113008081B181B9089584EA86BF06B607FEFDCF23
S1130090089583B984E886BF06B607FEFDCF0895A8
S11300A084E986BF089582E480B981B181B9089555
S11300B084EA86BF06B607FEFDCF089583B984E8B7
S11300C086BF06B607FEFDCF089584EC86BF06B64C
S11300D007FEFDCF83B1089584E886BF06B607FE08
S11300E0FDCF83B1089584E986BF08950E943E0040
S11300F00E94430080ED0E94490080E00E94490074
S113010080E00E94490080E00E94490080E00E9453
S1130110490080E00E94490080E00E94490080E09C
S11301200E94490080E00E94490080E10E94490049
S11301300E94500008950E9453000E94580080EDD0
S11301400E945E0080E00E945E000E94580081EDE3
S11301500E945E000E946500809366000E94650014
S1130160809365000E946500809364000E9465008E
S1130170809363000E946500809362000E94650082
S1130180809361000E946C00809360000E94730061
S113019008950E9476008FEF8ABB0E949B00809195
S10D01A066008BBBFACFF894FFCF82
S9030000FC
