S02000004144435F436F6E7374616E745F48696768566F6C746167652E73726563E2
S11300000C942A000C9434000C9434000C943400A6
S11300100C9434000C9434000C9434000C9434008C
S11300200C9434000C9434000C9434000C9434007C
S11300300C9434000C9434000C9434000C9434006C
S11300400C9434000C9434000C9434000C9434005C
S11300500C94340011241FBECFE5D8E0DEBFCDBF21
S11300600E945C000C94B1000C9400008CE184BBF1
S113007080E181BB1ABA86B1806886B986B1806492
S113008086B986B1876086B987B1806C87B987B134
S113009087B987B1876087B978948FB580628FBD3F
S11300A08EB581618EBD88EC90E097BD86BD81E000
S11300B090E099BD88BD08950E943600349B0AC023
S11300C086B1806186B986B1806486B983E397E09E
S11300D00197F1F784B195B188389140A0F484E098
S11300E085BB28B539B586B597B502972817390762
S11300F028F788B599B5019699BD88BD88E18A9598
S1130100F1F700C0DBCF84B195B18838914038F065
S113011084B195B18139914020F080E003C080E042
S113012001C081E0882339F088E085BB88E18A95A5
S1130130F1F700C0C3CF80E185BB28B539B586B5DA
S113014097B5969587958217930708F0B7CF88B52A
S113015099B5019799BD88BD98E19A95F1F700C0CA
S1090160ADCFF894FFCFBF
S9030000FC
