:020000020000FC
:040000000C942A0032
:10005400F8940FE50DBF08E00EBF0FEF0ABB07E0F1
:1000640007BB78940C943D0048656C6C6F2C20772A
:100074006F726C64210008E3009364000E947A00AC
:100084000CE0009364000E947A0006E00093640090
:100094000E947A0001E0009364000E947A00F0E07C
:1000A400F0936300ECE6E09362000E945B000C9422
:1000B40059009FB79F93E0916200F09163006591AE
:1000C400603029F0609364000E946C00C1F79F9136
:1000D4009FBF0895F8940E948800609164006BBBF0
:1000E40060E068BB65E068BB60E068BB7894089535
:1000F400F8940E948800609164006BBB60E068BB68
:1001040061E068BB60E068BB7894089570E07ABBF6
:1001140072E078BB73E078BB72E078BB79B377FDAB
:100124000C948A007FEF7ABB7AE0709360007AE0E7
:10013400709361000E949F0008959FB79F937091F0
:100144006100609160006A956030E9F77A957130DA
:08015400C1F79F919FBF0895C0
:00000001FF
