:020000020000FC
:040000000C9430002C
:100060000FE50DBF08E00EBF0FEF0ABB07E007BBAF
:100070000C943A0008E30E9453000CE00E945300E5
:1000800006E00E94530001E00E945300EE27FF2784
:1000900010E0F1E0E8E105910E945D001395103158
:1000A000D1F70C9451000E9467000BBB00E008BB25
:1000B00001E008BB00E008BB08950E9467000BBB8D
:1000C00000E008BB05E008BB00E008BB08950F9303
:1000D00000E00ABB02E008BB03E008BB02E008BB8B
:1000E00009B307FD0C946A0000000FEF0ABB0E94E1
:1000F0007B000F9108950F931F930FB70F931AE092
:100100000AE00A950030E9F71A951130C9F70F9106
:100110000FBF1F910F91089548656C6C6F2C20776D
:080120006F726C6421202020A5
:00000001FF
